{
  "_format": "hh-sol-artifact-1",
  "contractName": "ReignCoin",
  "sourceName": "contracts/protocol/ReignCoin.sol",
  "abi": [
    {
      "inputs": [],
      "name": "ReignCoin__InvalidStakingAddress",
      "type": "error"
    },
    {
      "anonymous": false,
      "inputs": [
        {
          "indexed": true,
          "internalType": "address",
          "name": "owner",
          "type": "address"
        },
        {
          "indexed": true,
          "internalType": "address",
          "name": "spender",
          "type": "address"
        },
        {
          "indexed": false,
          "internalType": "uint256",
          "name": "value",
          "type": "uint256"
        }
      ],
      "name": "Approval",
      "type": "event"
    },
    {
      "anonymous": false,
      "inputs": [
        {
          "indexed": false,
          "internalType": "uint8",
          "name": "version",
          "type": "uint8"
        }
      ],
      "name": "Initialized",
      "type": "event"
    },
    {
      "anonymous": false,
      "inputs": [
        {
          "indexed": true,
          "internalType": "bytes32",
          "name": "role",
          "type": "bytes32"
        },
        {
          "indexed": true,
          "internalType": "bytes32",
          "name": "previousAdminRole",
          "type": "bytes32"
        },
        {
          "indexed": true,
          "internalType": "bytes32",
          "name": "newAdminRole",
          "type": "bytes32"
        }
      ],
      "name": "RoleAdminChanged",
      "type": "event"
    },
    {
      "anonymous": false,
      "inputs": [
        {
          "indexed": true,
          "internalType": "bytes32",
          "name": "role",
          "type": "bytes32"
        },
        {
          "indexed": true,
          "internalType": "address",
          "name": "account",
          "type": "address"
        },
        {
          "indexed": true,
          "internalType": "address",
          "name": "sender",
          "type": "address"
        }
      ],
      "name": "RoleGranted",
      "type": "event"
    },
    {
      "anonymous": false,
      "inputs": [
        {
          "indexed": true,
          "internalType": "bytes32",
          "name": "role",
          "type": "bytes32"
        },
        {
          "indexed": true,
          "internalType": "address",
          "name": "account",
          "type": "address"
        },
        {
          "indexed": true,
          "internalType": "address",
          "name": "sender",
          "type": "address"
        }
      ],
      "name": "RoleRevoked",
      "type": "event"
    },
    {
      "anonymous": false,
      "inputs": [
        {
          "indexed": true,
          "internalType": "address",
          "name": "from",
          "type": "address"
        },
        {
          "indexed": true,
          "internalType": "address",
          "name": "to",
          "type": "address"
        },
        {
          "indexed": false,
          "internalType": "uint256",
          "name": "value",
          "type": "uint256"
        }
      ],
      "name": "Transfer",
      "type": "event"
    },
    {
      "inputs": [],
      "name": "DEFAULT_ADMIN_ROLE",
      "outputs": [
        {
          "internalType": "bytes32",
          "name": "",
          "type": "bytes32"
        }
      ],
      "stateMutability": "view",
      "type": "function"
    },
    {
      "inputs": [
        {
          "internalType": "address",
          "name": "owner",
          "type": "address"
        },
        {
          "internalType": "address",
          "name": "spender",
          "type": "address"
        }
      ],
      "name": "allowance",
      "outputs": [
        {
          "internalType": "uint256",
          "name": "",
          "type": "uint256"
        }
      ],
      "stateMutability": "view",
      "type": "function"
    },
    {
      "inputs": [
        {
          "internalType": "address",
          "name": "spender",
          "type": "address"
        },
        {
          "internalType": "uint256",
          "name": "amount",
          "type": "uint256"
        }
      ],
      "name": "approve",
      "outputs": [
        {
          "internalType": "bool",
          "name": "",
          "type": "bool"
        }
      ],
      "stateMutability": "nonpayable",
      "type": "function"
    },
    {
      "inputs": [
        {
          "internalType": "address",
          "name": "account",
          "type": "address"
        }
      ],
      "name": "balanceOf",
      "outputs": [
        {
          "internalType": "uint256",
          "name": "",
          "type": "uint256"
        }
      ],
      "stateMutability": "view",
      "type": "function"
    },
    {
      "inputs": [
        {
          "internalType": "address",
          "name": "_from",
          "type": "address"
        },
        {
          "internalType": "uint256",
          "name": "_amount",
          "type": "uint256"
        }
      ],
      "name": "burn",
      "outputs": [],
      "stateMutability": "nonpayable",
      "type": "function"
    },
    {
      "inputs": [],
      "name": "decimals",
      "outputs": [
        {
          "internalType": "uint8",
          "name": "",
          "type": "uint8"
        }
      ],
      "stateMutability": "view",
      "type": "function"
    },
    {
      "inputs": [
        {
          "internalType": "address",
          "name": "spender",
          "type": "address"
        },
        {
          "internalType": "uint256",
          "name": "subtractedValue",
          "type": "uint256"
        }
      ],
      "name": "decreaseAllowance",
      "outputs": [
        {
          "internalType": "bool",
          "name": "",
          "type": "bool"
        }
      ],
      "stateMutability": "nonpayable",
      "type": "function"
    },
    {
      "inputs": [
        {
          "internalType": "bytes32",
          "name": "role",
          "type": "bytes32"
        }
      ],
      "name": "getRoleAdmin",
      "outputs": [
        {
          "internalType": "bytes32",
          "name": "",
          "type": "bytes32"
        }
      ],
      "stateMutability": "view",
      "type": "function"
    },
    {
      "inputs": [
        {
          "internalType": "bytes32",
          "name": "role",
          "type": "bytes32"
        },
        {
          "internalType": "address",
          "name": "account",
          "type": "address"
        }
      ],
      "name": "grantRole",
      "outputs": [],
      "stateMutability": "nonpayable",
      "type": "function"
    },
    {
      "inputs": [
        {
          "internalType": "bytes32",
          "name": "role",
          "type": "bytes32"
        },
        {
          "internalType": "address",
          "name": "account",
          "type": "address"
        }
      ],
      "name": "hasRole",
      "outputs": [
        {
          "internalType": "bool",
          "name": "",
          "type": "bool"
        }
      ],
      "stateMutability": "view",
      "type": "function"
    },
    {
      "inputs": [
        {
          "internalType": "address",
          "name": "spender",
          "type": "address"
        },
        {
          "internalType": "uint256",
          "name": "addedValue",
          "type": "uint256"
        }
      ],
      "name": "increaseAllowance",
      "outputs": [
        {
          "internalType": "bool",
          "name": "",
          "type": "bool"
        }
      ],
      "stateMutability": "nonpayable",
      "type": "function"
    },
    {
      "inputs": [
        {
          "internalType": "address",
          "name": "_reignProtocol",
          "type": "address"
        }
      ],
      "name": "initialize",
      "outputs": [],
      "stateMutability": "nonpayable",
      "type": "function"
    },
    {
      "inputs": [
        {
          "internalType": "address",
          "name": "_to",
          "type": "address"
        },
        {
          "internalType": "uint256",
          "name": "_amount",
          "type": "uint256"
        }
      ],
      "name": "mint",
      "outputs": [],
      "stateMutability": "nonpayable",
      "type": "function"
    },
    {
      "inputs": [],
      "name": "name",
      "outputs": [
        {
          "internalType": "string",
          "name": "",
          "type": "string"
        }
      ],
      "stateMutability": "view",
      "type": "function"
    },
    {
      "inputs": [
        {
          "internalType": "bytes32",
          "name": "role",
          "type": "bytes32"
        },
        {
          "internalType": "address",
          "name": "account",
          "type": "address"
        }
      ],
      "name": "renounceRole",
      "outputs": [],
      "stateMutability": "nonpayable",
      "type": "function"
    },
    {
      "inputs": [
        {
          "internalType": "bytes32",
          "name": "role",
          "type": "bytes32"
        },
        {
          "internalType": "address",
          "name": "account",
          "type": "address"
        }
      ],
      "name": "revokeRole",
      "outputs": [],
      "stateMutability": "nonpayable",
      "type": "function"
    },
    {
      "inputs": [
        {
          "internalType": "bytes4",
          "name": "interfaceId",
          "type": "bytes4"
        }
      ],
      "name": "supportsInterface",
      "outputs": [
        {
          "internalType": "bool",
          "name": "",
          "type": "bool"
        }
      ],
      "stateMutability": "view",
      "type": "function"
    },
    {
      "inputs": [],
      "name": "symbol",
      "outputs": [
        {
          "internalType": "string",
          "name": "",
          "type": "string"
        }
      ],
      "stateMutability": "view",
      "type": "function"
    },
    {
      "inputs": [],
      "name": "totalShares",
      "outputs": [
        {
          "internalType": "uint256",
          "name": "",
          "type": "uint256"
        }
      ],
      "stateMutability": "view",
      "type": "function"
    },
    {
      "inputs": [],
      "name": "totalSupply",
      "outputs": [
        {
          "internalType": "uint256",
          "name": "",
          "type": "uint256"
        }
      ],
      "stateMutability": "view",
      "type": "function"
    },
    {
      "inputs": [
        {
          "internalType": "address",
          "name": "to",
          "type": "address"
        },
        {
          "internalType": "uint256",
          "name": "amount",
          "type": "uint256"
        }
      ],
      "name": "transfer",
      "outputs": [
        {
          "internalType": "bool",
          "name": "",
          "type": "bool"
        }
      ],
      "stateMutability": "nonpayable",
      "type": "function"
    },
    {
      "inputs": [
        {
          "internalType": "address",
          "name": "from",
          "type": "address"
        },
        {
          "internalType": "address",
          "name": "to",
          "type": "address"
        },
        {
          "internalType": "uint256",
          "name": "amount",
          "type": "uint256"
        }
      ],
      "name": "transferFrom",
      "outputs": [
        {
          "internalType": "bool",
          "name": "",
          "type": "bool"
        }
      ],
      "stateMutability": "nonpayable",
      "type": "function"
    }
  ],
  "bytecode": "0x608060405234801561001057600080fd5b50611532806100206000396000f3fe608060405234801561001057600080fd5b50600436106101425760003560e01c806340c10f19116100b8578063a217fddf1161007c578063a217fddf1461029c578063a457c2d7146102a4578063a9059cbb146102b7578063c4d66de8146102ca578063d547741f146102dd578063dd62ed3e146102f057600080fd5b806340c10f191461023257806370a082311461024557806391d148541461026e57806395d89b41146102815780639dc29fac1461028957600080fd5b8063248a9ca31161010a578063248a9ca3146101bc5780632f2ff15d146101df578063313ce567146101f457806336568abe1461020357806339509351146102165780633a98ef391461022957600080fd5b806301ffc9a71461014757806306fdde031461016f578063095ea7b31461018457806318160ddd1461019757806323b872dd146101a9575b600080fd5b61015a6101553660046112b5565b610303565b60405190151581526020015b60405180910390f35b61017761033a565b604051610166919061134c565b61015a610192366004611252565b6103cc565b6099545b604051908152602001610166565b61015a6101b7366004611217565b6103e4565b61019b6101ca36600461127b565b60009081526065602052604090206001015490565b6101f26101ed366004611293565b610408565b005b60405160068152602001610166565b6101f2610211366004611293565b610432565b61015a610224366004611252565b6104b5565b61019b60c95481565b6101f2610240366004611252565b6104d7565b61019b6102533660046111cb565b6001600160a01b031660009081526097602052604090205490565b61015a61027c366004611293565b610526565b610177610551565b6101f2610297366004611252565b610560565b61019b600081565b61015a6102b2366004611252565b6105a9565b61015a6102c5366004611252565b610624565b6101f26102d83660046111cb565b610632565b6101f26102eb366004611293565b6107c3565b61019b6102fe3660046111e5565b6107e8565b60006001600160e01b03198216637965db0b60e01b148061033457506301ffc9a760e01b6001600160e01b03198316145b92915050565b6060609a80546103499061148b565b80601f01602080910402602001604051908101604052809291908181526020018280546103759061148b565b80156103c25780601f10610397576101008083540402835291602001916103c2565b820191906000526020600020905b8154815290600101906020018083116103a557829003601f168201915b5050505050905090565b6000336103da818585610813565b5060019392505050565b6000336103f2858285610937565b6103fd8585856109b1565b506001949350505050565b60008281526065602052604090206001015461042381610b4a565b61042d8383610b57565b505050565b6001600160a01b03811633146104a75760405162461bcd60e51b815260206004820152602f60248201527f416363657373436f6e74726f6c3a2063616e206f6e6c792072656e6f756e636560448201526e103937b632b9903337b91039b2b63360891b60648201526084015b60405180910390fd5b6104b18282610bdd565b5050565b6000336103da8185856104c883836107e8565b6104d291906113fa565b610813565b6104e86104e2610c44565b33610526565b6105045760405162461bcd60e51b815260040161049e906113ca565b8060c9600082825461051691906113fa565b909155506104b190508282610c68565b60009182526065602090815260408084206001600160a01b0393909316845291905290205460ff1690565b6060609b80546103499061148b565b61056b6104e2610c44565b6105875760405162461bcd60e51b815260040161049e906113ca565b8060c960008282546105999190611431565b909155506104b190508282610d17565b600033816105b782866107e8565b9050838110156106175760405162461bcd60e51b815260206004820152602560248201527f45524332303a2064656372656173656420616c6c6f77616e63652062656c6f77604482015264207a65726f60d81b606482015260840161049e565b6103fd8286868403610813565b6000336103da8185856109b1565b600054610100900460ff16158080156106525750600054600160ff909116105b8061066c5750303b15801561066c575060005460ff166001145b6106cf5760405162461bcd60e51b815260206004820152602e60248201527f496e697469616c697a61626c653a20636f6e747261637420697320616c72656160448201526d191e481a5b9a5d1a585b1a5e995960921b606482015260840161049e565b6000805460ff1916600117905580156106f2576000805461ff0019166101001790555b6001600160a01b0382161561071a576040516346ef07a560e11b815260040160405180910390fd5b61075e604051806040016040528060058152602001642932b4b3b760d91b815250604051806040016040528060058152602001642922a4a3a760d91b815250610e39565b61076f610769610c44565b83610e6a565b61077a600033610e6a565b80156104b1576000805461ff0019169055604051600181527f7f26b83ff96e1f2b6a682f133852f6798a09c465da95921460cefb38474024989060200160405180910390a15050565b6000828152606560205260409020600101546107de81610b4a565b61042d8383610bdd565b6001600160a01b03918216600090815260986020908152604080832093909416825291909152205490565b6001600160a01b0383166108755760405162461bcd60e51b8152602060048201526024808201527f45524332303a20617070726f76652066726f6d20746865207a65726f206164646044820152637265737360e01b606482015260840161049e565b6001600160a01b0382166108d65760405162461bcd60e51b815260206004820152602260248201527f45524332303a20617070726f766520746f20746865207a65726f206164647265604482015261737360f01b606482015260840161049e565b6001600160a01b0383811660008181526098602090815260408083209487168084529482529182902085905590518481527f8c5be1e5ebec7d5bd14f71427d1e84f3dd0314c0f7b2291e5b200ac8c7c3b925910160405180910390a3505050565b600061094384846107e8565b905060001981146109ab578181101561099e5760405162461bcd60e51b815260206004820152601d60248201527f45524332303a20696e73756666696369656e7420616c6c6f77616e6365000000604482015260640161049e565b6109ab8484848403610813565b50505050565b6001600160a01b038316610a155760405162461bcd60e51b815260206004820152602560248201527f45524332303a207472616e736665722066726f6d20746865207a65726f206164604482015264647265737360d81b606482015260840161049e565b6001600160a01b038216610a775760405162461bcd60e51b815260206004820152602360248201527f45524332303a207472616e7366657220746f20746865207a65726f206164647260448201526265737360e81b606482015260840161049e565b6001600160a01b03831660009081526097602052604090205481811015610aef5760405162461bcd60e51b815260206004820152602660248201527f45524332303a207472616e7366657220616d6f756e7420657863656564732062604482015265616c616e636560d01b606482015260840161049e565b6001600160a01b0380851660008181526097602052604080822086860390559286168082529083902080548601905591516000805160206114dd83398151915290610b3d9086815260200190565b60405180910390a36109ab565b610b548133610e74565b50565b610b618282610526565b6104b15760008281526065602090815260408083206001600160a01b03851684529091529020805460ff19166001179055610b993390565b6001600160a01b0316816001600160a01b0316837f2f8788117e7eff1d82e926ec794901d17c78024a50270940304540a733656f0d60405160405180910390a45050565b610be78282610526565b156104b15760008281526065602090815260408083206001600160a01b0385168085529252808320805460ff1916905551339285917ff6391f5c32d9c69d2a47ea670b442974b53935d1edc7fd64eb21e047a839171b9190a45050565b7f6270edb7c868f86fda4adedba75108201087268ea345934db8bad688e1feb91b90565b6001600160a01b038216610cbe5760405162461bcd60e51b815260206004820152601f60248201527f45524332303a206d696e7420746f20746865207a65726f206164647265737300604482015260640161049e565b8060996000828254610cd091906113fa565b90915550506001600160a01b0382166000818152609760209081526040808320805486019055518481526000805160206114dd833981519152910160405180910390a35050565b6001600160a01b038216610d775760405162461bcd60e51b815260206004820152602160248201527f45524332303a206275726e2066726f6d20746865207a65726f206164647265736044820152607360f81b606482015260840161049e565b6001600160a01b03821660009081526097602052604090205481811015610deb5760405162461bcd60e51b815260206004820152602260248201527f45524332303a206275726e20616d6f756e7420657863656564732062616c616e604482015261636560f01b606482015260840161049e565b6001600160a01b03831660008181526097602090815260408083208686039055609980548790039055518581529192916000805160206114dd833981519152910160405180910390a3505050565b600054610100900460ff16610e605760405162461bcd60e51b815260040161049e9061137f565b6104b18282610ecd565b6104b18282610b57565b610e7e8282610526565b6104b157610e8b81610f1b565b610e96836020610f2d565b604051602001610ea79291906112dd565b60408051601f198184030181529082905262461bcd60e51b825261049e9160040161134c565b600054610100900460ff16610ef45760405162461bcd60e51b815260040161049e9061137f565b8151610f0790609a906020850190611116565b50805161042d90609b906020840190611116565b60606103346001600160a01b03831660145b60606000610f3c836002611412565b610f479060026113fa565b67ffffffffffffffff811115610f6d57634e487b7160e01b600052604160045260246000fd5b6040519080825280601f01601f191660200182016040528015610f97576020820181803683370190505b509050600360fc1b81600081518110610fc057634e487b7160e01b600052603260045260246000fd5b60200101906001600160f81b031916908160001a905350600f60fb1b81600181518110610ffd57634e487b7160e01b600052603260045260246000fd5b60200101906001600160f81b031916908160001a9053506000611021846002611412565b61102c9060016113fa565b90505b60018111156110c0576f181899199a1a9b1b9c1cb0b131b232b360811b85600f166010811061106e57634e487b7160e01b600052603260045260246000fd5b1a60f81b82828151811061109257634e487b7160e01b600052603260045260246000fd5b60200101906001600160f81b031916908160001a90535060049490941c936110b981611474565b905061102f565b50831561110f5760405162461bcd60e51b815260206004820181905260248201527f537472696e67733a20686578206c656e67746820696e73756666696369656e74604482015260640161049e565b9392505050565b8280546111229061148b565b90600052602060002090601f016020900481019282611144576000855561118a565b82601f1061115d57805160ff191683800117855561118a565b8280016001018555821561118a579182015b8281111561118a57825182559160200191906001019061116f565b5061119692915061119a565b5090565b5b80821115611196576000815560010161119b565b80356001600160a01b03811681146111c657600080fd5b919050565b6000602082840312156111dc578081fd5b61110f826111af565b600080604083850312156111f7578081fd5b611200836111af565b915061120e602084016111af565b90509250929050565b60008060006060848603121561122b578081fd5b611234846111af565b9250611242602085016111af565b9150604084013590509250925092565b60008060408385031215611264578182fd5b61126d836111af565b946020939093013593505050565b60006020828403121561128c578081fd5b5035919050565b600080604083850312156112a5578182fd5b8235915061120e602084016111af565b6000602082840312156112c6578081fd5b81356001600160e01b03198116811461110f578182fd5b76020b1b1b2b9b9a1b7b73a3937b61d1030b1b1b7bab73a1604d1b81526000835161130f816017850160208801611448565b7001034b99036b4b9b9b4b733903937b6329607d1b6017918401918201528351611340816028840160208801611448565b01602801949350505050565b602081526000825180602084015261136b816040850160208701611448565b601f01601f19169190910160400192915050565b6020808252602b908201527f496e697469616c697a61626c653a20636f6e7472616374206973206e6f74206960408201526a6e697469616c697a696e6760a81b606082015260800190565b60208082526016908201527521b0b63632b91034b9903737ba1030b71037bbb732b960511b604082015260600190565b6000821982111561140d5761140d6114c6565b500190565b600081600019048311821515161561142c5761142c6114c6565b500290565b600082821015611443576114436114c6565b500390565b60005b8381101561146357818101518382015260200161144b565b838111156109ab5750506000910152565b600081611483576114836114c6565b506000190190565b600181811c9082168061149f57607f821691505b602082108114156114c057634e487b7160e01b600052602260045260246000fd5b50919050565b634e487b7160e01b600052601160045260246000fdfeddf252ad1be2c89b69c2b068fc378daa952ba7f163c4a11628f55a4df523b3efa2646970667358221220bfc06665ed5aa02ba6e0879edee958bd97816d70bc8ad18835cf474f1b9019a064736f6c63430008040033",
  "linkReferences": {},
  "deployedLinkReferences": {}
}