{
  "_format": "hh-sol-artifact-1",
  "contractName": "Investor",
  "sourceName": "contracts/protocol/Investor.sol",
  "abi": [
    {
      "anonymous": false,
      "inputs": [
        {
          "indexed": false,
          "internalType": "address",
          "name": "previousAdmin",
          "type": "address"
        },
        {
          "indexed": false,
          "internalType": "address",
          "name": "newAdmin",
          "type": "address"
        }
      ],
      "name": "AdminChanged",
      "type": "event"
    },
    {
      "anonymous": false,
      "inputs": [
        {
          "indexed": true,
          "internalType": "address",
          "name": "beacon",
          "type": "address"
        }
      ],
      "name": "BeaconUpgraded",
      "type": "event"
    },
    {
      "anonymous": false,
      "inputs": [
        {
          "indexed": false,
          "internalType": "uint8",
          "name": "version",
          "type": "uint8"
        }
      ],
      "name": "Initialized",
      "type": "event"
    },
    {
      "anonymous": false,
      "inputs": [
        {
          "indexed": false,
          "internalType": "address",
          "name": "account",
          "type": "address"
        }
      ],
      "name": "Paused",
      "type": "event"
    },
    {
      "anonymous": false,
      "inputs": [
        {
          "indexed": true,
          "internalType": "bytes32",
          "name": "role",
          "type": "bytes32"
        },
        {
          "indexed": true,
          "internalType": "bytes32",
          "name": "previousAdminRole",
          "type": "bytes32"
        },
        {
          "indexed": true,
          "internalType": "bytes32",
          "name": "newAdminRole",
          "type": "bytes32"
        }
      ],
      "name": "RoleAdminChanged",
      "type": "event"
    },
    {
      "anonymous": false,
      "inputs": [
        {
          "indexed": true,
          "internalType": "bytes32",
          "name": "role",
          "type": "bytes32"
        },
        {
          "indexed": true,
          "internalType": "address",
          "name": "account",
          "type": "address"
        },
        {
          "indexed": true,
          "internalType": "address",
          "name": "sender",
          "type": "address"
        }
      ],
      "name": "RoleGranted",
      "type": "event"
    },
    {
      "anonymous": false,
      "inputs": [
        {
          "indexed": true,
          "internalType": "bytes32",
          "name": "role",
          "type": "bytes32"
        },
        {
          "indexed": true,
          "internalType": "address",
          "name": "account",
          "type": "address"
        },
        {
          "indexed": true,
          "internalType": "address",
          "name": "sender",
          "type": "address"
        }
      ],
      "name": "RoleRevoked",
      "type": "event"
    },
    {
      "anonymous": false,
      "inputs": [
        {
          "indexed": false,
          "internalType": "address",
          "name": "account",
          "type": "address"
        }
      ],
      "name": "Unpaused",
      "type": "event"
    },
    {
      "anonymous": false,
      "inputs": [
        {
          "indexed": true,
          "internalType": "address",
          "name": "implementation",
          "type": "address"
        }
      ],
      "name": "Upgraded",
      "type": "event"
    },
    {
      "inputs": [],
      "name": "DEFAULT_ADMIN_ROLE",
      "outputs": [
        {
          "internalType": "bytes32",
          "name": "",
          "type": "bytes32"
        }
      ],
      "stateMutability": "view",
      "type": "function"
    },
    {
      "inputs": [
        {
          "internalType": "address",
          "name": "owner",
          "type": "address"
        }
      ],
      "name": "_BaseUpgradeablePausable_init",
      "outputs": [],
      "stateMutability": "nonpayable",
      "type": "function"
    },
    {
      "inputs": [],
      "name": "__PauserPausable__init",
      "outputs": [],
      "stateMutability": "nonpayable",
      "type": "function"
    },
    {
      "inputs": [
        {
          "internalType": "address",
          "name": "_investor",
          "type": "address"
        },
        {
          "internalType": "bytes32",
          "name": "_opportunityId",
          "type": "bytes32"
        }
      ],
      "name": "addOpportunity",
      "outputs": [],
      "stateMutability": "nonpayable",
      "type": "function"
    },
    {
      "inputs": [
        {
          "internalType": "address",
          "name": "_investor",
          "type": "address"
        },
        {
          "internalType": "bytes32",
          "name": "_opportunityId",
          "type": "bytes32"
        }
      ],
      "name": "getInvestor",
      "outputs": [
        {
          "internalType": "bool",
          "name": "",
          "type": "bool"
        }
      ],
      "stateMutability": "view",
      "type": "function"
    },
    {
      "inputs": [
        {
          "internalType": "address",
          "name": "_investor",
          "type": "address"
        }
      ],
      "name": "getOpportunities",
      "outputs": [
        {
          "internalType": "bytes32[]",
          "name": "",
          "type": "bytes32[]"
        }
      ],
      "stateMutability": "view",
      "type": "function"
    },
    {
      "inputs": [
        {
          "internalType": "bytes32",
          "name": "role",
          "type": "bytes32"
        }
      ],
      "name": "getRoleAdmin",
      "outputs": [
        {
          "internalType": "bytes32",
          "name": "",
          "type": "bytes32"
        }
      ],
      "stateMutability": "view",
      "type": "function"
    },
    {
      "inputs": [
        {
          "internalType": "bytes32",
          "name": "role",
          "type": "bytes32"
        },
        {
          "internalType": "address",
          "name": "account",
          "type": "address"
        }
      ],
      "name": "grantRole",
      "outputs": [],
      "stateMutability": "nonpayable",
      "type": "function"
    },
    {
      "inputs": [
        {
          "internalType": "bytes32",
          "name": "role",
          "type": "bytes32"
        },
        {
          "internalType": "address",
          "name": "account",
          "type": "address"
        }
      ],
      "name": "hasRole",
      "outputs": [
        {
          "internalType": "bool",
          "name": "",
          "type": "bool"
        }
      ],
      "stateMutability": "view",
      "type": "function"
    },
    {
      "inputs": [
        {
          "internalType": "contract ReignConfig",
          "name": "_reignConfig",
          "type": "address"
        }
      ],
      "name": "initialize",
      "outputs": [],
      "stateMutability": "nonpayable",
      "type": "function"
    },
    {
      "inputs": [
        {
          "internalType": "address",
          "name": "",
          "type": "address"
        },
        {
          "internalType": "uint256",
          "name": "",
          "type": "uint256"
        }
      ],
      "name": "investorToOpportunity",
      "outputs": [
        {
          "internalType": "bytes32",
          "name": "",
          "type": "bytes32"
        }
      ],
      "stateMutability": "view",
      "type": "function"
    },
    {
      "inputs": [],
      "name": "isAdmin",
      "outputs": [
        {
          "internalType": "bool",
          "name": "",
          "type": "bool"
        }
      ],
      "stateMutability": "view",
      "type": "function"
    },
    {
      "inputs": [],
      "name": "opportunityManager",
      "outputs": [
        {
          "internalType": "contract IOpportunityManager",
          "name": "",
          "type": "address"
        }
      ],
      "stateMutability": "view",
      "type": "function"
    },
    {
      "inputs": [],
      "name": "pause",
      "outputs": [],
      "stateMutability": "nonpayable",
      "type": "function"
    },
    {
      "inputs": [],
      "name": "paused",
      "outputs": [
        {
          "internalType": "bool",
          "name": "",
          "type": "bool"
        }
      ],
      "stateMutability": "view",
      "type": "function"
    },
    {
      "inputs": [],
      "name": "proxiableUUID",
      "outputs": [
        {
          "internalType": "bytes32",
          "name": "",
          "type": "bytes32"
        }
      ],
      "stateMutability": "view",
      "type": "function"
    },
    {
      "inputs": [],
      "name": "reignConfig",
      "outputs": [
        {
          "internalType": "contract ReignConfig",
          "name": "",
          "type": "address"
        }
      ],
      "stateMutability": "view",
      "type": "function"
    },
    {
      "inputs": [
        {
          "internalType": "address",
          "name": "_investor",
          "type": "address"
        },
        {
          "internalType": "bytes32",
          "name": "_opportunityId",
          "type": "bytes32"
        }
      ],
      "name": "removeOpportunity",
      "outputs": [],
      "stateMutability": "nonpayable",
      "type": "function"
    },
    {
      "inputs": [
        {
          "internalType": "bytes32",
          "name": "role",
          "type": "bytes32"
        },
        {
          "internalType": "address",
          "name": "account",
          "type": "address"
        }
      ],
      "name": "renounceRole",
      "outputs": [],
      "stateMutability": "nonpayable",
      "type": "function"
    },
    {
      "inputs": [
        {
          "internalType": "bytes32",
          "name": "role",
          "type": "bytes32"
        },
        {
          "internalType": "address",
          "name": "account",
          "type": "address"
        }
      ],
      "name": "revokeRole",
      "outputs": [],
      "stateMutability": "nonpayable",
      "type": "function"
    },
    {
      "inputs": [
        {
          "internalType": "bytes4",
          "name": "interfaceId",
          "type": "bytes4"
        }
      ],
      "name": "supportsInterface",
      "outputs": [
        {
          "internalType": "bool",
          "name": "",
          "type": "bool"
        }
      ],
      "stateMutability": "view",
      "type": "function"
    },
    {
      "inputs": [],
      "name": "unpause",
      "outputs": [],
      "stateMutability": "nonpayable",
      "type": "function"
    },
    {
      "inputs": [
        {
          "internalType": "address",
          "name": "newImplementation",
          "type": "address"
        }
      ],
      "name": "upgradeTo",
      "outputs": [],
      "stateMutability": "nonpayable",
      "type": "function"
    },
    {
      "inputs": [
        {
          "internalType": "address",
          "name": "newImplementation",
          "type": "address"
        },
        {
          "internalType": "bytes",
          "name": "data",
          "type": "bytes"
        }
      ],
      "name": "upgradeToAndCall",
      "outputs": [],
      "stateMutability": "payable",
      "type": "function"
    }
  ],
  "bytecode": "0x60a06040523060601b60805234801561001757600080fd5b5060805160601c6123446100526000396000818161053901528181610579015281816106cf0152818161070f015261085001526123446000f3fe60806040526004361061014b5760003560e01c80636936a3ea116100b6578063b2a010551161006f578063b2a0105514610394578063b6db75a0146103b5578063c4d66de8146103ca578063cc2a9cf3146103ea578063d547741f1461040a578063de9d9ee81461042a57600080fd5b80636936a3ea146102ea5780638456cb591461030a57806391d148541461031f578063a12dde4d1461033f578063a217fddf1461035f578063a68a13221461037457600080fd5b80633f4ba83a116101085780633f4ba83a14610253578063418f878c146102685780634f1ef28614610295578063526d81f6146102a857806352d1902d146102bd5780635c975abb146102d257600080fd5b806301ffc9a7146101505780630e23994d14610185578063248a9ca3146101b35780632f2ff15d146101f157806336568abe146102135780633659cfe614610233575b600080fd5b34801561015c57600080fd5b5061017061016b366004611e7e565b61044a565b60405190151581526020015b60405180910390f35b34801561019157600080fd5b50610160546101a6906001600160a01b031681565b60405161017c9190611f31565b3480156101bf57600080fd5b506101e36101ce366004611e1f565b60009081526065602052604090206001015490565b60405190815260200161017c565b3480156101fd57600080fd5b5061021161020c366004611e4f565b610481565b005b34801561021f57600080fd5b5061021161022e366004611e4f565b6104ab565b34801561023f57600080fd5b5061021161024e366004611ccb565b61052e565b34801561025f57600080fd5b506102116105f7565b34801561027457600080fd5b50610288610283366004611ccb565b61062e565b60405161017c9190611f45565b6102116102a3366004611d2e565b6106c4565b3480156102b457600080fd5b5061021161077a565b3480156102c957600080fd5b506101e3610843565b3480156102de57600080fd5b5060975460ff16610170565b3480156102f657600080fd5b50610170610305366004611d03565b6108f1565b34801561031657600080fd5b506102116109e4565b34801561032b57600080fd5b5061017061033a366004611e4f565b610a13565b34801561034b57600080fd5b5061021161035a366004611ccb565b610a3e565b34801561036b57600080fd5b506101e3600081565b34801561038057600080fd5b5061021161038f366004611d03565b610b12565b3480156103a057600080fd5b5061015f546101a6906001600160a01b031681565b3480156103c157600080fd5b50610170610ce4565b3480156103d657600080fd5b506102116103e5366004611ccb565b610cf6565b3480156103f657600080fd5b506101e3610405366004611ded565b610e9a565b34801561041657600080fd5b50610211610425366004611e4f565b610ecc565b34801561043657600080fd5b50610211610445366004611d03565b610ef1565b60006001600160e01b03198216637965db0b60e01b148061047b57506301ffc9a760e01b6001600160e01b03198316145b92915050565b60008281526065602052604090206001015461049c81611275565b6104a6838361127f565b505050565b6001600160a01b03811633146105205760405162461bcd60e51b815260206004820152602f60248201527f416363657373436f6e74726f6c3a2063616e206f6e6c792072656e6f756e636560448201526e103937b632b9903337b91039b2b63360891b60648201526084015b60405180910390fd5b61052a8282611305565b5050565b306001600160a01b037f00000000000000000000000000000000000000000000000000000000000000001614156105775760405162461bcd60e51b815260040161051790611fe4565b7f00000000000000000000000000000000000000000000000000000000000000006001600160a01b03166105a961136c565b6001600160a01b0316146105cf5760405162461bcd60e51b815260040161051790612030565b6105d881611388565b604080516000808252602082019092526105f4918391906113f0565b50565b61060861060261156a565b33610a13565b6106245760405162461bcd60e51b815260040161051790612194565b61062c61158e565b565b60606001600160a01b0382166106565760405162461bcd60e51b8152600401610517906120ca565b6001600160a01b038216600090815261016160209081526040808320805482518185028101850190935280835291929091908301828280156106b757602002820191906000526020600020905b8154815260200190600101908083116106a3575b5093979650505050505050565b306001600160a01b037f000000000000000000000000000000000000000000000000000000000000000016141561070d5760405162461bcd60e51b815260040161051790611fe4565b7f00000000000000000000000000000000000000000000000000000000000000006001600160a01b031661073f61136c565b6001600160a01b0316146107655760405162461bcd60e51b815260040161051790612030565b61076e82611388565b61052a828260016113f0565b600054610100900460ff161580801561079a5750600054600160ff909116105b806107b45750303b1580156107b4575060005460ff166001145b6107d05760405162461bcd60e51b81526004016105179061207c565b6000805460ff1916600117905580156107f3576000805461ff0019166101001790555b6107fb6115da565b80156105f4576000805461ff0019169055604051600181527f7f26b83ff96e1f2b6a682f133852f6798a09c465da95921460cefb38474024989060200160405180910390a150565b6000306001600160a01b037f000000000000000000000000000000000000000000000000000000000000000016146108de5760405162461bcd60e51b815260206004820152603860248201527f555550535570677261646561626c653a206d757374206e6f742062652063616c6044820152771b1959081d1a1c9bdd59da0819195b1959d85d1958d85b1b60421b6064820152608401610517565b506000805160206122c883398151915290565b60006001600160a01b0383166109195760405162461bcd60e51b8152600401610517906120ca565b6001600160a01b0383166000908152610161602090815260408083208054825181850281018501909352808352919290919083018282801561097a57602002820191906000526020600020905b815481526020019060010190808311610966575b5050505050905060005b81518110156109d957838282815181106109ae57634e487b7160e01b600052603260045260246000fd5b602002602001015114156109c75760019250505061047b565b806109d18161226b565b915050610984565b506000949350505050565b6109ef61060261156a565b610a0b5760405162461bcd60e51b815260040161051790612194565b61062c61160d565b60009182526065602090815260408084206001600160a01b0393909316845291905290205460ff1690565b600054610100900460ff16610a655760405162461bcd60e51b8152600401610517906120f3565b6001600160a01b038116610abb5760405162461bcd60e51b815260206004820181905260248201527f4f776e65722063616e6e6f7420626520746865207a65726f20616464726573736044820152606401610517565b610ac361164a565b610acb6115da565b610ad3611671565b610ae4610ade61169f565b8261127f565b610aef610ade61156a565b610b07610afa61156a565b610b0261169f565b6116c3565b6105f4610afa61169f565b61016054604051637e4dc6d560e01b8152600481018390526000916001600160a01b031690637e4dc6d59060240160206040518083038186803b158015610b5857600080fd5b505afa158015610b6c573d6000803e3d6000fd5b505050506040513d601f19601f82011682018060405250810190610b909190611ce7565b90506001600160a01b038316610bb85760405162461bcd60e51b8152600401610517906120ca565b6001600160a01b038116610bde5760405162461bcd60e51b81526004016105179061213e565b336001600160a01b03821614610c065760405162461bcd60e51b815260040161051790611fbc565b604051636f49712b60e01b81526001600160a01b03821690636f49712b90610c32908690600401611f31565b60206040518083038186803b158015610c4a57600080fd5b505afa158015610c5e573d6000803e3d6000fd5b505050506040513d601f19601f82011682018060405250810190610c829190611dff565b610c9e5760405162461bcd60e51b81526004016105179061216c565b6000610caa84846108f1565b905080610cde576001600160a01b038416600090815261016160209081526040822080546001810182559083529120018390555b50505050565b6000610cf161060261169f565b905090565b600054610100900460ff1615808015610d165750600054600160ff909116105b80610d305750303b158015610d30575060005460ff166001145b610d4c5760405162461bcd60e51b81526004016105179061207c565b6000805460ff191660011790558015610d6f576000805461ff0019166101001790555b6001600160a01b038216610d955760405162461bcd60e51b8152600401610517906120ca565b61015f80546001600160a01b0319166001600160a01b038416908117909155600090610dc09061170e565b90506001600160a01b038116610e105760405162461bcd60e51b8152602060048201526015602482015274496e76616c6964204f776e6572204164647265737360581b6044820152606401610517565b61015f54610e26906001600160a01b031661178f565b61016080546001600160a01b0319166001600160a01b0392909216919091179055610e5081610a3e565b50801561052a576000805461ff0019169055604051600181527f7f26b83ff96e1f2b6a682f133852f6798a09c465da95921460cefb38474024989060200160405180910390a15050565b6101616020528160005260406000208181548110610eb757600080fd5b90600052602060002001600091509150505481565b600082815260656020526040902060010154610ee781611275565b6104a68383611305565b61016054604051637e4dc6d560e01b8152600481018390526000916001600160a01b031690637e4dc6d59060240160206040518083038186803b158015610f3757600080fd5b505afa158015610f4b573d6000803e3d6000fd5b505050506040513d601f19601f82011682018060405250810190610f6f9190611ce7565b90506001600160a01b038316610f975760405162461bcd60e51b8152600401610517906120ca565b6001600160a01b038116610fbd5760405162461bcd60e51b81526004016105179061213e565b336001600160a01b03821614610fe55760405162461bcd60e51b815260040161051790611fbc565b604051636f49712b60e01b81526001600160a01b03821690636f49712b90611011908690600401611f31565b60206040518083038186803b15801561102957600080fd5b505afa15801561103d573d6000803e3d6000fd5b505050506040513d601f19601f820116820180604052508101906110619190611dff565b61107d5760405162461bcd60e51b81526004016105179061216c565b600061108984846108f1565b9050806110c45760405162461bcd60e51b8152602060048201526009602482015268139bdd08119bdd5b9960ba1b6044820152606401610517565b6001600160a01b0384166000908152610161602090815260408083208054825181850281018501909352808352919290919083018282801561112557602002820191906000526020600020905b815481526020019060010190808311611111575b5050505050905060005b815181101561126d578482828151811061115957634e487b7160e01b600052603260045260246000fd5b6020026020010151141561125b576001600160a01b038616600090815261016160205260409020825161118e90600190612211565b815481106111ac57634e487b7160e01b600052603260045260246000fd5b90600052602060002001546101616000886001600160a01b03166001600160a01b0316815260200190815260200160002082815481106111fc57634e487b7160e01b600052603260045260246000fd5b60009182526020808320909101929092556001600160a01b038816815261016190915260409020825161123190600190612211565b8154811061124f57634e487b7160e01b600052603260045260246000fd5b60009182526020822001555b806112658161226b565b91505061112f565b505050505050565b6105f481336117a7565b6112898282610a13565b61052a5760008281526065602090815260408083206001600160a01b03851684529091529020805460ff191660011790556112c13390565b6001600160a01b0316816001600160a01b0316837f2f8788117e7eff1d82e926ec794901d17c78024a50270940304540a733656f0d60405160405180910390a45050565b61130f8282610a13565b1561052a5760008281526065602090815260408083206001600160a01b0385168085529252808320805460ff1916905551339285917ff6391f5c32d9c69d2a47ea670b442974b53935d1edc7fd64eb21e047a839171b9190a45050565b6000805160206122c8833981519152546001600160a01b031690565b611390610ce4565b6105f45760405162461bcd60e51b815260206004820152602b60248201527f4d75737420686176652061646d696e20726f6c6520746f20706572666f726d2060448201526a3a3434b99030b1ba34b7b760a91b6064820152608401610517565b7f4910fdfa16fed3260ed0e7147f7cc6da11a60208b5b9406d12a635614ffd91435460ff1615611423576104a683611800565b826001600160a01b03166352d1902d6040518163ffffffff1660e01b815260040160206040518083038186803b15801561145c57600080fd5b505afa92505050801561148c575060408051601f3d908101601f1916820190925261148991810190611e37565b60015b6114ef5760405162461bcd60e51b815260206004820152602e60248201527f45524331393637557067726164653a206e657720696d706c656d656e7461746960448201526d6f6e206973206e6f74205555505360901b6064820152608401610517565b6000805160206122c8833981519152811461155e5760405162461bcd60e51b815260206004820152602960248201527f45524331393637557067726164653a20756e737570706f727465642070726f786044820152681a58589b195555525160ba1b6064820152608401610517565b506104a683838361189c565b7f65d7a28e3265b37a6474929f336521b332c1681b933f6cb9f3376673440d862a90565b6115966118c1565b6097805460ff191690557f5db9ee0a495bf2e6ff9c91a7834c1ba4fdd244a5e8aa4e537bd38aeae4b073aa335b6040516115d09190611f31565b60405180910390a1565b600054610100900460ff166116015760405162461bcd60e51b8152600401610517906120f3565b6097805460ff19169055565b61161561190a565b6097805460ff191660011790557f62e78cea01bee320cd4e420270b5ea74000d11b0c9f74754ebdbfc544b05a2586115c33390565b600054610100900460ff1661062c5760405162461bcd60e51b8152600401610517906120f3565b600054610100900460ff166116985760405162461bcd60e51b8152600401610517906120f3565b600160c955565b7fa49807205ce4d355092ef5a8a18f56e8913cf4a201fbe287825b095693c2177590565b600082815260656020526040808220600101805490849055905190918391839186917fbd79b86ffe0ab8e8776151514217cd7cacd52c909f66475c3af44e129f0b00ff9190a4505050565b60006001600160a01b03821663b93f9b0a825b6040518263ffffffff1660e01b815260040161173f91815260200190565b60206040518083038186803b15801561175757600080fd5b505afa15801561176b573d6000803e3d6000fd5b505050506040513d601f19601f8201168201806040525081019061047b9190611ce7565b60006001600160a01b03821663b93f9b0a6006611721565b6117b18282610a13565b61052a576117be81611950565b6117c9836020611962565b6040516020016117da929190611ec2565b60408051601f198184030181529082905262461bcd60e51b825261051791600401611f89565b6001600160a01b0381163b61186d5760405162461bcd60e51b815260206004820152602d60248201527f455243313936373a206e657720696d706c656d656e746174696f6e206973206e60448201526c1bdd08184818dbdb9d1c9858dd609a1b6064820152608401610517565b6000805160206122c883398151915280546001600160a01b0319166001600160a01b0392909216919091179055565b6118a583611b4b565b6000825111806118b25750805b156104a657610cde8383611b8b565b60975460ff1661062c5760405162461bcd60e51b815260206004820152601460248201527314185d5cd8589b194e881b9bdd081c185d5cd95960621b6044820152606401610517565b60975460ff161561062c5760405162461bcd60e51b815260206004820152601060248201526f14185d5cd8589b194e881c185d5cd95960821b6044820152606401610517565b606061047b6001600160a01b03831660145b606060006119718360026121f2565b61197c9060026121da565b67ffffffffffffffff8111156119a257634e487b7160e01b600052604160045260246000fd5b6040519080825280601f01601f1916602001820160405280156119cc576020820181803683370190505b509050600360fc1b816000815181106119f557634e487b7160e01b600052603260045260246000fd5b60200101906001600160f81b031916908160001a905350600f60fb1b81600181518110611a3257634e487b7160e01b600052603260045260246000fd5b60200101906001600160f81b031916908160001a9053506000611a568460026121f2565b611a619060016121da565b90505b6001811115611af5576f181899199a1a9b1b9c1cb0b131b232b360811b85600f1660108110611aa357634e487b7160e01b600052603260045260246000fd5b1a60f81b828281518110611ac757634e487b7160e01b600052603260045260246000fd5b60200101906001600160f81b031916908160001a90535060049490941c93611aee81612254565b9050611a64565b508315611b445760405162461bcd60e51b815260206004820181905260248201527f537472696e67733a20686578206c656e67746820696e73756666696369656e746044820152606401610517565b9392505050565b611b5481611800565b6040516001600160a01b038216907fbc7cd75a20ee27fd9adebab32041f755214dbc6bffa90cc0225b39da2e5c2d3b90600090a250565b6060611b4483836040518060600160405280602781526020016122e8602791396060600080856001600160a01b031685604051611bc89190611ea6565b600060405180830381855af49150503d8060008114611c03576040519150601f19603f3d011682016040523d82523d6000602084013e611c08565b606091505b5091509150611c1986838387611c23565b9695505050505050565b60608315611c8f578251611c88576001600160a01b0385163b611c885760405162461bcd60e51b815260206004820152601d60248201527f416464726573733a2063616c6c20746f206e6f6e2d636f6e74726163740000006044820152606401610517565b5081611c99565b611c998383611ca1565b949350505050565b815115611cb15781518083602001fd5b8060405162461bcd60e51b81526004016105179190611f89565b600060208284031215611cdc578081fd5b8135611b44816122b2565b600060208284031215611cf8578081fd5b8151611b44816122b2565b60008060408385031215611d15578081fd5b8235611d20816122b2565b946020939093013593505050565b60008060408385031215611d40578182fd5b8235611d4b816122b2565b9150602083013567ffffffffffffffff80821115611d67578283fd5b818501915085601f830112611d7a578283fd5b813581811115611d8c57611d8c61229c565b604051601f8201601f19908116603f01168101908382118183101715611db457611db461229c565b81604052828152886020848701011115611dcc578586fd5b82602086016020830137856020848301015280955050505050509250929050565b60008060408385031215611d15578182fd5b600060208284031215611e10578081fd5b81518015158114611b44578182fd5b600060208284031215611e30578081fd5b5035919050565b600060208284031215611e48578081fd5b5051919050565b60008060408385031215611e61578182fd5b823591506020830135611e73816122b2565b809150509250929050565b600060208284031215611e8f578081fd5b81356001600160e01b031981168114611b44578182fd5b60008251611eb8818460208701612228565b9190910192915050565b76020b1b1b2b9b9a1b7b73a3937b61d1030b1b1b7bab73a1604d1b815260008351611ef4816017850160208801612228565b7001034b99036b4b9b9b4b733903937b6329607d1b6017918401918201528351611f25816028840160208801612228565b01602801949350505050565b6001600160a01b0391909116815260200190565b6020808252825182820181905260009190848201906040850190845b81811015611f7d57835183529284019291840191600101611f61565b50909695505050505050565b6020815260008251806020840152611fa8816040850160208701612228565b601f01601f19169190910160400192915050565b6020808252600e908201526d24b73b30b634b21021b0b63632b960911b604082015260600190565b6020808252602c908201527f46756e6374696f6e206d7573742062652063616c6c6564207468726f7567682060408201526b19195b1959d85d1958d85b1b60a21b606082015260800190565b6020808252602c908201527f46756e6374696f6e206d7573742062652063616c6c6564207468726f7567682060408201526b6163746976652070726f787960a01b606082015260800190565b6020808252602e908201527f496e697469616c697a61626c653a20636f6e747261637420697320616c72656160408201526d191e481a5b9a5d1a585b1a5e995960921b606082015260800190565b6020808252600f908201526e496e76616c6964204164647265737360881b604082015260600190565b6020808252602b908201527f496e697469616c697a61626c653a20636f6e7472616374206973206e6f74206960408201526a6e697469616c697a696e6760a81b606082015260800190565b602080825260149082015273496e76616c696420506f6f6c204164647265737360601b604082015260600190565b6020808252600e908201526d24b73b30b634b21029ba30b5b2b960911b604082015260600190565b60208082526026908201527f5061757365725061757361626c653a2043616c6c6572206973206e6f742061206040820152653830bab9b2b960d11b606082015260800190565b600082198211156121ed576121ed612286565b500190565b600081600019048311821515161561220c5761220c612286565b500290565b60008282101561222357612223612286565b500390565b60005b8381101561224357818101518382015260200161222b565b83811115610cde5750506000910152565b60008161226357612263612286565b506000190190565b600060001982141561227f5761227f612286565b5060010190565b634e487b7160e01b600052601160045260246000fd5b634e487b7160e01b600052604160045260246000fd5b6001600160a01b03811681146105f457600080fdfe360894a13ba1a3210667c828492db98dca3e2076cc3735a920a3ca505d382bbc416464726573733a206c6f772d6c6576656c2064656c65676174652063616c6c206661696c6564a26469706673582212208051aa24a3d47bb1cea8026282c752e8213eab28033e5069df39e0d66c81d02764736f6c63430008040033",
  "linkReferences": {},
  "deployedLinkReferences": {}
}