{
  "_format": "hh-sol-artifact-1",
  "contractName": "ReignTreasury",
  "sourceName": "contracts/protocol/ReignTreasury.sol",
  "abi": [
    {
      "anonymous": false,
      "inputs": [
        {
          "indexed": false,
          "internalType": "address",
          "name": "previousAdmin",
          "type": "address"
        },
        {
          "indexed": false,
          "internalType": "address",
          "name": "newAdmin",
          "type": "address"
        }
      ],
      "name": "AdminChanged",
      "type": "event"
    },
    {
      "anonymous": false,
      "inputs": [
        {
          "indexed": true,
          "internalType": "address",
          "name": "beacon",
          "type": "address"
        }
      ],
      "name": "BeaconUpgraded",
      "type": "event"
    },
    {
      "anonymous": false,
      "inputs": [
        {
          "indexed": false,
          "internalType": "uint8",
          "name": "version",
          "type": "uint8"
        }
      ],
      "name": "Initialized",
      "type": "event"
    },
    {
      "anonymous": false,
      "inputs": [
        {
          "indexed": false,
          "internalType": "address",
          "name": "account",
          "type": "address"
        }
      ],
      "name": "Paused",
      "type": "event"
    },
    {
      "anonymous": false,
      "inputs": [
        {
          "indexed": true,
          "internalType": "bytes32",
          "name": "role",
          "type": "bytes32"
        },
        {
          "indexed": true,
          "internalType": "bytes32",
          "name": "previousAdminRole",
          "type": "bytes32"
        },
        {
          "indexed": true,
          "internalType": "bytes32",
          "name": "newAdminRole",
          "type": "bytes32"
        }
      ],
      "name": "RoleAdminChanged",
      "type": "event"
    },
    {
      "anonymous": false,
      "inputs": [
        {
          "indexed": true,
          "internalType": "bytes32",
          "name": "role",
          "type": "bytes32"
        },
        {
          "indexed": true,
          "internalType": "address",
          "name": "account",
          "type": "address"
        },
        {
          "indexed": true,
          "internalType": "address",
          "name": "sender",
          "type": "address"
        }
      ],
      "name": "RoleGranted",
      "type": "event"
    },
    {
      "anonymous": false,
      "inputs": [
        {
          "indexed": true,
          "internalType": "bytes32",
          "name": "role",
          "type": "bytes32"
        },
        {
          "indexed": true,
          "internalType": "address",
          "name": "account",
          "type": "address"
        },
        {
          "indexed": true,
          "internalType": "address",
          "name": "sender",
          "type": "address"
        }
      ],
      "name": "RoleRevoked",
      "type": "event"
    },
    {
      "anonymous": false,
      "inputs": [
        {
          "indexed": false,
          "internalType": "address",
          "name": "account",
          "type": "address"
        }
      ],
      "name": "Unpaused",
      "type": "event"
    },
    {
      "anonymous": false,
      "inputs": [
        {
          "indexed": true,
          "internalType": "address",
          "name": "implementation",
          "type": "address"
        }
      ],
      "name": "Upgraded",
      "type": "event"
    },
    {
      "inputs": [],
      "name": "DEFAULT_ADMIN_ROLE",
      "outputs": [
        {
          "internalType": "bytes32",
          "name": "",
          "type": "bytes32"
        }
      ],
      "stateMutability": "view",
      "type": "function"
    },
    {
      "inputs": [
        {
          "internalType": "address",
          "name": "owner",
          "type": "address"
        }
      ],
      "name": "_BaseUpgradeablePausable_init",
      "outputs": [],
      "stateMutability": "nonpayable",
      "type": "function"
    },
    {
      "inputs": [],
      "name": "__PauserPausable__init",
      "outputs": [],
      "stateMutability": "nonpayable",
      "type": "function"
    },
    {
      "inputs": [
        {
          "internalType": "bytes32",
          "name": "role",
          "type": "bytes32"
        }
      ],
      "name": "getRoleAdmin",
      "outputs": [
        {
          "internalType": "bytes32",
          "name": "",
          "type": "bytes32"
        }
      ],
      "stateMutability": "view",
      "type": "function"
    },
    {
      "inputs": [],
      "name": "getTreasuryBalance",
      "outputs": [
        {
          "internalType": "uint256",
          "name": "",
          "type": "uint256"
        }
      ],
      "stateMutability": "view",
      "type": "function"
    },
    {
      "inputs": [
        {
          "internalType": "bytes32",
          "name": "role",
          "type": "bytes32"
        },
        {
          "internalType": "address",
          "name": "account",
          "type": "address"
        }
      ],
      "name": "grantRole",
      "outputs": [],
      "stateMutability": "nonpayable",
      "type": "function"
    },
    {
      "inputs": [
        {
          "internalType": "bytes32",
          "name": "role",
          "type": "bytes32"
        },
        {
          "internalType": "address",
          "name": "account",
          "type": "address"
        }
      ],
      "name": "hasRole",
      "outputs": [
        {
          "internalType": "bool",
          "name": "",
          "type": "bool"
        }
      ],
      "stateMutability": "view",
      "type": "function"
    },
    {
      "inputs": [
        {
          "internalType": "contract ReignConfig",
          "name": "_reignConfig",
          "type": "address"
        }
      ],
      "name": "initialize",
      "outputs": [],
      "stateMutability": "nonpayable",
      "type": "function"
    },
    {
      "inputs": [],
      "name": "isAdmin",
      "outputs": [
        {
          "internalType": "bool",
          "name": "",
          "type": "bool"
        }
      ],
      "stateMutability": "view",
      "type": "function"
    },
    {
      "inputs": [],
      "name": "pause",
      "outputs": [],
      "stateMutability": "nonpayable",
      "type": "function"
    },
    {
      "inputs": [],
      "name": "paused",
      "outputs": [
        {
          "internalType": "bool",
          "name": "",
          "type": "bool"
        }
      ],
      "stateMutability": "view",
      "type": "function"
    },
    {
      "inputs": [],
      "name": "proxiableUUID",
      "outputs": [
        {
          "internalType": "bytes32",
          "name": "",
          "type": "bytes32"
        }
      ],
      "stateMutability": "view",
      "type": "function"
    },
    {
      "inputs": [],
      "name": "reignConfig",
      "outputs": [
        {
          "internalType": "contract ReignConfig",
          "name": "",
          "type": "address"
        }
      ],
      "stateMutability": "view",
      "type": "function"
    },
    {
      "inputs": [
        {
          "internalType": "bytes32",
          "name": "role",
          "type": "bytes32"
        },
        {
          "internalType": "address",
          "name": "account",
          "type": "address"
        }
      ],
      "name": "renounceRole",
      "outputs": [],
      "stateMutability": "nonpayable",
      "type": "function"
    },
    {
      "inputs": [
        {
          "internalType": "bytes32",
          "name": "role",
          "type": "bytes32"
        },
        {
          "internalType": "address",
          "name": "account",
          "type": "address"
        }
      ],
      "name": "revokeRole",
      "outputs": [],
      "stateMutability": "nonpayable",
      "type": "function"
    },
    {
      "inputs": [
        {
          "internalType": "address",
          "name": "_wallet",
          "type": "address"
        }
      ],
      "name": "setWallet",
      "outputs": [],
      "stateMutability": "nonpayable",
      "type": "function"
    },
    {
      "inputs": [
        {
          "internalType": "bytes4",
          "name": "interfaceId",
          "type": "bytes4"
        }
      ],
      "name": "supportsInterface",
      "outputs": [
        {
          "internalType": "bool",
          "name": "",
          "type": "bool"
        }
      ],
      "stateMutability": "view",
      "type": "function"
    },
    {
      "inputs": [],
      "name": "unpause",
      "outputs": [],
      "stateMutability": "nonpayable",
      "type": "function"
    },
    {
      "inputs": [
        {
          "internalType": "address",
          "name": "newImplementation",
          "type": "address"
        }
      ],
      "name": "upgradeTo",
      "outputs": [],
      "stateMutability": "nonpayable",
      "type": "function"
    },
    {
      "inputs": [
        {
          "internalType": "address",
          "name": "newImplementation",
          "type": "address"
        },
        {
          "internalType": "bytes",
          "name": "data",
          "type": "bytes"
        }
      ],
      "name": "upgradeToAndCall",
      "outputs": [],
      "stateMutability": "payable",
      "type": "function"
    },
    {
      "inputs": [],
      "name": "usdcToken",
      "outputs": [
        {
          "internalType": "contract IERC20",
          "name": "",
          "type": "address"
        }
      ],
      "stateMutability": "view",
      "type": "function"
    },
    {
      "inputs": [
        {
          "internalType": "address",
          "name": "to",
          "type": "address"
        },
        {
          "internalType": "uint256",
          "name": "amount",
          "type": "uint256"
        }
      ],
      "name": "withdraw",
      "outputs": [],
      "stateMutability": "nonpayable",
      "type": "function"
    }
  ],
  "bytecode": "0x60a06040523060601b60805234801561001757600080fd5b5060805160601c611f61610052600039600081816104cb0152818161050b015281816105cb0152818161060b015261074c0152611f616000f3fe6080604052600436106101355760003560e01c80638456cb59116100ab578063b2a010551161006f578063b2a0105514610326578063b6db75a014610347578063c4d66de81461035c578063d547741f1461037c578063deaa59df1461039c578063f3fef3a3146103bc57600080fd5b80638456cb59146102a757806391d14854146102bc5780639b5655dc146102dc578063a12dde4d146102f1578063a217fddf1461031157600080fd5b80633659cfe6116100fd5780633659cfe61461021d5780633f4ba83a1461023d5780634f1ef28614610252578063526d81f61461026557806352d1902d1461027a5780635c975abb1461028f57600080fd5b806301ffc9a71461013a57806311eac8551461016f578063248a9ca31461019d5780632f2ff15d146101db57806336568abe146101fd575b600080fd5b34801561014657600080fd5b5061015a610155366004611b6d565b6103dc565b60405190151581526020015b60405180910390f35b34801561017b57600080fd5b5061016054610190906001600160a01b031681565b6040516101669190611c20565b3480156101a957600080fd5b506101cd6101b8366004611b0e565b60009081526065602052604090206001015490565b604051908152602001610166565b3480156101e757600080fd5b506101fb6101f6366004611b3e565b610413565b005b34801561020957600080fd5b506101fb610218366004611b3e565b61043d565b34801561022957600080fd5b506101fb6102383660046119cc565b6104c0565b34801561024957600080fd5b506101fb610589565b6101fb610260366004611a04565b6105c0565b34801561027157600080fd5b506101fb610676565b34801561028657600080fd5b506101cd61073f565b34801561029b57600080fd5b5060975460ff1661015a565b3480156102b357600080fd5b506101fb6107ed565b3480156102c857600080fd5b5061015a6102d7366004611b3e565b61081c565b3480156102e857600080fd5b506101cd610847565b3480156102fd57600080fd5b506101fb61030c3660046119cc565b6108cd565b34801561031d57600080fd5b506101cd600081565b34801561033257600080fd5b5061015f54610190906001600160a01b031681565b34801561035357600080fd5b5061015a6109a1565b34801561036857600080fd5b506101fb6103773660046119cc565b6109b3565b34801561038857600080fd5b506101fb610397366004611b3e565b610b79565b3480156103a857600080fd5b506101fb6103b73660046119cc565b610b9e565b3480156103c857600080fd5b506101fb6103d7366004611ac3565b610be5565b60006001600160e01b03198216637965db0b60e01b148061040d57506301ffc9a760e01b6001600160e01b03198316145b92915050565b60008281526065602052604090206001015461042e81610d41565b6104388383610d4b565b505050565b6001600160a01b03811633146104b25760405162461bcd60e51b815260206004820152602f60248201527f416363657373436f6e74726f6c3a2063616e206f6e6c792072656e6f756e636560448201526e103937b632b9903337b91039b2b63360891b60648201526084015b60405180910390fd5b6104bc8282610dd1565b5050565b306001600160a01b037f00000000000000000000000000000000000000000000000000000000000000001614156105095760405162461bcd60e51b81526004016104a990611c67565b7f00000000000000000000000000000000000000000000000000000000000000006001600160a01b031661053b610e38565b6001600160a01b0316146105615760405162461bcd60e51b81526004016104a990611cb3565b61056a81610e54565b6040805160008082526020820190925261058691839190610e78565b50565b61059a610594610ff2565b3361081c565b6105b65760405162461bcd60e51b81526004016104a990611d98565b6105be611016565b565b306001600160a01b037f00000000000000000000000000000000000000000000000000000000000000001614156106095760405162461bcd60e51b81526004016104a990611c67565b7f00000000000000000000000000000000000000000000000000000000000000006001600160a01b031661063b610e38565b6001600160a01b0316146106615760405162461bcd60e51b81526004016104a990611cb3565b61066a82610e54565b6104bc82826001610e78565b600054610100900460ff16158080156106965750600054600160ff909116105b806106b05750303b1580156106b0575060005460ff166001145b6106cc5760405162461bcd60e51b81526004016104a990611cff565b6000805460ff1916600117905580156106ef576000805461ff0019166101001790555b6106f7611062565b8015610586576000805461ff0019169055604051600181527f7f26b83ff96e1f2b6a682f133852f6798a09c465da95921460cefb38474024989060200160405180910390a150565b6000306001600160a01b037f000000000000000000000000000000000000000000000000000000000000000016146107da5760405162461bcd60e51b815260206004820152603860248201527f555550535570677261646561626c653a206d757374206e6f742062652063616c6044820152771b1959081d1a1c9bdd59da0819195b1959d85d1958d85b1b60421b60648201526084016104a9565b50600080516020611ee583398151915290565b6107f8610594610ff2565b6108145760405162461bcd60e51b81526004016104a990611d98565b6105be611095565b60009182526065602090815260408084206001600160a01b0393909316845291905290205460ff1690565b610160546040516370a0823160e01b815260009182916001600160a01b03909116906370a082319061087d903090600401611c20565b60206040518083038186803b15801561089557600080fd5b505afa1580156108a9573d6000803e3d6000fd5b505050506040513d601f19601f8201168201806040525081019061040d9190611b26565b600054610100900460ff166108f45760405162461bcd60e51b81526004016104a990611d4d565b6001600160a01b03811661094a5760405162461bcd60e51b815260206004820181905260248201527f4f776e65722063616e6e6f7420626520746865207a65726f206164647265737360448201526064016104a9565b6109526110d2565b61095a611062565b6109626110f9565b61097361096d611127565b82610d4b565b61097e61096d610ff2565b610996610989610ff2565b610991611127565b61114b565b610586610989611127565b60006109ae610594611127565b905090565b600054610100900460ff16158080156109d35750600054600160ff909116105b806109ed5750303b1580156109ed575060005460ff166001145b610a095760405162461bcd60e51b81526004016104a990611cff565b6000805460ff191660011790558015610a2c576000805461ff0019166101001790555b6001600160a01b038216610a745760405162461bcd60e51b815260206004820152600f60248201526e496e76616c6964204164647265737360881b60448201526064016104a9565b61015f80546001600160a01b0319166001600160a01b038416908117909155600090610a9f90611196565b90506001600160a01b038116610aef5760405162461bcd60e51b8152602060048201526015602482015274496e76616c6964204f776e6572204164647265737360581b60448201526064016104a9565b610af8816108cd565b61015f54610b0e906001600160a01b0316611217565b61016080546001600160a01b0319166001600160a01b03929092169190911790555080156104bc576000805461ff0019169055604051600181527f7f26b83ff96e1f2b6a682f133852f6798a09c465da95921460cefb38474024989060200160405180910390a15050565b600082815260656020526040902060010154610b9481610d41565b6104388383610dd1565b610ba66109a1565b610bc25760405162461bcd60e51b81526004016104a990611dde565b61016180546001600160a01b0319166001600160a01b0392909216919091179055565b610bed61122f565b610bf5611289565b610bfd6109a1565b610c195760405162461bcd60e51b81526004016104a990611dde565b60008111610c745760405162461bcd60e51b815260206004820152602260248201527f416d6f756e742053686f756c642062652067726561746572207468616e207a65604482015261726f60f01b60648201526084016104a9565b610161546001600160a01b03163314610cca5760405162461bcd60e51b81526020600482015260186024820152774f6e6c792077616c6c65742063616e20776974686472617760401b60448201526064016104a9565b6000610cd4610847565b905081811015610d1d5760405162461bcd60e51b8152602060048201526014602482015273496e73756666696369656e742042616c616e636560601b60448201526064016104a9565b61016054610d36906001600160a01b03163085856112cf565b506104bc600160c955565b610586813361132f565b610d55828261081c565b6104bc5760008281526065602090815260408083206001600160a01b03851684529091529020805460ff19166001179055610d8d3390565b6001600160a01b0316816001600160a01b0316837f2f8788117e7eff1d82e926ec794901d17c78024a50270940304540a733656f0d60405160405180910390a45050565b610ddb828261081c565b156104bc5760008281526065602090815260408083206001600160a01b0385168085529252808320805460ff1916905551339285917ff6391f5c32d9c69d2a47ea670b442974b53935d1edc7fd64eb21e047a839171b9190a45050565b600080516020611ee5833981519152546001600160a01b031690565b610e5c6109a1565b6105865760405162461bcd60e51b81526004016104a990611dde565b7f4910fdfa16fed3260ed0e7147f7cc6da11a60208b5b9406d12a635614ffd91435460ff1615610eab5761043883611388565b826001600160a01b03166352d1902d6040518163ffffffff1660e01b815260040160206040518083038186803b158015610ee457600080fd5b505afa925050508015610f14575060408051601f3d908101601f19168201909252610f1191810190611b26565b60015b610f775760405162461bcd60e51b815260206004820152602e60248201527f45524331393637557067726164653a206e657720696d706c656d656e7461746960448201526d6f6e206973206e6f74205555505360901b60648201526084016104a9565b600080516020611ee58339815191528114610fe65760405162461bcd60e51b815260206004820152602960248201527f45524331393637557067726164653a20756e737570706f727465642070726f786044820152681a58589b195555525160ba1b60648201526084016104a9565b50610438838383611424565b7f65d7a28e3265b37a6474929f336521b332c1681b933f6cb9f3376673440d862a90565b61101e611449565b6097805460ff191690557f5db9ee0a495bf2e6ff9c91a7834c1ba4fdd244a5e8aa4e537bd38aeae4b073aa335b6040516110589190611c20565b60405180910390a1565b600054610100900460ff166110895760405162461bcd60e51b81526004016104a990611d4d565b6097805460ff19169055565b61109d611289565b6097805460ff191660011790557f62e78cea01bee320cd4e420270b5ea74000d11b0c9f74754ebdbfc544b05a25861104b3390565b600054610100900460ff166105be5760405162461bcd60e51b81526004016104a990611d4d565b600054610100900460ff166111205760405162461bcd60e51b81526004016104a990611d4d565b600160c955565b7fa49807205ce4d355092ef5a8a18f56e8913cf4a201fbe287825b095693c2177590565b600082815260656020526040808220600101805490849055905190918391839186917fbd79b86ffe0ab8e8776151514217cd7cacd52c909f66475c3af44e129f0b00ff9190a4505050565b60006001600160a01b03821663b93f9b0a825b6040518263ffffffff1660e01b81526004016111c791815260200190565b60206040518083038186803b1580156111df57600080fd5b505afa1580156111f3573d6000803e3d6000fd5b505050506040513d601f19601f8201168201806040525081019061040d91906119e8565b60006001600160a01b03821663b93f9b0a60026111a9565b600260c95414156112825760405162461bcd60e51b815260206004820152601f60248201527f5265656e7472616e637947756172643a207265656e7472616e742063616c6c0060448201526064016104a9565b600260c955565b60975460ff16156105be5760405162461bcd60e51b815260206004820152601060248201526f14185d5cd8589b194e881c185d5cd95960821b60448201526064016104a9565b604080516001600160a01b0385811660248301528416604482015260648082018490528251808303909101815260849091019091526020810180516001600160e01b03166323b872dd60e01b179052611329908590611492565b50505050565b611339828261081c565b6104bc5761134681611567565b611351836020611579565b604051602001611362929190611bb1565b60408051601f198184030181529082905262461bcd60e51b82526104a991600401611c34565b6001600160a01b0381163b6113f55760405162461bcd60e51b815260206004820152602d60248201527f455243313936373a206e657720696d706c656d656e746174696f6e206973206e60448201526c1bdd08184818dbdb9d1c9858dd609a1b60648201526084016104a9565b600080516020611ee583398151915280546001600160a01b0319166001600160a01b0392909216919091179055565b61142d83611762565b60008251118061143a5750805b156104385761132983836117a2565b60975460ff166105be5760405162461bcd60e51b815260206004820152601460248201527314185d5cd8589b194e881b9bdd081c185d5cd95960621b60448201526064016104a9565b60006114e7826040518060400160405280602081526020017f5361666545524332303a206c6f772d6c6576656c2063616c6c206661696c6564815250856001600160a01b03166117c79092919063ffffffff16565b90508051600014806115085750808060200190518101906115089190611aee565b6104385760405162461bcd60e51b815260206004820152602a60248201527f5361666545524332303a204552433230206f7065726174696f6e20646964206e6044820152691bdd081cdd58d8d9595960b21b60648201526084016104a9565b606061040d6001600160a01b03831660145b60606000611588836002611e41565b611593906002611e29565b67ffffffffffffffff8111156115b957634e487b7160e01b600052604160045260246000fd5b6040519080825280601f01601f1916602001820160405280156115e3576020820181803683370190505b509050600360fc1b8160008151811061160c57634e487b7160e01b600052603260045260246000fd5b60200101906001600160f81b031916908160001a905350600f60fb1b8160018151811061164957634e487b7160e01b600052603260045260246000fd5b60200101906001600160f81b031916908160001a905350600061166d846002611e41565b611678906001611e29565b90505b600181111561170c576f181899199a1a9b1b9c1cb0b131b232b360811b85600f16601081106116ba57634e487b7160e01b600052603260045260246000fd5b1a60f81b8282815181106116de57634e487b7160e01b600052603260045260246000fd5b60200101906001600160f81b031916908160001a90535060049490941c9361170581611e8c565b905061167b565b50831561175b5760405162461bcd60e51b815260206004820181905260248201527f537472696e67733a20686578206c656e67746820696e73756666696369656e7460448201526064016104a9565b9392505050565b61176b81611388565b6040516001600160a01b038216907fbc7cd75a20ee27fd9adebab32041f755214dbc6bffa90cc0225b39da2e5c2d3b90600090a250565b606061175b8383604051806060016040528060278152602001611f05602791396117de565b60606117d68484600085611856565b949350505050565b6060600080856001600160a01b0316856040516117fb9190611b95565b600060405180830381855af49150503d8060008114611836576040519150601f19603f3d011682016040523d82523d6000602084013e61183b565b606091505b509150915061184c86838387611931565b9695505050505050565b6060824710156118b75760405162461bcd60e51b815260206004820152602660248201527f416464726573733a20696e73756666696369656e742062616c616e636520666f6044820152651c8818d85b1b60d21b60648201526084016104a9565b600080866001600160a01b031685876040516118d39190611b95565b60006040518083038185875af1925050503d8060008114611910576040519150601f19603f3d011682016040523d82523d6000602084013e611915565b606091505b509150915061192687838387611931565b979650505050505050565b6060831561199d578251611996576001600160a01b0385163b6119965760405162461bcd60e51b815260206004820152601d60248201527f416464726573733a2063616c6c20746f206e6f6e2d636f6e747261637400000060448201526064016104a9565b50816117d6565b6117d683838151156119b25781518083602001fd5b8060405162461bcd60e51b81526004016104a99190611c34565b6000602082840312156119dd578081fd5b813561175b81611ecf565b6000602082840312156119f9578081fd5b815161175b81611ecf565b60008060408385031215611a16578081fd5b8235611a2181611ecf565b9150602083013567ffffffffffffffff80821115611a3d578283fd5b818501915085601f830112611a50578283fd5b813581811115611a6257611a62611eb9565b604051601f8201601f19908116603f01168101908382118183101715611a8a57611a8a611eb9565b81604052828152886020848701011115611aa2578586fd5b82602086016020830137856020848301015280955050505050509250929050565b60008060408385031215611ad5578182fd5b8235611ae081611ecf565b946020939093013593505050565b600060208284031215611aff578081fd5b8151801515811461175b578182fd5b600060208284031215611b1f578081fd5b5035919050565b600060208284031215611b37578081fd5b5051919050565b60008060408385031215611b50578182fd5b823591506020830135611b6281611ecf565b809150509250929050565b600060208284031215611b7e578081fd5b81356001600160e01b03198116811461175b578182fd5b60008251611ba7818460208701611e60565b9190910192915050565b76020b1b1b2b9b9a1b7b73a3937b61d1030b1b1b7bab73a1604d1b815260008351611be3816017850160208801611e60565b7001034b99036b4b9b9b4b733903937b6329607d1b6017918401918201528351611c14816028840160208801611e60565b01602801949350505050565b6001600160a01b0391909116815260200190565b6020815260008251806020840152611c53816040850160208701611e60565b601f01601f19169190910160400192915050565b6020808252602c908201527f46756e6374696f6e206d7573742062652063616c6c6564207468726f7567682060408201526b19195b1959d85d1958d85b1b60a21b606082015260800190565b6020808252602c908201527f46756e6374696f6e206d7573742062652063616c6c6564207468726f7567682060408201526b6163746976652070726f787960a01b606082015260800190565b6020808252602e908201527f496e697469616c697a61626c653a20636f6e747261637420697320616c72656160408201526d191e481a5b9a5d1a585b1a5e995960921b606082015260800190565b6020808252602b908201527f496e697469616c697a61626c653a20636f6e7472616374206973206e6f74206960408201526a6e697469616c697a696e6760a81b606082015260800190565b60208082526026908201527f5061757365725061757361626c653a2043616c6c6572206973206e6f742061206040820152653830bab9b2b960d11b606082015260800190565b6020808252602b908201527f4d75737420686176652061646d696e20726f6c6520746f20706572666f726d2060408201526a3a3434b99030b1ba34b7b760a91b606082015260800190565b60008219821115611e3c57611e3c611ea3565b500190565b6000816000190483118215151615611e5b57611e5b611ea3565b500290565b60005b83811015611e7b578181015183820152602001611e63565b838111156113295750506000910152565b600081611e9b57611e9b611ea3565b506000190190565b634e487b7160e01b600052601160045260246000fd5b634e487b7160e01b600052604160045260246000fd5b6001600160a01b038116811461058657600080fdfe360894a13ba1a3210667c828492db98dca3e2076cc3735a920a3ca505d382bbc416464726573733a206c6f772d6c6576656c2064656c65676174652063616c6c206661696c6564a2646970667358221220baa1b6c506e9978cc47984e634daaaef12206f6c6ca08636c032f65a361835a864736f6c63430008040033",
  "linkReferences": {},
  "deployedLinkReferences": {}
}