{
  "_format": "hh-sol-artifact-1",
  "contractName": "Borrower",
  "sourceName": "contracts/protocol/Borrower.sol",
  "abi": [
    {
      "anonymous": false,
      "inputs": [
        {
          "indexed": false,
          "internalType": "address",
          "name": "previousAdmin",
          "type": "address"
        },
        {
          "indexed": false,
          "internalType": "address",
          "name": "newAdmin",
          "type": "address"
        }
      ],
      "name": "AdminChanged",
      "type": "event"
    },
    {
      "anonymous": false,
      "inputs": [
        {
          "indexed": true,
          "internalType": "address",
          "name": "beacon",
          "type": "address"
        }
      ],
      "name": "BeaconUpgraded",
      "type": "event"
    },
    {
      "anonymous": false,
      "inputs": [
        {
          "indexed": false,
          "internalType": "uint8",
          "name": "version",
          "type": "uint8"
        }
      ],
      "name": "Initialized",
      "type": "event"
    },
    {
      "anonymous": false,
      "inputs": [
        {
          "indexed": false,
          "internalType": "address",
          "name": "account",
          "type": "address"
        }
      ],
      "name": "Paused",
      "type": "event"
    },
    {
      "anonymous": false,
      "inputs": [
        {
          "indexed": true,
          "internalType": "bytes32",
          "name": "role",
          "type": "bytes32"
        },
        {
          "indexed": true,
          "internalType": "bytes32",
          "name": "previousAdminRole",
          "type": "bytes32"
        },
        {
          "indexed": true,
          "internalType": "bytes32",
          "name": "newAdminRole",
          "type": "bytes32"
        }
      ],
      "name": "RoleAdminChanged",
      "type": "event"
    },
    {
      "anonymous": false,
      "inputs": [
        {
          "indexed": true,
          "internalType": "bytes32",
          "name": "role",
          "type": "bytes32"
        },
        {
          "indexed": true,
          "internalType": "address",
          "name": "account",
          "type": "address"
        },
        {
          "indexed": true,
          "internalType": "address",
          "name": "sender",
          "type": "address"
        }
      ],
      "name": "RoleGranted",
      "type": "event"
    },
    {
      "anonymous": false,
      "inputs": [
        {
          "indexed": true,
          "internalType": "bytes32",
          "name": "role",
          "type": "bytes32"
        },
        {
          "indexed": true,
          "internalType": "address",
          "name": "account",
          "type": "address"
        },
        {
          "indexed": true,
          "internalType": "address",
          "name": "sender",
          "type": "address"
        }
      ],
      "name": "RoleRevoked",
      "type": "event"
    },
    {
      "anonymous": false,
      "inputs": [
        {
          "indexed": false,
          "internalType": "address",
          "name": "account",
          "type": "address"
        }
      ],
      "name": "Unpaused",
      "type": "event"
    },
    {
      "anonymous": false,
      "inputs": [
        {
          "indexed": true,
          "internalType": "address",
          "name": "implementation",
          "type": "address"
        }
      ],
      "name": "Upgraded",
      "type": "event"
    },
    {
      "inputs": [],
      "name": "DEFAULT_ADMIN_ROLE",
      "outputs": [
        {
          "internalType": "bytes32",
          "name": "",
          "type": "bytes32"
        }
      ],
      "stateMutability": "view",
      "type": "function"
    },
    {
      "inputs": [
        {
          "internalType": "address",
          "name": "owner",
          "type": "address"
        }
      ],
      "name": "_BaseUpgradeablePausable_init",
      "outputs": [],
      "stateMutability": "nonpayable",
      "type": "function"
    },
    {
      "inputs": [],
      "name": "__PauserPausable__init",
      "outputs": [],
      "stateMutability": "nonpayable",
      "type": "function"
    },
    {
      "inputs": [
        {
          "internalType": "address",
          "name": "",
          "type": "address"
        }
      ],
      "name": "borrowerProfile",
      "outputs": [
        {
          "internalType": "string",
          "name": "",
          "type": "string"
        }
      ],
      "stateMutability": "view",
      "type": "function"
    },
    {
      "inputs": [
        {
          "internalType": "bytes32",
          "name": "role",
          "type": "bytes32"
        }
      ],
      "name": "getRoleAdmin",
      "outputs": [
        {
          "internalType": "bytes32",
          "name": "",
          "type": "bytes32"
        }
      ],
      "stateMutability": "view",
      "type": "function"
    },
    {
      "inputs": [
        {
          "internalType": "bytes32",
          "name": "role",
          "type": "bytes32"
        },
        {
          "internalType": "address",
          "name": "account",
          "type": "address"
        }
      ],
      "name": "grantRole",
      "outputs": [],
      "stateMutability": "nonpayable",
      "type": "function"
    },
    {
      "inputs": [
        {
          "internalType": "bytes32",
          "name": "role",
          "type": "bytes32"
        },
        {
          "internalType": "address",
          "name": "account",
          "type": "address"
        }
      ],
      "name": "hasRole",
      "outputs": [
        {
          "internalType": "bool",
          "name": "",
          "type": "bool"
        }
      ],
      "stateMutability": "view",
      "type": "function"
    },
    {
      "inputs": [
        {
          "internalType": "contract ReignConfig",
          "name": "_reignConfig",
          "type": "address"
        }
      ],
      "name": "initialize",
      "outputs": [],
      "stateMutability": "nonpayable",
      "type": "function"
    },
    {
      "inputs": [],
      "name": "isAdmin",
      "outputs": [
        {
          "internalType": "bool",
          "name": "",
          "type": "bool"
        }
      ],
      "stateMutability": "view",
      "type": "function"
    },
    {
      "inputs": [],
      "name": "pause",
      "outputs": [],
      "stateMutability": "nonpayable",
      "type": "function"
    },
    {
      "inputs": [],
      "name": "paused",
      "outputs": [
        {
          "internalType": "bool",
          "name": "",
          "type": "bool"
        }
      ],
      "stateMutability": "view",
      "type": "function"
    },
    {
      "inputs": [],
      "name": "proxiableUUID",
      "outputs": [
        {
          "internalType": "bytes32",
          "name": "",
          "type": "bytes32"
        }
      ],
      "stateMutability": "view",
      "type": "function"
    },
    {
      "inputs": [
        {
          "internalType": "bytes32",
          "name": "role",
          "type": "bytes32"
        },
        {
          "internalType": "address",
          "name": "account",
          "type": "address"
        }
      ],
      "name": "renounceRole",
      "outputs": [],
      "stateMutability": "nonpayable",
      "type": "function"
    },
    {
      "inputs": [
        {
          "internalType": "bytes32",
          "name": "role",
          "type": "bytes32"
        },
        {
          "internalType": "address",
          "name": "account",
          "type": "address"
        }
      ],
      "name": "revokeRole",
      "outputs": [],
      "stateMutability": "nonpayable",
      "type": "function"
    },
    {
      "inputs": [
        {
          "internalType": "bytes4",
          "name": "interfaceId",
          "type": "bytes4"
        }
      ],
      "name": "supportsInterface",
      "outputs": [
        {
          "internalType": "bool",
          "name": "",
          "type": "bool"
        }
      ],
      "stateMutability": "view",
      "type": "function"
    },
    {
      "inputs": [],
      "name": "unpause",
      "outputs": [],
      "stateMutability": "nonpayable",
      "type": "function"
    },
    {
      "inputs": [
        {
          "internalType": "string",
          "name": "_cid",
          "type": "string"
        }
      ],
      "name": "updateBorrowerProfile",
      "outputs": [],
      "stateMutability": "nonpayable",
      "type": "function"
    },
    {
      "inputs": [
        {
          "internalType": "address",
          "name": "newImplementation",
          "type": "address"
        }
      ],
      "name": "upgradeTo",
      "outputs": [],
      "stateMutability": "nonpayable",
      "type": "function"
    },
    {
      "inputs": [
        {
          "internalType": "address",
          "name": "newImplementation",
          "type": "address"
        },
        {
          "internalType": "bytes",
          "name": "data",
          "type": "bytes"
        }
      ],
      "name": "upgradeToAndCall",
      "outputs": [],
      "stateMutability": "payable",
      "type": "function"
    }
  ],
  "bytecode": "0x60a06040523060601b60805234801561001757600080fd5b5060805160601c611bc8610052600039600081816104de0152818161051e015281816105de0152818161061e015261075f0152611bc86000f3fe6080604052600436106101045760003560e01c806352d1902d116100a0578063a12dde4d11610064578063a12dde4d146102ca578063a217fddf146102ea578063b6db75a0146102ff578063c4d66de814610314578063d547741f1461033457600080fd5b806352d1902d146102485780635c975abb1461025d57806373075fcc146102755780638456cb591461029557806391d14854146102aa57600080fd5b806301ffc9a71461010957806304a550d11461013e578063248a9ca31461016b5780632f2ff15d146101a957806336568abe146101cb5780633659cfe6146101eb5780633f4ba83a1461020b5780634f1ef28614610220578063526d81f614610233575b600080fd5b34801561011557600080fd5b5061012961012436600461178b565b610354565b60405190151581526020015b60405180910390f35b34801561014a57600080fd5b5061015e610159366004611635565b61038b565b60405161013591906118ab565b34801561017757600080fd5b5061019b61018636600461172c565b60009081526065602052604090206001015490565b604051908152602001610135565b3480156101b557600080fd5b506101c96101c436600461175c565b610426565b005b3480156101d757600080fd5b506101c96101e636600461175c565b610450565b3480156101f757600080fd5b506101c9610206366004611635565b6104d3565b34801561021757600080fd5b506101c961059c565b6101c961022e36600461166d565b6105d3565b34801561023f57600080fd5b506101c9610689565b34801561025457600080fd5b5061019b610752565b34801561026957600080fd5b5060975460ff16610129565b34801561028157600080fd5b506101c96102903660046117b3565b610800565b3480156102a157600080fd5b506101c9610856565b3480156102b657600080fd5b506101296102c536600461175c565b610885565b3480156102d657600080fd5b506101c96102e5366004611635565b6108b0565b3480156102f657600080fd5b5061019b600081565b34801561030b57600080fd5b50610129610984565b34801561032057600080fd5b506101c961032f366004611635565b610996565b34801561034057600080fd5b506101c961034f36600461175c565b610b33565b60006001600160e01b03198216637965db0b60e01b148061038557506301ffc9a760e01b6001600160e01b03198316145b92915050565b61016060205260009081526040902080546103a590611acf565b80601f01602080910402602001604051908101604052809291908181526020018280546103d190611acf565b801561041e5780601f106103f35761010080835404028352916020019161041e565b820191906000526020600020905b81548152906001019060200180831161040157829003601f168201915b505050505081565b60008281526065602052604090206001015461044181610b58565b61044b8383610b62565b505050565b6001600160a01b03811633146104c55760405162461bcd60e51b815260206004820152602f60248201527f416363657373436f6e74726f6c3a2063616e206f6e6c792072656e6f756e636560448201526e103937b632b9903337b91039b2b63360891b60648201526084015b60405180910390fd5b6104cf8282610be8565b5050565b306001600160a01b037f000000000000000000000000000000000000000000000000000000000000000016141561051c5760405162461bcd60e51b81526004016104bc906118de565b7f00000000000000000000000000000000000000000000000000000000000000006001600160a01b031661054e610c4f565b6001600160a01b0316146105745760405162461bcd60e51b81526004016104bc9061192a565b61057d81610c6b565b6040805160008082526020820190925261059991839190610cd3565b50565b6105ad6105a7610e4d565b33610885565b6105c95760405162461bcd60e51b81526004016104bc90611a0f565b6105d1610e71565b565b306001600160a01b037f000000000000000000000000000000000000000000000000000000000000000016141561061c5760405162461bcd60e51b81526004016104bc906118de565b7f00000000000000000000000000000000000000000000000000000000000000006001600160a01b031661064e610c4f565b6001600160a01b0316146106745760405162461bcd60e51b81526004016104bc9061192a565b61067d82610c6b565b6104cf82826001610cd3565b600054610100900460ff16158080156106a95750600054600160ff909116105b806106c35750303b1580156106c3575060005460ff166001145b6106df5760405162461bcd60e51b81526004016104bc90611976565b6000805460ff191660011790558015610702576000805461ff0019166101001790555b61070a610ec3565b8015610599576000805461ff0019169055604051600181527f7f26b83ff96e1f2b6a682f133852f6798a09c465da95921460cefb38474024989060200160405180910390a150565b6000306001600160a01b037f000000000000000000000000000000000000000000000000000000000000000016146107ed5760405162461bcd60e51b815260206004820152603860248201527f555550535570677261646561626c653a206d757374206e6f742062652063616c6044820152771b1959081d1a1c9bdd59da0819195b1959d85d1958d85b1b60421b60648201526084016104bc565b50600080516020611b4c83398151915290565b8061083b5760405162461bcd60e51b815260206004820152600b60248201526a125b9d985b1a590810d25160aa1b60448201526064016104bc565b3360009081526101606020526040902061044b90838361159c565b6108616105a7610e4d565b61087d5760405162461bcd60e51b81526004016104bc90611a0f565b6105d1610ef6565b60009182526065602090815260408084206001600160a01b0393909316845291905290205460ff1690565b600054610100900460ff166108d75760405162461bcd60e51b81526004016104bc906119c4565b6001600160a01b03811661092d5760405162461bcd60e51b815260206004820181905260248201527f4f776e65722063616e6e6f7420626520746865207a65726f206164647265737360448201526064016104bc565b610935610f33565b61093d610ec3565b610945610f5a565b610956610950610f88565b82610b62565b610961610950610e4d565b61097961096c610e4d565b610974610f88565b610fac565b61059961096c610f88565b60006109916105a7610f88565b905090565b600054610100900460ff16158080156109b65750600054600160ff909116105b806109d05750303b1580156109d0575060005460ff166001145b6109ec5760405162461bcd60e51b81526004016104bc90611976565b6000805460ff191660011790558015610a0f576000805461ff0019166101001790555b6001600160a01b038216610a655760405162461bcd60e51b815260206004820152601b60248201527f496e76616c696420526569676e436f6e6669672041646472657373000000000060448201526064016104bc565b61015f80546001600160a01b0319166001600160a01b038416908117909155600090610a9090610ff7565b90506001600160a01b038116610ae05760405162461bcd60e51b8152602060048201526015602482015274496e76616c6964204f776e6572204164647265737360581b60448201526064016104bc565b610ae9816108b0565b5080156104cf576000805461ff0019169055604051600181527f7f26b83ff96e1f2b6a682f133852f6798a09c465da95921460cefb38474024989060200160405180910390a15050565b600082815260656020526040902060010154610b4e81610b58565b61044b8383610be8565b6105998133611072565b610b6c8282610885565b6104cf5760008281526065602090815260408083206001600160a01b03851684529091529020805460ff19166001179055610ba43390565b6001600160a01b0316816001600160a01b0316837f2f8788117e7eff1d82e926ec794901d17c78024a50270940304540a733656f0d60405160405180910390a45050565b610bf28282610885565b156104cf5760008281526065602090815260408083206001600160a01b0385168085529252808320805460ff1916905551339285917ff6391f5c32d9c69d2a47ea670b442974b53935d1edc7fd64eb21e047a839171b9190a45050565b600080516020611b4c833981519152546001600160a01b031690565b610c73610984565b6105995760405162461bcd60e51b815260206004820152602b60248201527f4d75737420686176652061646d696e20726f6c6520746f20706572666f726d2060448201526a3a3434b99030b1ba34b7b760a91b60648201526084016104bc565b7f4910fdfa16fed3260ed0e7147f7cc6da11a60208b5b9406d12a635614ffd91435460ff1615610d065761044b836110cb565b826001600160a01b03166352d1902d6040518163ffffffff1660e01b815260040160206040518083038186803b158015610d3f57600080fd5b505afa925050508015610d6f575060408051601f3d908101601f19168201909252610d6c91810190611744565b60015b610dd25760405162461bcd60e51b815260206004820152602e60248201527f45524331393637557067726164653a206e657720696d706c656d656e7461746960448201526d6f6e206973206e6f74205555505360901b60648201526084016104bc565b600080516020611b4c8339815191528114610e415760405162461bcd60e51b815260206004820152602960248201527f45524331393637557067726164653a20756e737570706f727465642070726f786044820152681a58589b195555525160ba1b60648201526084016104bc565b5061044b838383611167565b7f65d7a28e3265b37a6474929f336521b332c1681b933f6cb9f3376673440d862a90565b610e79611192565b6097805460ff191690557f5db9ee0a495bf2e6ff9c91a7834c1ba4fdd244a5e8aa4e537bd38aeae4b073aa335b6040516001600160a01b03909116815260200160405180910390a1565b600054610100900460ff16610eea5760405162461bcd60e51b81526004016104bc906119c4565b6097805460ff19169055565b610efe6111db565b6097805460ff191660011790557f62e78cea01bee320cd4e420270b5ea74000d11b0c9f74754ebdbfc544b05a258610ea63390565b600054610100900460ff166105d15760405162461bcd60e51b81526004016104bc906119c4565b600054610100900460ff16610f815760405162461bcd60e51b81526004016104bc906119c4565b600160c955565b7fa49807205ce4d355092ef5a8a18f56e8913cf4a201fbe287825b095693c2177590565b600082815260656020526040808220600101805490849055905190918391839186917fbd79b86ffe0ab8e8776151514217cd7cacd52c909f66475c3af44e129f0b00ff9190a4505050565b604051635c9fcd8560e11b8152600060048201819052906001600160a01b0383169063b93f9b0a9060240160206040518083038186803b15801561103a57600080fd5b505afa15801561104e573d6000803e3d6000fd5b505050506040513d601f19601f820116820180604052508101906103859190611651565b61107c8282610885565b6104cf5761108981611221565b611094836020611233565b6040516020016110a592919061183c565b60408051601f198184030181529082905262461bcd60e51b82526104bc916004016118ab565b6001600160a01b0381163b6111385760405162461bcd60e51b815260206004820152602d60248201527f455243313936373a206e657720696d706c656d656e746174696f6e206973206e60448201526c1bdd08184818dbdb9d1c9858dd609a1b60648201526084016104bc565b600080516020611b4c83398151915280546001600160a01b0319166001600160a01b0392909216919091179055565b6111708361141c565b60008251118061117d5750805b1561044b5761118c838361145c565b50505050565b60975460ff166105d15760405162461bcd60e51b815260206004820152601460248201527314185d5cd8589b194e881b9bdd081c185d5cd95960621b60448201526064016104bc565b60975460ff16156105d15760405162461bcd60e51b815260206004820152601060248201526f14185d5cd8589b194e881c185d5cd95960821b60448201526064016104bc565b60606103856001600160a01b03831660145b60606000611242836002611a6d565b61124d906002611a55565b67ffffffffffffffff81111561127357634e487b7160e01b600052604160045260246000fd5b6040519080825280601f01601f19166020018201604052801561129d576020820181803683370190505b509050600360fc1b816000815181106112c657634e487b7160e01b600052603260045260246000fd5b60200101906001600160f81b031916908160001a905350600f60fb1b8160018151811061130357634e487b7160e01b600052603260045260246000fd5b60200101906001600160f81b031916908160001a9053506000611327846002611a6d565b611332906001611a55565b90505b60018111156113c6576f181899199a1a9b1b9c1cb0b131b232b360811b85600f166010811061137457634e487b7160e01b600052603260045260246000fd5b1a60f81b82828151811061139857634e487b7160e01b600052603260045260246000fd5b60200101906001600160f81b031916908160001a90535060049490941c936113bf81611ab8565b9050611335565b5083156114155760405162461bcd60e51b815260206004820181905260248201527f537472696e67733a20686578206c656e67746820696e73756666696369656e7460448201526064016104bc565b9392505050565b611425816110cb565b6040516001600160a01b038216907fbc7cd75a20ee27fd9adebab32041f755214dbc6bffa90cc0225b39da2e5c2d3b90600090a250565b60606114158383604051806060016040528060278152602001611b6c602791396060600080856001600160a01b0316856040516114999190611820565b600060405180830381855af49150503d80600081146114d4576040519150601f19603f3d011682016040523d82523d6000602084013e6114d9565b606091505b50915091506114ea868383876114f4565b9695505050505050565b60608315611560578251611559576001600160a01b0385163b6115595760405162461bcd60e51b815260206004820152601d60248201527f416464726573733a2063616c6c20746f206e6f6e2d636f6e747261637400000060448201526064016104bc565b508161156a565b61156a8383611572565b949350505050565b8151156115825781518083602001fd5b8060405162461bcd60e51b81526004016104bc91906118ab565b8280546115a890611acf565b90600052602060002090601f0160209004810192826115ca5760008555611610565b82601f106115e35782800160ff19823516178555611610565b82800160010185558215611610579182015b828111156116105782358255916020019190600101906115f5565b5061161c929150611620565b5090565b5b8082111561161c5760008155600101611621565b600060208284031215611646578081fd5b813561141581611b36565b600060208284031215611662578081fd5b815161141581611b36565b6000806040838503121561167f578081fd5b823561168a81611b36565b9150602083013567ffffffffffffffff808211156116a6578283fd5b818501915085601f8301126116b9578283fd5b8135818111156116cb576116cb611b20565b604051601f8201601f19908116603f011681019083821181831017156116f3576116f3611b20565b8160405282815288602084870101111561170b578586fd5b82602086016020830137856020848301015280955050505050509250929050565b60006020828403121561173d578081fd5b5035919050565b600060208284031215611755578081fd5b5051919050565b6000806040838503121561176e578182fd5b82359150602083013561178081611b36565b809150509250929050565b60006020828403121561179c578081fd5b81356001600160e01b031981168114611415578182fd5b600080602083850312156117c5578182fd5b823567ffffffffffffffff808211156117dc578384fd5b818501915085601f8301126117ef578384fd5b8135818111156117fd578485fd5b86602082850101111561180e578485fd5b60209290920196919550909350505050565b60008251611832818460208701611a8c565b9190910192915050565b76020b1b1b2b9b9a1b7b73a3937b61d1030b1b1b7bab73a1604d1b81526000835161186e816017850160208801611a8c565b7001034b99036b4b9b9b4b733903937b6329607d1b601791840191820152835161189f816028840160208801611a8c565b01602801949350505050565b60208152600082518060208401526118ca816040850160208701611a8c565b601f01601f19169190910160400192915050565b6020808252602c908201527f46756e6374696f6e206d7573742062652063616c6c6564207468726f7567682060408201526b19195b1959d85d1958d85b1b60a21b606082015260800190565b6020808252602c908201527f46756e6374696f6e206d7573742062652063616c6c6564207468726f7567682060408201526b6163746976652070726f787960a01b606082015260800190565b6020808252602e908201527f496e697469616c697a61626c653a20636f6e747261637420697320616c72656160408201526d191e481a5b9a5d1a585b1a5e995960921b606082015260800190565b6020808252602b908201527f496e697469616c697a61626c653a20636f6e7472616374206973206e6f74206960408201526a6e697469616c697a696e6760a81b606082015260800190565b60208082526026908201527f5061757365725061757361626c653a2043616c6c6572206973206e6f742061206040820152653830bab9b2b960d11b606082015260800190565b60008219821115611a6857611a68611b0a565b500190565b6000816000190483118215151615611a8757611a87611b0a565b500290565b60005b83811015611aa7578181015183820152602001611a8f565b8381111561118c5750506000910152565b600081611ac757611ac7611b0a565b506000190190565b600181811c90821680611ae357607f821691505b60208210811415611b0457634e487b7160e01b600052602260045260246000fd5b50919050565b634e487b7160e01b600052601160045260246000fd5b634e487b7160e01b600052604160045260246000fd5b6001600160a01b038116811461059957600080fdfe360894a13ba1a3210667c828492db98dca3e2076cc3735a920a3ca505d382bbc416464726573733a206c6f772d6c6576656c2064656c65676174652063616c6c206661696c6564a26469706673582212206d24b9d33ae695669acbb6caeedc6070ec627dfd0480e6a77a1459a95637c3c764736f6c63430008040033",
  "linkReferences": {},
  "deployedLinkReferences": {}
}