{
  "_format": "hh-sol-artifact-1",
  "contractName": "ReignKeeper",
  "sourceName": "contracts/protocol/ReignKeeper.sol",
  "abi": [
    {
      "anonymous": false,
      "inputs": [
        {
          "indexed": false,
          "internalType": "address",
          "name": "previousAdmin",
          "type": "address"
        },
        {
          "indexed": false,
          "internalType": "address",
          "name": "newAdmin",
          "type": "address"
        }
      ],
      "name": "AdminChanged",
      "type": "event"
    },
    {
      "anonymous": false,
      "inputs": [
        {
          "indexed": true,
          "internalType": "address",
          "name": "beacon",
          "type": "address"
        }
      ],
      "name": "BeaconUpgraded",
      "type": "event"
    },
    {
      "anonymous": false,
      "inputs": [
        {
          "indexed": false,
          "internalType": "uint8",
          "name": "version",
          "type": "uint8"
        }
      ],
      "name": "Initialized",
      "type": "event"
    },
    {
      "anonymous": false,
      "inputs": [
        {
          "indexed": false,
          "internalType": "address",
          "name": "account",
          "type": "address"
        }
      ],
      "name": "Paused",
      "type": "event"
    },
    {
      "anonymous": false,
      "inputs": [
        {
          "indexed": true,
          "internalType": "bytes32",
          "name": "role",
          "type": "bytes32"
        },
        {
          "indexed": true,
          "internalType": "bytes32",
          "name": "previousAdminRole",
          "type": "bytes32"
        },
        {
          "indexed": true,
          "internalType": "bytes32",
          "name": "newAdminRole",
          "type": "bytes32"
        }
      ],
      "name": "RoleAdminChanged",
      "type": "event"
    },
    {
      "anonymous": false,
      "inputs": [
        {
          "indexed": true,
          "internalType": "bytes32",
          "name": "role",
          "type": "bytes32"
        },
        {
          "indexed": true,
          "internalType": "address",
          "name": "account",
          "type": "address"
        },
        {
          "indexed": true,
          "internalType": "address",
          "name": "sender",
          "type": "address"
        }
      ],
      "name": "RoleGranted",
      "type": "event"
    },
    {
      "anonymous": false,
      "inputs": [
        {
          "indexed": true,
          "internalType": "bytes32",
          "name": "role",
          "type": "bytes32"
        },
        {
          "indexed": true,
          "internalType": "address",
          "name": "account",
          "type": "address"
        },
        {
          "indexed": true,
          "internalType": "address",
          "name": "sender",
          "type": "address"
        }
      ],
      "name": "RoleRevoked",
      "type": "event"
    },
    {
      "anonymous": false,
      "inputs": [
        {
          "indexed": false,
          "internalType": "address",
          "name": "account",
          "type": "address"
        }
      ],
      "name": "Unpaused",
      "type": "event"
    },
    {
      "anonymous": false,
      "inputs": [
        {
          "indexed": true,
          "internalType": "address",
          "name": "implementation",
          "type": "address"
        }
      ],
      "name": "Upgraded",
      "type": "event"
    },
    {
      "inputs": [],
      "name": "DEFAULT_ADMIN_ROLE",
      "outputs": [
        {
          "internalType": "bytes32",
          "name": "",
          "type": "bytes32"
        }
      ],
      "stateMutability": "view",
      "type": "function"
    },
    {
      "inputs": [
        {
          "internalType": "address",
          "name": "owner",
          "type": "address"
        }
      ],
      "name": "_BaseUpgradeablePausable_init",
      "outputs": [],
      "stateMutability": "nonpayable",
      "type": "function"
    },
    {
      "inputs": [],
      "name": "__PauserPausable__init",
      "outputs": [],
      "stateMutability": "nonpayable",
      "type": "function"
    },
    {
      "inputs": [
        {
          "internalType": "bytes32",
          "name": "_opportunityId",
          "type": "bytes32"
        }
      ],
      "name": "addOpportunityInKeeper",
      "outputs": [],
      "stateMutability": "nonpayable",
      "type": "function"
    },
    {
      "inputs": [
        {
          "internalType": "bytes",
          "name": "",
          "type": "bytes"
        }
      ],
      "name": "checkUpkeep",
      "outputs": [
        {
          "internalType": "bool",
          "name": "upkeepNeeded",
          "type": "bool"
        },
        {
          "internalType": "bytes",
          "name": "",
          "type": "bytes"
        }
      ],
      "stateMutability": "nonpayable",
      "type": "function"
    },
    {
      "inputs": [
        {
          "internalType": "bytes32",
          "name": "role",
          "type": "bytes32"
        }
      ],
      "name": "getRoleAdmin",
      "outputs": [
        {
          "internalType": "bytes32",
          "name": "",
          "type": "bytes32"
        }
      ],
      "stateMutability": "view",
      "type": "function"
    },
    {
      "inputs": [
        {
          "internalType": "bytes32",
          "name": "role",
          "type": "bytes32"
        },
        {
          "internalType": "address",
          "name": "account",
          "type": "address"
        }
      ],
      "name": "grantRole",
      "outputs": [],
      "stateMutability": "nonpayable",
      "type": "function"
    },
    {
      "inputs": [
        {
          "internalType": "bytes32",
          "name": "role",
          "type": "bytes32"
        },
        {
          "internalType": "address",
          "name": "account",
          "type": "address"
        }
      ],
      "name": "hasRole",
      "outputs": [
        {
          "internalType": "bool",
          "name": "",
          "type": "bool"
        }
      ],
      "stateMutability": "view",
      "type": "function"
    },
    {
      "inputs": [
        {
          "internalType": "contract ReignConfig",
          "name": "_reignConfig",
          "type": "address"
        }
      ],
      "name": "initialize",
      "outputs": [],
      "stateMutability": "nonpayable",
      "type": "function"
    },
    {
      "inputs": [],
      "name": "isAdmin",
      "outputs": [
        {
          "internalType": "bool",
          "name": "",
          "type": "bool"
        }
      ],
      "stateMutability": "view",
      "type": "function"
    },
    {
      "inputs": [],
      "name": "pause",
      "outputs": [],
      "stateMutability": "nonpayable",
      "type": "function"
    },
    {
      "inputs": [],
      "name": "paused",
      "outputs": [
        {
          "internalType": "bool",
          "name": "",
          "type": "bool"
        }
      ],
      "stateMutability": "view",
      "type": "function"
    },
    {
      "inputs": [
        {
          "internalType": "bytes",
          "name": "",
          "type": "bytes"
        }
      ],
      "name": "performUpkeep",
      "outputs": [],
      "stateMutability": "nonpayable",
      "type": "function"
    },
    {
      "inputs": [],
      "name": "proxiableUUID",
      "outputs": [
        {
          "internalType": "bytes32",
          "name": "",
          "type": "bytes32"
        }
      ],
      "stateMutability": "view",
      "type": "function"
    },
    {
      "inputs": [],
      "name": "reignConfig",
      "outputs": [
        {
          "internalType": "contract ReignConfig",
          "name": "",
          "type": "address"
        }
      ],
      "stateMutability": "view",
      "type": "function"
    },
    {
      "inputs": [
        {
          "internalType": "bytes32",
          "name": "_opportunityId",
          "type": "bytes32"
        }
      ],
      "name": "removeOpportunityFromKeeper",
      "outputs": [],
      "stateMutability": "nonpayable",
      "type": "function"
    },
    {
      "inputs": [
        {
          "internalType": "bytes32",
          "name": "role",
          "type": "bytes32"
        },
        {
          "internalType": "address",
          "name": "account",
          "type": "address"
        }
      ],
      "name": "renounceRole",
      "outputs": [],
      "stateMutability": "nonpayable",
      "type": "function"
    },
    {
      "inputs": [
        {
          "internalType": "bytes32",
          "name": "role",
          "type": "bytes32"
        },
        {
          "internalType": "address",
          "name": "account",
          "type": "address"
        }
      ],
      "name": "revokeRole",
      "outputs": [],
      "stateMutability": "nonpayable",
      "type": "function"
    },
    {
      "inputs": [
        {
          "internalType": "bytes4",
          "name": "interfaceId",
          "type": "bytes4"
        }
      ],
      "name": "supportsInterface",
      "outputs": [
        {
          "internalType": "bool",
          "name": "",
          "type": "bool"
        }
      ],
      "stateMutability": "view",
      "type": "function"
    },
    {
      "inputs": [],
      "name": "unpause",
      "outputs": [],
      "stateMutability": "nonpayable",
      "type": "function"
    },
    {
      "inputs": [
        {
          "internalType": "address",
          "name": "newImplementation",
          "type": "address"
        }
      ],
      "name": "upgradeTo",
      "outputs": [],
      "stateMutability": "nonpayable",
      "type": "function"
    },
    {
      "inputs": [
        {
          "internalType": "address",
          "name": "newImplementation",
          "type": "address"
        },
        {
          "internalType": "bytes",
          "name": "data",
          "type": "bytes"
        }
      ],
      "name": "upgradeToAndCall",
      "outputs": [],
      "stateMutability": "payable",
      "type": "function"
    }
  ],
  "bytecode": "0x60a06040523060601b60805234801561001757600080fd5b5060805160601c61258f610052600039600081816104ee0152818161052e01528181610b9d01528181610bdd0152610d1e015261258f6000f3fe6080604052600436106101355760003560e01c80635c975abb116100ab578063a12dde4d1161006f578063a12dde4d1461033c578063a217fddf1461035c578063b2a0105514610371578063b6db75a0146103aa578063c4d66de8146103bf578063d547741f146103df57600080fd5b80635c975abb146102a15780636e04ff0d146102b95780638456cb59146102e757806391ad73ec146102fc57806391d148541461031c57600080fd5b80633aa7c283116100fd5780633aa7c2831461020f5780633f4ba83a1461022f5780634585e33b146102445780634f1ef28614610264578063526d81f61461027757806352d1902d1461028c57600080fd5b806301ffc9a71461013a578063248a9ca31461016f5780632f2ff15d146101ad57806336568abe146101cf5780633659cfe6146101ef575b600080fd5b34801561014657600080fd5b5061015a6101553660046120e6565b6103ff565b60405190151581526020015b60405180910390f35b34801561017b57600080fd5b5061019f61018a366004612087565b60009081526065602052604090206001015490565b604051908152602001610166565b3480156101b957600080fd5b506101cd6101c83660046120b7565b610436565b005b3480156101db57600080fd5b506101cd6101ea3660046120b7565b610460565b3480156101fb57600080fd5b506101cd61020a366004611f70565b6104e3565b34801561021b57600080fd5b506101cd61022a366004612087565b6105ac565b34801561023b57600080fd5b506101cd610709565b34801561025057600080fd5b506101cd61025f36600461210e565b610740565b6101cd610272366004611fa8565b610b92565b34801561028357600080fd5b506101cd610c48565b34801561029857600080fd5b5061019f610d11565b3480156102ad57600080fd5b5060975460ff1661015a565b3480156102c557600080fd5b506102d96102d436600461210e565b610dbf565b604051610166929190612232565b3480156102f357600080fd5b506101cd611017565b34801561030857600080fd5b506101cd610317366004612087565b611046565b34801561032857600080fd5b5061015a6103373660046120b7565b611186565b34801561034857600080fd5b506101cd610357366004611f70565b6111b1565b34801561036857600080fd5b5061019f600081565b34801561037d57600080fd5b5061015f54610392906001600160a01b031681565b6040516001600160a01b039091168152602001610166565b3480156103b657600080fd5b5061015a611285565b3480156103cb57600080fd5b506101cd6103da366004611f70565b611297565b3480156103eb57600080fd5b506101cd6103fa3660046120b7565b61148f565b60006001600160e01b03198216637965db0b60e01b148061043057506301ffc9a760e01b6001600160e01b03198316145b92915050565b600082815260656020526040902060010154610451816114b4565b61045b83836114be565b505050565b6001600160a01b03811633146104d55760405162461bcd60e51b815260206004820152602f60248201527f416363657373436f6e74726f6c3a2063616e206f6e6c792072656e6f756e636560448201526e103937b632b9903337b91039b2b63360891b60648201526084015b60405180910390fd5b6104df8282611544565b5050565b306001600160a01b037f000000000000000000000000000000000000000000000000000000000000000016141561052c5760405162461bcd60e51b81526004016104cc90612260565b7f00000000000000000000000000000000000000000000000000000000000000006001600160a01b031661055e6115ab565b6001600160a01b0316146105845760405162461bcd60e51b81526004016104cc906122ac565b61058d816115c7565b604080516000808252602082019092526105a99183919061162f565b50565b61016054604051630231155f60e51b8152600481018390526001600160a01b0390911690634622abe09060240160206040518083038186803b1580156105f157600080fd5b505afa158015610605573d6000803e3d6000fd5b505050506040513d601f19601f820116820180604052508101906106299190612067565b151560011461068d5760405162461bcd60e51b815260206004820152602a60248201527f526569676e4b65657065723a206f70706f7274756e697479206973206e6f7420604482015269323930bbb7103237bbb760b11b60648201526084016104cc565b61015f546106a3906001600160a01b03166117a9565b6001600160a01b0316336001600160a01b0316146106d35760405162461bcd60e51b81526004016104cc90612346565b61016180546001810182556000919091527fafbb1c043347995df017ce3291b765e028ad5f784d2aa00c3f5e073760a4de8b0155565b61071a61071461182b565b33611186565b6107365760405162461bcd60e51b81526004016104cc906123df565b61073e61184f565b565b6107486118a1565b610162805460ff1916600117905560005b61016154811015610b7c576101605461016180546000926001600160a01b031691637e4dc6d5918590811061079e57634e487b7160e01b600052603260045260246000fd5b90600052602060002001546040518263ffffffff1660e01b81526004016107c791815260200190565b60206040518083038186803b1580156107df57600080fd5b505afa1580156107f3573d6000803e3d6000fd5b505050506040513d601f19601f820116820180604052508101906108179190611f8c565b6001600160a01b031663df9fd1c16040518163ffffffff1660e01b815260040160206040518083038186803b15801561084f57600080fd5b505afa158015610863573d6000803e3d6000fd5b505050506040513d601f19601f82011682018060405250810190610887919061209f565b905042811015610b69576101605461016180546000926001600160a01b03169163718df38c91869081106108cb57634e487b7160e01b600052603260045260246000fd5b90600052602060002001546040518263ffffffff1660e01b81526004016108f491815260200190565b60206040518083038186803b15801561090c57600080fd5b505afa158015610920573d6000803e3d6000fd5b505050506040513d601f19601f82011682018060405250810190610944919061209f565b610951906201518061243d565b9050600061095f834261245c565b905081811115610b66576101605461016180546001600160a01b0390921691636dc305f99190879081106109a357634e487b7160e01b600052603260045260246000fd5b6000918252602090912001546101605461016180546001600160a01b0390921691637e4dc6d591908a9081106109e957634e487b7160e01b600052603260045260246000fd5b90600052602060002001546040518263ffffffff1660e01b8152600401610a1291815260200190565b60206040518083038186803b158015610a2a57600080fd5b505afa158015610a3e573d6000803e3d6000fd5b505050506040513d601f19601f82011682018060405250810190610a629190611f8c565b6040516001600160e01b031960e085901b16815260048101929092526001600160a01b03166024820152604401600060405180830381600087803b158015610aa957600080fd5b505af1158015610abd573d6000803e3d6000fd5b50506101618054909250610ad4915060019061245c565b81548110610af257634e487b7160e01b600052603260045260246000fd5b90600052602060002001546101618581548110610b1f57634e487b7160e01b600052603260045260246000fd5b6000918252602090912001556101618054610b3c9060019061245c565b81548110610b5a57634e487b7160e01b600052603260045260246000fd5b60009182526020822001555b50505b5080610b74816124b6565b915050610759565b50610162805460ff191690556104df600160c955565b306001600160a01b037f0000000000000000000000000000000000000000000000000000000000000000161415610bdb5760405162461bcd60e51b81526004016104cc90612260565b7f00000000000000000000000000000000000000000000000000000000000000006001600160a01b0316610c0d6115ab565b6001600160a01b031614610c335760405162461bcd60e51b81526004016104cc906122ac565b610c3c826115c7565b6104df8282600161162f565b600054610100900460ff1615808015610c685750600054600160ff909116105b80610c825750303b158015610c82575060005460ff166001145b610c9e5760405162461bcd60e51b81526004016104cc906122f8565b6000805460ff191660011790558015610cc1576000805461ff0019166101001790555b610cc9611902565b80156105a9576000805461ff0019169055604051600181527f7f26b83ff96e1f2b6a682f133852f6798a09c465da95921460cefb38474024989060200160405180910390a150565b6000306001600160a01b037f00000000000000000000000000000000000000000000000000000000000000001614610dac5760405162461bcd60e51b815260206004820152603860248201527f555550535570677261646561626c653a206d757374206e6f742062652063616c6044820152771b1959081d1a1c9bdd59da0819195b1959d85d1958d85b1b60421b60648201526084016104cc565b5060008051602061251383398151915290565b6000606081805b61016154811015610ff8576101605461016180546000926001600160a01b031691637e4dc6d59185908110610e0b57634e487b7160e01b600052603260045260246000fd5b90600052602060002001546040518263ffffffff1660e01b8152600401610e3491815260200190565b60206040518083038186803b158015610e4c57600080fd5b505afa158015610e60573d6000803e3d6000fd5b505050506040513d601f19601f82011682018060405250810190610e849190611f8c565b6001600160a01b031663df9fd1c16040518163ffffffff1660e01b815260040160206040518083038186803b158015610ebc57600080fd5b505afa158015610ed0573d6000803e3d6000fd5b505050506040513d601f19601f82011682018060405250810190610ef4919061209f565b905042811015610fe5576101605461016180546000926001600160a01b03169163718df38c9186908110610f3857634e487b7160e01b600052603260045260246000fd5b90600052602060002001546040518263ffffffff1660e01b8152600401610f6191815260200190565b60206040518083038186803b158015610f7957600080fd5b505afa158015610f8d573d6000803e3d6000fd5b505050506040513d601f19601f82011682018060405250810190610fb1919061209f565b610fbe906201518061243d565b90506000610fcc834261245c565b905081811115610fe25760019450505050610ff8565b50505b5080610ff0816124b6565b915050610dc6565b506101625460ff1661100a578061100d565b60005b9250509250929050565b61102261071461182b565b61103e5760405162461bcd60e51b81526004016104cc906123df565b61073e611935565b61015f5461105c906001600160a01b03166117a9565b6001600160a01b0316336001600160a01b03161461108c5760405162461bcd60e51b81526004016104cc90612346565b60005b610161548110156104df578161016182815481106110bd57634e487b7160e01b600052603260045260246000fd5b906000526020600020015414156111745761016180546110df9060019061245c565b815481106110fd57634e487b7160e01b600052603260045260246000fd5b9060005260206000200154610161828154811061112a57634e487b7160e01b600052603260045260246000fd5b60009182526020909120015561016180546111479060019061245c565b8154811061116557634e487b7160e01b600052603260045260246000fd5b60009182526020822001555050565b8061117e816124b6565b91505061108f565b60009182526065602090815260408084206001600160a01b0393909316845291905290205460ff1690565b600054610100900460ff166111d85760405162461bcd60e51b81526004016104cc90612394565b6001600160a01b03811661122e5760405162461bcd60e51b815260206004820181905260248201527f4f776e65722063616e6e6f7420626520746865207a65726f206164647265737360448201526064016104cc565b611236611972565b61123e611902565b611246611999565b6112576112516119c0565b826114be565b61126261125161182b565b61127a61126d61182b565b6112756119c0565b6119e4565b6105a961126d6119c0565b60006112926107146119c0565b905090565b600054610100900460ff16158080156112b75750600054600160ff909116105b806112d15750303b1580156112d1575060005460ff166001145b6112ed5760405162461bcd60e51b81526004016104cc906122f8565b6000805460ff191660011790558015611310576000805461ff0019166101001790555b6001600160a01b0382166113775760405162461bcd60e51b815260206004820152602860248201527f526569676e4b65657065723a20726569676e436f6e666967206973207a65726f604482015267206164647265737360c01b60648201526084016104cc565b61015f80546001600160a01b0319166001600160a01b0384169081179091556000906113a290611a2f565b90506001600160a01b0381166114055760405162461bcd60e51b815260206004820152602260248201527f526569676e4b65657065723a206f776e6572206973207a65726f206164647265604482015261737360f01b60648201526084016104cc565b61015f5461141b906001600160a01b03166117a9565b61016080546001600160a01b0319166001600160a01b0392909216919091179055611445816111b1565b5080156104df576000805461ff0019169055604051600181527f7f26b83ff96e1f2b6a682f133852f6798a09c465da95921460cefb38474024989060200160405180910390a15050565b6000828152606560205260409020600101546114aa816114b4565b61045b8383611544565b6105a98133611a46565b6114c88282611186565b6104df5760008281526065602090815260408083206001600160a01b03851684529091529020805460ff191660011790556115003390565b6001600160a01b0316816001600160a01b0316837f2f8788117e7eff1d82e926ec794901d17c78024a50270940304540a733656f0d60405160405180910390a45050565b61154e8282611186565b156104df5760008281526065602090815260408083206001600160a01b0385168085529252808320805460ff1916905551339285917ff6391f5c32d9c69d2a47ea670b442974b53935d1edc7fd64eb21e047a839171b9190a45050565b600080516020612513833981519152546001600160a01b031690565b6115cf611285565b6105a95760405162461bcd60e51b815260206004820152602b60248201527f4d75737420686176652061646d696e20726f6c6520746f20706572666f726d2060448201526a3a3434b99030b1ba34b7b760a91b60648201526084016104cc565b7f4910fdfa16fed3260ed0e7147f7cc6da11a60208b5b9406d12a635614ffd91435460ff16156116625761045b83611a9f565b826001600160a01b03166352d1902d6040518163ffffffff1660e01b815260040160206040518083038186803b15801561169b57600080fd5b505afa9250505080156116cb575060408051601f3d908101601f191682019092526116c89181019061209f565b60015b61172e5760405162461bcd60e51b815260206004820152602e60248201527f45524331393637557067726164653a206e657720696d706c656d656e7461746960448201526d6f6e206973206e6f74205555505360901b60648201526084016104cc565b600080516020612513833981519152811461179d5760405162461bcd60e51b815260206004820152602960248201527f45524331393637557067726164653a20756e737570706f727465642070726f786044820152681a58589b195555525160ba1b60648201526084016104cc565b5061045b838383611b3b565b60006001600160a01b03821663b93f9b0a60065b6040518263ffffffff1660e01b81526004016117db91815260200190565b60206040518083038186803b1580156117f357600080fd5b505afa158015611807573d6000803e3d6000fd5b505050506040513d601f19601f820116820180604052508101906104309190611f8c565b7f65d7a28e3265b37a6474929f336521b332c1681b933f6cb9f3376673440d862a90565b611857611b66565b6097805460ff191690557f5db9ee0a495bf2e6ff9c91a7834c1ba4fdd244a5e8aa4e537bd38aeae4b073aa335b6040516001600160a01b03909116815260200160405180910390a1565b600260c95414156118f45760405162461bcd60e51b815260206004820152601f60248201527f5265656e7472616e637947756172643a207265656e7472616e742063616c6c0060448201526064016104cc565b600260c955565b600160c955565b600054610100900460ff166119295760405162461bcd60e51b81526004016104cc90612394565b6097805460ff19169055565b61193d611baf565b6097805460ff191660011790557f62e78cea01bee320cd4e420270b5ea74000d11b0c9f74754ebdbfc544b05a2586118843390565b600054610100900460ff1661073e5760405162461bcd60e51b81526004016104cc90612394565b600054610100900460ff166118fb5760405162461bcd60e51b81526004016104cc90612394565b7fa49807205ce4d355092ef5a8a18f56e8913cf4a201fbe287825b095693c2177590565b600082815260656020526040808220600101805490849055905190918391839186917fbd79b86ffe0ab8e8776151514217cd7cacd52c909f66475c3af44e129f0b00ff9190a4505050565b60006001600160a01b03821663b93f9b0a826117bd565b611a508282611186565b6104df57611a5d81611bf5565b611a68836020611c07565b604051602001611a799291906121c3565b60408051601f198184030181529082905262461bcd60e51b82526104cc9160040161224d565b6001600160a01b0381163b611b0c5760405162461bcd60e51b815260206004820152602d60248201527f455243313936373a206e657720696d706c656d656e746174696f6e206973206e60448201526c1bdd08184818dbdb9d1c9858dd609a1b60648201526084016104cc565b60008051602061251383398151915280546001600160a01b0319166001600160a01b0392909216919091179055565b611b4483611df0565b600082511180611b515750805b1561045b57611b608383611e30565b50505050565b60975460ff1661073e5760405162461bcd60e51b815260206004820152601460248201527314185d5cd8589b194e881b9bdd081c185d5cd95960621b60448201526064016104cc565b60975460ff161561073e5760405162461bcd60e51b815260206004820152601060248201526f14185d5cd8589b194e881c185d5cd95960821b60448201526064016104cc565b60606104306001600160a01b03831660145b60606000611c1683600261243d565b611c21906002612425565b67ffffffffffffffff811115611c4757634e487b7160e01b600052604160045260246000fd5b6040519080825280601f01601f191660200182016040528015611c71576020820181803683370190505b509050600360fc1b81600081518110611c9a57634e487b7160e01b600052603260045260246000fd5b60200101906001600160f81b031916908160001a905350600f60fb1b81600181518110611cd757634e487b7160e01b600052603260045260246000fd5b60200101906001600160f81b031916908160001a9053506000611cfb84600261243d565b611d06906001612425565b90505b6001811115611d9a576f181899199a1a9b1b9c1cb0b131b232b360811b85600f1660108110611d4857634e487b7160e01b600052603260045260246000fd5b1a60f81b828281518110611d6c57634e487b7160e01b600052603260045260246000fd5b60200101906001600160f81b031916908160001a90535060049490941c93611d938161249f565b9050611d09565b508315611de95760405162461bcd60e51b815260206004820181905260248201527f537472696e67733a20686578206c656e67746820696e73756666696369656e7460448201526064016104cc565b9392505050565b611df981611a9f565b6040516001600160a01b038216907fbc7cd75a20ee27fd9adebab32041f755214dbc6bffa90cc0225b39da2e5c2d3b90600090a250565b6060611de98383604051806060016040528060278152602001612533602791396060600080856001600160a01b031685604051611e6d91906121a7565b600060405180830381855af49150503d8060008114611ea8576040519150601f19603f3d011682016040523d82523d6000602084013e611ead565b606091505b5091509150611ebe86838387611ec8565b9695505050505050565b60608315611f34578251611f2d576001600160a01b0385163b611f2d5760405162461bcd60e51b815260206004820152601d60248201527f416464726573733a2063616c6c20746f206e6f6e2d636f6e747261637400000060448201526064016104cc565b5081611f3e565b611f3e8383611f46565b949350505050565b815115611f565781518083602001fd5b8060405162461bcd60e51b81526004016104cc919061224d565b600060208284031215611f81578081fd5b8135611de9816124fd565b600060208284031215611f9d578081fd5b8151611de9816124fd565b60008060408385031215611fba578081fd5b8235611fc5816124fd565b9150602083013567ffffffffffffffff80821115611fe1578283fd5b818501915085601f830112611ff4578283fd5b813581811115612006576120066124e7565b604051601f8201601f19908116603f0116810190838211818310171561202e5761202e6124e7565b81604052828152886020848701011115612046578586fd5b82602086016020830137856020848301015280955050505050509250929050565b600060208284031215612078578081fd5b81518015158114611de9578182fd5b600060208284031215612098578081fd5b5035919050565b6000602082840312156120b0578081fd5b5051919050565b600080604083850312156120c9578182fd5b8235915060208301356120db816124fd565b809150509250929050565b6000602082840312156120f7578081fd5b81356001600160e01b031981168114611de9578182fd5b60008060208385031215612120578182fd5b823567ffffffffffffffff80821115612137578384fd5b818501915085601f83011261214a578384fd5b813581811115612158578485fd5b866020828501011115612169578485fd5b60209290920196919550909350505050565b60008151808452612193816020860160208601612473565b601f01601f19169290920160200192915050565b600082516121b9818460208701612473565b9190910192915050565b76020b1b1b2b9b9a1b7b73a3937b61d1030b1b1b7bab73a1604d1b8152600083516121f5816017850160208801612473565b7001034b99036b4b9b9b4b733903937b6329607d1b6017918401918201528351612226816028840160208801612473565b01602801949350505050565b8215158152604060208201526000611f3e604083018461217b565b602081526000611de9602083018461217b565b6020808252602c908201527f46756e6374696f6e206d7573742062652063616c6c6564207468726f7567682060408201526b19195b1959d85d1958d85b1b60a21b606082015260800190565b6020808252602c908201527f46756e6374696f6e206d7573742062652063616c6c6564207468726f7567682060408201526b6163746976652070726f787960a01b606082015260800190565b6020808252602e908201527f496e697469616c697a61626c653a20636f6e747261637420697320616c72656160408201526d191e481a5b9a5d1a585b1a5e995960921b606082015260800190565b6020808252602e908201527f526569676e4b65657065723a2063616c6c6572206973206e6f74206f70706f7260408201526d3a3ab734ba3c9036b0b730b3b2b960911b606082015260800190565b6020808252602b908201527f496e697469616c697a61626c653a20636f6e7472616374206973206e6f74206960408201526a6e697469616c697a696e6760a81b606082015260800190565b60208082526026908201527f5061757365725061757361626c653a2043616c6c6572206973206e6f742061206040820152653830bab9b2b960d11b606082015260800190565b60008219821115612438576124386124d1565b500190565b6000816000190483118215151615612457576124576124d1565b500290565b60008282101561246e5761246e6124d1565b500390565b60005b8381101561248e578181015183820152602001612476565b83811115611b605750506000910152565b6000816124ae576124ae6124d1565b506000190190565b60006000198214156124ca576124ca6124d1565b5060010190565b634e487b7160e01b600052601160045260246000fd5b634e487b7160e01b600052604160045260246000fd5b6001600160a01b03811681146105a957600080fdfe360894a13ba1a3210667c828492db98dca3e2076cc3735a920a3ca505d382bbc416464726573733a206c6f772d6c6576656c2064656c65676174652063616c6c206661696c6564a26469706673582212206c8f4eea0917309b7fea5e0b254aaab9c4a1187fadd4c888f9b429a25ae8f1f964736f6c63430008040033",
  "linkReferences": {},
  "deployedLinkReferences": {}
}