{
  "_format": "hh-sol-artifact-1",
  "contractName": "ReignStaking",
  "sourceName": "contracts/protocol/old/ReignStaking.sol",
  "abi": [
    {
      "inputs": [
        {
          "internalType": "contract IERC20",
          "name": "_usdcToken",
          "type": "address"
        },
        {
          "internalType": "uint256",
          "name": "_APR",
          "type": "uint256"
        }
      ],
      "stateMutability": "nonpayable",
      "type": "constructor"
    },
    {
      "inputs": [],
      "name": "ReignStaking__InvalidAddress",
      "type": "error"
    },
    {
      "inputs": [],
      "name": "ReignStaking__InvalidAmount",
      "type": "error"
    },
    {
      "inputs": [],
      "name": "ReignStaking__NotOwner",
      "type": "error"
    },
    {
      "anonymous": false,
      "inputs": [
        {
          "indexed": true,
          "internalType": "address",
          "name": "owner",
          "type": "address"
        },
        {
          "indexed": true,
          "internalType": "address",
          "name": "spender",
          "type": "address"
        },
        {
          "indexed": false,
          "internalType": "uint256",
          "name": "value",
          "type": "uint256"
        }
      ],
      "name": "Approval",
      "type": "event"
    },
    {
      "anonymous": false,
      "inputs": [
        {
          "indexed": true,
          "internalType": "address",
          "name": "from",
          "type": "address"
        },
        {
          "indexed": false,
          "internalType": "uint256",
          "name": "amount",
          "type": "uint256"
        }
      ],
      "name": "Stake",
      "type": "event"
    },
    {
      "anonymous": false,
      "inputs": [
        {
          "indexed": true,
          "internalType": "address",
          "name": "from",
          "type": "address"
        },
        {
          "indexed": true,
          "internalType": "address",
          "name": "to",
          "type": "address"
        },
        {
          "indexed": false,
          "internalType": "uint256",
          "name": "value",
          "type": "uint256"
        }
      ],
      "name": "Transfer",
      "type": "event"
    },
    {
      "anonymous": false,
      "inputs": [
        {
          "indexed": true,
          "internalType": "address",
          "name": "from",
          "type": "address"
        },
        {
          "indexed": false,
          "internalType": "uint256",
          "name": "amount",
          "type": "uint256"
        }
      ],
      "name": "Unstake",
      "type": "event"
    },
    {
      "anonymous": false,
      "inputs": [
        {
          "indexed": true,
          "internalType": "address",
          "name": "to",
          "type": "address"
        },
        {
          "indexed": false,
          "internalType": "uint256",
          "name": "amount",
          "type": "uint256"
        }
      ],
      "name": "YieldWithdraw",
      "type": "event"
    },
    {
      "inputs": [],
      "name": "APR",
      "outputs": [
        {
          "internalType": "uint256",
          "name": "",
          "type": "uint256"
        }
      ],
      "stateMutability": "view",
      "type": "function"
    },
    {
      "inputs": [
        {
          "internalType": "address",
          "name": "owner",
          "type": "address"
        },
        {
          "internalType": "address",
          "name": "spender",
          "type": "address"
        }
      ],
      "name": "allowance",
      "outputs": [
        {
          "internalType": "uint256",
          "name": "",
          "type": "uint256"
        }
      ],
      "stateMutability": "view",
      "type": "function"
    },
    {
      "inputs": [
        {
          "internalType": "address",
          "name": "spender",
          "type": "address"
        },
        {
          "internalType": "uint256",
          "name": "amount",
          "type": "uint256"
        }
      ],
      "name": "approve",
      "outputs": [
        {
          "internalType": "bool",
          "name": "",
          "type": "bool"
        }
      ],
      "stateMutability": "nonpayable",
      "type": "function"
    },
    {
      "inputs": [
        {
          "internalType": "address",
          "name": "account",
          "type": "address"
        }
      ],
      "name": "balanceOf",
      "outputs": [
        {
          "internalType": "uint256",
          "name": "",
          "type": "uint256"
        }
      ],
      "stateMutability": "view",
      "type": "function"
    },
    {
      "inputs": [
        {
          "internalType": "address",
          "name": "user",
          "type": "address"
        }
      ],
      "name": "calculateYieldTime",
      "outputs": [
        {
          "internalType": "uint256",
          "name": "",
          "type": "uint256"
        }
      ],
      "stateMutability": "view",
      "type": "function"
    },
    {
      "inputs": [
        {
          "internalType": "address",
          "name": "user",
          "type": "address"
        }
      ],
      "name": "calculateYieldTotal",
      "outputs": [
        {
          "internalType": "uint256",
          "name": "",
          "type": "uint256"
        }
      ],
      "stateMutability": "view",
      "type": "function"
    },
    {
      "inputs": [
        {
          "internalType": "uint256",
          "name": "_APR",
          "type": "uint256"
        }
      ],
      "name": "changeAPR",
      "outputs": [],
      "stateMutability": "nonpayable",
      "type": "function"
    },
    {
      "inputs": [],
      "name": "contractName",
      "outputs": [
        {
          "internalType": "string",
          "name": "",
          "type": "string"
        }
      ],
      "stateMutability": "view",
      "type": "function"
    },
    {
      "inputs": [],
      "name": "decimals",
      "outputs": [
        {
          "internalType": "uint8",
          "name": "",
          "type": "uint8"
        }
      ],
      "stateMutability": "view",
      "type": "function"
    },
    {
      "inputs": [
        {
          "internalType": "address",
          "name": "spender",
          "type": "address"
        },
        {
          "internalType": "uint256",
          "name": "subtractedValue",
          "type": "uint256"
        }
      ],
      "name": "decreaseAllowance",
      "outputs": [
        {
          "internalType": "bool",
          "name": "",
          "type": "bool"
        }
      ],
      "stateMutability": "nonpayable",
      "type": "function"
    },
    {
      "inputs": [],
      "name": "getTotalYield",
      "outputs": [
        {
          "internalType": "uint256",
          "name": "",
          "type": "uint256"
        }
      ],
      "stateMutability": "view",
      "type": "function"
    },
    {
      "inputs": [
        {
          "internalType": "address",
          "name": "spender",
          "type": "address"
        },
        {
          "internalType": "uint256",
          "name": "addedValue",
          "type": "uint256"
        }
      ],
      "name": "increaseAllowance",
      "outputs": [
        {
          "internalType": "bool",
          "name": "",
          "type": "bool"
        }
      ],
      "stateMutability": "nonpayable",
      "type": "function"
    },
    {
      "inputs": [],
      "name": "name",
      "outputs": [
        {
          "internalType": "string",
          "name": "",
          "type": "string"
        }
      ],
      "stateMutability": "view",
      "type": "function"
    },
    {
      "inputs": [],
      "name": "owner",
      "outputs": [
        {
          "internalType": "address",
          "name": "",
          "type": "address"
        }
      ],
      "stateMutability": "view",
      "type": "function"
    },
    {
      "inputs": [
        {
          "internalType": "address",
          "name": "",
          "type": "address"
        }
      ],
      "name": "s_isStaking",
      "outputs": [
        {
          "internalType": "bool",
          "name": "",
          "type": "bool"
        }
      ],
      "stateMutability": "view",
      "type": "function"
    },
    {
      "inputs": [
        {
          "internalType": "address",
          "name": "",
          "type": "address"
        }
      ],
      "name": "s_stakingBalance",
      "outputs": [
        {
          "internalType": "uint256",
          "name": "",
          "type": "uint256"
        }
      ],
      "stateMutability": "view",
      "type": "function"
    },
    {
      "inputs": [
        {
          "internalType": "address",
          "name": "",
          "type": "address"
        }
      ],
      "name": "s_startDate",
      "outputs": [
        {
          "internalType": "uint256",
          "name": "",
          "type": "uint256"
        }
      ],
      "stateMutability": "view",
      "type": "function"
    },
    {
      "inputs": [
        {
          "internalType": "address",
          "name": "",
          "type": "address"
        }
      ],
      "name": "s_usdcYield",
      "outputs": [
        {
          "internalType": "uint256",
          "name": "",
          "type": "uint256"
        }
      ],
      "stateMutability": "view",
      "type": "function"
    },
    {
      "inputs": [
        {
          "internalType": "uint256",
          "name": "amount",
          "type": "uint256"
        }
      ],
      "name": "stake",
      "outputs": [],
      "stateMutability": "nonpayable",
      "type": "function"
    },
    {
      "inputs": [],
      "name": "symbol",
      "outputs": [
        {
          "internalType": "string",
          "name": "",
          "type": "string"
        }
      ],
      "stateMutability": "view",
      "type": "function"
    },
    {
      "inputs": [],
      "name": "totalSupply",
      "outputs": [
        {
          "internalType": "uint256",
          "name": "",
          "type": "uint256"
        }
      ],
      "stateMutability": "view",
      "type": "function"
    },
    {
      "inputs": [
        {
          "internalType": "address",
          "name": "to",
          "type": "address"
        },
        {
          "internalType": "uint256",
          "name": "amount",
          "type": "uint256"
        }
      ],
      "name": "transfer",
      "outputs": [
        {
          "internalType": "bool",
          "name": "",
          "type": "bool"
        }
      ],
      "stateMutability": "nonpayable",
      "type": "function"
    },
    {
      "inputs": [
        {
          "internalType": "address",
          "name": "from",
          "type": "address"
        },
        {
          "internalType": "address",
          "name": "to",
          "type": "address"
        },
        {
          "internalType": "uint256",
          "name": "amount",
          "type": "uint256"
        }
      ],
      "name": "transferFrom",
      "outputs": [
        {
          "internalType": "bool",
          "name": "",
          "type": "bool"
        }
      ],
      "stateMutability": "nonpayable",
      "type": "function"
    },
    {
      "inputs": [
        {
          "internalType": "uint256",
          "name": "amount",
          "type": "uint256"
        }
      ],
      "name": "unstake",
      "outputs": [],
      "stateMutability": "nonpayable",
      "type": "function"
    },
    {
      "inputs": [],
      "name": "usdcToken",
      "outputs": [
        {
          "internalType": "contract IERC20",
          "name": "",
          "type": "address"
        }
      ],
      "stateMutability": "view",
      "type": "function"
    },
    {
      "inputs": [
        {
          "internalType": "uint256",
          "name": "amount",
          "type": "uint256"
        },
        {
          "internalType": "address",
          "name": "_receiver",
          "type": "address"
        }
      ],
      "name": "withdrawTo",
      "outputs": [],
      "stateMutability": "nonpayable",
      "type": "function"
    },
    {
      "inputs": [],
      "name": "withdrawYield",
      "outputs": [],
      "stateMutability": "nonpayable",
      "type": "function"
    }
  ],
  "bytecode": "0x60c0604052600d60808190526c526569676e205374616b696e6760981b60a0908152620000309160099190620000fd565b503480156200003e57600080fd5b506040516200180f3803806200180f8339810160408190526200006191620001a3565b604080518082018252600b81526a29ba30b5b2b22932b4b3b760a91b60208083019182528351808501909452600684526539a922a4a3a760d11b908401528151919291620000b291600391620000fd565b508051620000c8906004906020840190620000fd565b5050600b80546001600160a01b039094166001600160a01b031994851617905550600c55600a8054909116331790556200021a565b8280546200010b90620001dd565b90600052602060002090601f0160209004810192826200012f57600085556200017a565b82601f106200014a57805160ff19168380011785556200017a565b828001600101855582156200017a579182015b828111156200017a5782518255916020019190600101906200015d565b50620001889291506200018c565b5090565b5b808211156200018857600081556001016200018d565b60008060408385031215620001b6578182fd5b82516001600160a01b0381168114620001cd578283fd5b6020939093015192949293505050565b600181811c90821680620001f257607f821691505b602082108114156200021457634e487b7160e01b600052602260045260246000fd5b50919050565b6115e5806200022a6000396000f3fe608060405234801561001057600080fd5b50600436106101795760003560e01c806370a08231116100d9578063a694fc3a11610087578063a694fc3a1461033e578063a9059cbb14610351578063bd30558e14610364578063c86283c81461036d578063dd62ed3e14610380578063e507a8a414610393578063e62fd1721461039b57600080fd5b806370a08231146102c457806375d0c0dc146102ed5780637aec978d146102f55780638da5cb5b146102fd57806395d89b4114610310578063980d611614610318578063a457c2d71461032b57600080fd5b80632d152814116101365780632d152814146102175780632e17de78146102375780632f3a54631461024c578063313ce5671461026f578063395093511461027e5780635d147e7a14610291578063619cc4ac146102b157600080fd5b8063068726611461017e57806306fdde03146101a4578063095ea7b3146101b957806311eac855146101dc57806318160ddd146101fc57806323b872dd14610204575b600080fd5b61019161018c366004611327565b6103bb565b6040519081526020015b60405180910390f35b6101ac610443565b60405161019b919061147d565b6101cc6101c73660046113b5565b6104d5565b604051901515815260200161019b565b600b546101ef906001600160a01b031681565b60405161019b9190611450565b600254610191565b6101cc61021236600461137a565b6104ed565b610191610225366004611327565b60056020526000908152604090205481565b61024a6102453660046113fe565b610511565b005b6101cc61025a366004611327565b60066020526000908152604090205460ff1681565b6040516012815260200161019b565b6101cc61028c3660046113b5565b610763565b61019161029f366004611327565b60086020526000908152604090205481565b61024a6102bf3660046113fe565b610785565b6101916102d2366004611327565b6001600160a01b031660009081526020819052604090205490565b6101ac6107b5565b610191610843565b600a546101ef906001600160a01b031681565b6101ac610873565b610191610326366004611327565b610882565b6101cc6103393660046113b5565b6108b1565b61024a61034c3660046113fe565b610931565b6101cc61035f3660046113b5565b610b3d565b610191600c5481565b61024a61037b36600461142e565b610b4b565b61019161038e366004611348565b610c9e565b61024a610cc9565b6101916103a9366004611327565b60076020526000908152604090205481565b6000806103c783610882565b6103d990670de0b6b3a7640000611508565b90506000600c546301e133806103ef9190611508565b905060006103fd82846114e8565b6001600160a01b03861660009081526005602052604081205491925090670de0b6b3a76400009061042f908490611508565b61043991906114e8565b9695505050505050565b6060600380546104529061153e565b80601f016020809104026020016040519081016040528092919081815260200182805461047e9061153e565b80156104cb5780601f106104a0576101008083540402835291602001916104cb565b820191906000526020600020905b8154815290600101906020018083116104ae57829003601f168201915b5050505050905090565b6000336104e3818585610e0e565b5060019392505050565b6000336104fb858285610f32565b610506858585610fac565b506001949350505050565b8015801561052d57503360009081526005602052604090205481115b1561054b576040516371b6bc3960e11b815260040160405180910390fd5b6000610556336103bb565b336000908152600760209081526040808320429055600590915281208054919492935082918590610588908490611527565b909155506105989050338261113e565b3360009081526005602052604090205461067f57336000818152600660209081526040808320805460ff19169055600b546008909252909120546001600160a01b039091169163a9059cbb9185906105f090866114d0565b6105fa91906114d0565b6040518363ffffffff1660e01b8152600401610617929190611464565b602060405180830381600087803b15801561063157600080fd5b505af1158015610645573d6000803e3d6000fd5b505050506040513d601f19601f8201168201806040525081019061066991906113de565b5033600090815260086020526040812055610729565b600b5460405163a9059cbb60e01b81526001600160a01b039091169063a9059cbb906106b19033908590600401611464565b602060405180830381600087803b1580156106cb57600080fd5b505af11580156106df573d6000803e3d6000fd5b505050506040513d601f19601f8201168201806040525081019061070391906113de565b5033600090815260086020526040812080548492906107239084906114d0565b90915550505b60405181815233907f85082129d87b2fe11527cb1b3b7a520aeb5aa6913f88a3d8757fe40d1db02fdd9060200160405180910390a2505050565b6000336104e38185856107768383610c9e565b61078091906114d0565b610e0e565b600a546001600160a01b031633146107b05760405163e972117d60e01b815260040160405180910390fd5b600c55565b600980546107c29061153e565b80601f01602080910402602001604051908101604052809291908181526020018280546107ee9061153e565b801561083b5780601f106108105761010080835404028352916020019161083b565b820191906000526020600020905b81548152906001019060200180831161081e57829003601f168201915b505050505081565b60008061084f336103bb565b3360009081526008602052604090205490915061086d9082906114d0565b91505090565b6060600480546104529061153e565b6001600160a01b038116600090815260076020526040812054429082906108a99083611527565b949350505050565b600033816108bf8286610c9e565b9050838110156109245760405162461bcd60e51b815260206004820152602560248201527f45524332303a2064656372656173656420616c6c6f77616e63652062656c6f77604482015264207a65726f60d81b60648201526084015b60405180910390fd5b6105068286868403610e0e565b801580156109bc5750600b546040516370a0823160e01b815282916001600160a01b0316906370a082319061096a903390600401611450565b60206040518083038186803b15801561098257600080fd5b505afa158015610996573d6000803e3d6000fd5b505050506040513d601f19601f820116820180604052508101906109ba9190611416565b105b156109da576040516371b6bc3960e11b815260040160405180910390fd5b3360009081526006602052604090205460ff1615610a285760006109fd336103bb565b33600090815260086020526040812080549293508392909190610a219084906114d0565b9091555050505b610a32338261125e565b600b546040516323b872dd60e01b8152336004820152306024820152604481018390526001600160a01b03909116906323b872dd90606401602060405180830381600087803b158015610a8457600080fd5b505af1158015610a98573d6000803e3d6000fd5b505050506040513d601f19601f82011682018060405250810190610abc91906113de565b503360009081526005602052604081208054839290610adc9084906114d0565b90915550503360008181526007602090815260408083204290556006825291829020805460ff1916600117905590518381527febedb8b3c678666e7f36970bc8f57abf6d8fa2e828c0da91ea5b75bf68ed101a91015b60405180910390a250565b6000336104e3818585610fac565b600a546001600160a01b03163314610b765760405163e972117d60e01b815260040160405180910390fd5b600b546040516370a0823160e01b815283916001600160a01b0316906370a0823190610ba6903090600401611450565b60206040518083038186803b158015610bbe57600080fd5b505afa158015610bd2573d6000803e3d6000fd5b505050506040513d601f19601f82011682018060405250810190610bf69190611416565b1015610c15576040516371b6bc3960e11b815260040160405180910390fd5b600b5460405163a9059cbb60e01b81526001600160a01b039091169063a9059cbb90610c479084908690600401611464565b602060405180830381600087803b158015610c6157600080fd5b505af1158015610c75573d6000803e3d6000fd5b505050506040513d601f19601f82011682018060405250810190610c9991906113de565b505050565b6001600160a01b03918216600090815260016020908152604080832093909416825291909152205490565b6000610cd4336103bb565b9050801580610cf0575033600090815260086020526040902054155b15610d0e576040516371b6bc3960e11b815260040160405180910390fd5b3360009081526008602052604090205415610d45573360009081526008602052604081208054919055610d4181836114d0565b9150505b3360008181526007602052604090819020429055600b54905163a9059cbb60e01b81526001600160a01b039091169163a9059cbb91610d8991908590600401611464565b602060405180830381600087803b158015610da357600080fd5b505af1158015610db7573d6000803e3d6000fd5b505050506040513d601f19601f82011682018060405250810190610ddb91906113de565b5060405181815233907f92044e3943309ee5950e21bc7421d02c1df75f0df33c0d97c1143687b49a4c5790602001610b32565b6001600160a01b038316610e705760405162461bcd60e51b8152602060048201526024808201527f45524332303a20617070726f76652066726f6d20746865207a65726f206164646044820152637265737360e01b606482015260840161091b565b6001600160a01b038216610ed15760405162461bcd60e51b815260206004820152602260248201527f45524332303a20617070726f766520746f20746865207a65726f206164647265604482015261737360f01b606482015260840161091b565b6001600160a01b0383811660008181526001602090815260408083209487168084529482529182902085905590518481527f8c5be1e5ebec7d5bd14f71427d1e84f3dd0314c0f7b2291e5b200ac8c7c3b925910160405180910390a3505050565b6000610f3e8484610c9e565b90506000198114610fa65781811015610f995760405162461bcd60e51b815260206004820152601d60248201527f45524332303a20696e73756666696369656e7420616c6c6f77616e6365000000604482015260640161091b565b610fa68484848403610e0e565b50505050565b6001600160a01b0383166110105760405162461bcd60e51b815260206004820152602560248201527f45524332303a207472616e736665722066726f6d20746865207a65726f206164604482015264647265737360d81b606482015260840161091b565b6001600160a01b0382166110725760405162461bcd60e51b815260206004820152602360248201527f45524332303a207472616e7366657220746f20746865207a65726f206164647260448201526265737360e81b606482015260840161091b565b6001600160a01b038316600090815260208190526040902054818110156110ea5760405162461bcd60e51b815260206004820152602660248201527f45524332303a207472616e7366657220616d6f756e7420657863656564732062604482015265616c616e636560d01b606482015260840161091b565b6001600160a01b0384811660008181526020818152604080832087870390559387168083529184902080548701905592518581529092600080516020611590833981519152910160405180910390a3610fa6565b6001600160a01b03821661119e5760405162461bcd60e51b815260206004820152602160248201527f45524332303a206275726e2066726f6d20746865207a65726f206164647265736044820152607360f81b606482015260840161091b565b6001600160a01b038216600090815260208190526040902054818110156112125760405162461bcd60e51b815260206004820152602260248201527f45524332303a206275726e20616d6f756e7420657863656564732062616c616e604482015261636560f01b606482015260840161091b565b6001600160a01b038316600081815260208181526040808320868603905560028054879003905551858152919291600080516020611590833981519152910160405180910390a3505050565b6001600160a01b0382166112b45760405162461bcd60e51b815260206004820152601f60248201527f45524332303a206d696e7420746f20746865207a65726f206164647265737300604482015260640161091b565b80600260008282546112c691906114d0565b90915550506001600160a01b03821660008181526020818152604080832080548601905551848152600080516020611590833981519152910160405180910390a35050565b80356001600160a01b038116811461132257600080fd5b919050565b600060208284031215611338578081fd5b6113418261130b565b9392505050565b6000806040838503121561135a578081fd5b6113638361130b565b91506113716020840161130b565b90509250929050565b60008060006060848603121561138e578081fd5b6113978461130b565b92506113a56020850161130b565b9150604084013590509250925092565b600080604083850312156113c7578182fd5b6113d08361130b565b946020939093013593505050565b6000602082840312156113ef578081fd5b81518015158114611341578182fd5b60006020828403121561140f578081fd5b5035919050565b600060208284031215611427578081fd5b5051919050565b60008060408385031215611440578182fd5b823591506113716020840161130b565b6001600160a01b0391909116815260200190565b6001600160a01b03929092168252602082015260400190565b6000602080835283518082850152825b818110156114a95785810183015185820160400152820161148d565b818111156114ba5783604083870101525b50601f01601f1916929092016040019392505050565b600082198211156114e3576114e3611579565b500190565b60008261150357634e487b7160e01b81526012600452602481fd5b500490565b600081600019048311821515161561152257611522611579565b500290565b60008282101561153957611539611579565b500390565b600181811c9082168061155257607f821691505b6020821081141561157357634e487b7160e01b600052602260045260246000fd5b50919050565b634e487b7160e01b600052601160045260246000fdfeddf252ad1be2c89b69c2b068fc378daa952ba7f163c4a11628f55a4df523b3efa2646970667358221220769d15d85bb84b98c451a409de1575ca90a42bdf3762db31a824e6835b2c8b1b64736f6c63430008040033",
  "linkReferences": {},
  "deployedLinkReferences": {}
}