{
  "_format": "hh-sol-artifact-1",
  "contractName": "DSMath",
  "sourceName": "contracts/protocol/DSMath.sol",
  "abi": [
    {
      "inputs": [],
      "name": "RAY",
      "outputs": [
        {
          "internalType": "uint256",
          "name": "",
          "type": "uint256"
        }
      ],
      "stateMutability": "view",
      "type": "function"
    }
  ],
  "bytecode": "0x6092610038600b82828239805160001a607314602b57634e487b7160e01b600052600060045260246000fd5b30600052607381538281f3fe730000000000000000000000000000000000000000301460806040526004361060335760003560e01c8063552033c4146038575b600080fd5b604a6b033b2e3c9fd0803ce800000081565b60405190815260200160405180910390f3fea26469706673582212207915d0d171a1526613309ed6567130e6715061bf7ebb7c5aeea515ce5c00f6f664736f6c63430008040033",
  "linkReferences": {},
  "deployedLinkReferences": {}
}