{
  "_format": "hh-sol-artifact-1",
  "contractName": "SeniorPool",
  "sourceName": "contracts/protocol/SeniorPool.sol",
  "abi": [
    {
      "anonymous": false,
      "inputs": [
        {
          "indexed": false,
          "internalType": "address",
          "name": "previousAdmin",
          "type": "address"
        },
        {
          "indexed": false,
          "internalType": "address",
          "name": "newAdmin",
          "type": "address"
        }
      ],
      "name": "AdminChanged",
      "type": "event"
    },
    {
      "anonymous": false,
      "inputs": [
        {
          "indexed": true,
          "internalType": "address",
          "name": "beacon",
          "type": "address"
        }
      ],
      "name": "BeaconUpgraded",
      "type": "event"
    },
    {
      "anonymous": false,
      "inputs": [
        {
          "indexed": false,
          "internalType": "uint8",
          "name": "version",
          "type": "uint8"
        }
      ],
      "name": "Initialized",
      "type": "event"
    },
    {
      "anonymous": false,
      "inputs": [
        {
          "indexed": false,
          "internalType": "address",
          "name": "account",
          "type": "address"
        }
      ],
      "name": "Paused",
      "type": "event"
    },
    {
      "anonymous": false,
      "inputs": [
        {
          "indexed": true,
          "internalType": "bytes32",
          "name": "role",
          "type": "bytes32"
        },
        {
          "indexed": true,
          "internalType": "bytes32",
          "name": "previousAdminRole",
          "type": "bytes32"
        },
        {
          "indexed": true,
          "internalType": "bytes32",
          "name": "newAdminRole",
          "type": "bytes32"
        }
      ],
      "name": "RoleAdminChanged",
      "type": "event"
    },
    {
      "anonymous": false,
      "inputs": [
        {
          "indexed": true,
          "internalType": "bytes32",
          "name": "role",
          "type": "bytes32"
        },
        {
          "indexed": true,
          "internalType": "address",
          "name": "account",
          "type": "address"
        },
        {
          "indexed": true,
          "internalType": "address",
          "name": "sender",
          "type": "address"
        }
      ],
      "name": "RoleGranted",
      "type": "event"
    },
    {
      "anonymous": false,
      "inputs": [
        {
          "indexed": true,
          "internalType": "bytes32",
          "name": "role",
          "type": "bytes32"
        },
        {
          "indexed": true,
          "internalType": "address",
          "name": "account",
          "type": "address"
        },
        {
          "indexed": true,
          "internalType": "address",
          "name": "sender",
          "type": "address"
        }
      ],
      "name": "RoleRevoked",
      "type": "event"
    },
    {
      "anonymous": false,
      "inputs": [
        {
          "indexed": true,
          "internalType": "address",
          "name": "from",
          "type": "address"
        },
        {
          "indexed": false,
          "internalType": "uint256",
          "name": "amount",
          "type": "uint256"
        }
      ],
      "name": "Stake",
      "type": "event"
    },
    {
      "anonymous": false,
      "inputs": [
        {
          "indexed": false,
          "internalType": "address",
          "name": "account",
          "type": "address"
        }
      ],
      "name": "Unpaused",
      "type": "event"
    },
    {
      "anonymous": false,
      "inputs": [
        {
          "indexed": true,
          "internalType": "address",
          "name": "from",
          "type": "address"
        },
        {
          "indexed": false,
          "internalType": "uint256",
          "name": "amount",
          "type": "uint256"
        }
      ],
      "name": "Unstake",
      "type": "event"
    },
    {
      "anonymous": false,
      "inputs": [
        {
          "indexed": true,
          "internalType": "address",
          "name": "implementation",
          "type": "address"
        }
      ],
      "name": "Upgraded",
      "type": "event"
    },
    {
      "anonymous": false,
      "inputs": [
        {
          "indexed": true,
          "internalType": "address",
          "name": "to",
          "type": "address"
        },
        {
          "indexed": false,
          "internalType": "uint256",
          "name": "amount",
          "type": "uint256"
        }
      ],
      "name": "YieldWithdraw",
      "type": "event"
    },
    {
      "inputs": [],
      "name": "DEFAULT_ADMIN_ROLE",
      "outputs": [
        {
          "internalType": "bytes32",
          "name": "",
          "type": "bytes32"
        }
      ],
      "stateMutability": "view",
      "type": "function"
    },
    {
      "inputs": [
        {
          "internalType": "address",
          "name": "owner",
          "type": "address"
        }
      ],
      "name": "_BaseUpgradeablePausable_init",
      "outputs": [],
      "stateMutability": "nonpayable",
      "type": "function"
    },
    {
      "inputs": [],
      "name": "__PauserPausable__init",
      "outputs": [],
      "stateMutability": "nonpayable",
      "type": "function"
    },
    {
      "inputs": [
        {
          "internalType": "address",
          "name": "user",
          "type": "address"
        }
      ],
      "name": "approveUSDC",
      "outputs": [],
      "stateMutability": "nonpayable",
      "type": "function"
    },
    {
      "inputs": [],
      "name": "getDefaultLockInMonths",
      "outputs": [
        {
          "internalType": "uint256",
          "name": "",
          "type": "uint256"
        }
      ],
      "stateMutability": "view",
      "type": "function"
    },
    {
      "inputs": [
        {
          "internalType": "bytes32",
          "name": "role",
          "type": "bytes32"
        }
      ],
      "name": "getRoleAdmin",
      "outputs": [
        {
          "internalType": "bytes32",
          "name": "",
          "type": "bytes32"
        }
      ],
      "stateMutability": "view",
      "type": "function"
    },
    {
      "inputs": [],
      "name": "getUserInvestment",
      "outputs": [
        {
          "internalType": "uint256",
          "name": "withdrawableAmount",
          "type": "uint256"
        },
        {
          "internalType": "uint256",
          "name": "stakingAmount",
          "type": "uint256"
        }
      ],
      "stateMutability": "view",
      "type": "function"
    },
    {
      "inputs": [
        {
          "internalType": "bytes32",
          "name": "role",
          "type": "bytes32"
        },
        {
          "internalType": "address",
          "name": "account",
          "type": "address"
        }
      ],
      "name": "grantRole",
      "outputs": [],
      "stateMutability": "nonpayable",
      "type": "function"
    },
    {
      "inputs": [
        {
          "internalType": "bytes32",
          "name": "role",
          "type": "bytes32"
        },
        {
          "internalType": "address",
          "name": "account",
          "type": "address"
        }
      ],
      "name": "hasRole",
      "outputs": [
        {
          "internalType": "bool",
          "name": "",
          "type": "bool"
        }
      ],
      "stateMutability": "view",
      "type": "function"
    },
    {
      "inputs": [
        {
          "internalType": "contract ReignConfig",
          "name": "_reignConfig",
          "type": "address"
        }
      ],
      "name": "initialize",
      "outputs": [],
      "stateMutability": "nonpayable",
      "type": "function"
    },
    {
      "inputs": [
        {
          "internalType": "bytes32",
          "name": "opportunityId",
          "type": "bytes32"
        }
      ],
      "name": "invest",
      "outputs": [],
      "stateMutability": "nonpayable",
      "type": "function"
    },
    {
      "inputs": [],
      "name": "isAdmin",
      "outputs": [
        {
          "internalType": "bool",
          "name": "",
          "type": "bool"
        }
      ],
      "stateMutability": "view",
      "type": "function"
    },
    {
      "inputs": [],
      "name": "pause",
      "outputs": [],
      "stateMutability": "nonpayable",
      "type": "function"
    },
    {
      "inputs": [],
      "name": "paused",
      "outputs": [
        {
          "internalType": "bool",
          "name": "",
          "type": "bool"
        }
      ],
      "stateMutability": "view",
      "type": "function"
    },
    {
      "inputs": [],
      "name": "proxiableUUID",
      "outputs": [
        {
          "internalType": "bytes32",
          "name": "",
          "type": "bytes32"
        }
      ],
      "stateMutability": "view",
      "type": "function"
    },
    {
      "inputs": [
        {
          "internalType": "bytes32",
          "name": "role",
          "type": "bytes32"
        },
        {
          "internalType": "address",
          "name": "account",
          "type": "address"
        }
      ],
      "name": "renounceRole",
      "outputs": [],
      "stateMutability": "nonpayable",
      "type": "function"
    },
    {
      "inputs": [
        {
          "internalType": "bytes32",
          "name": "role",
          "type": "bytes32"
        },
        {
          "internalType": "address",
          "name": "account",
          "type": "address"
        }
      ],
      "name": "revokeRole",
      "outputs": [],
      "stateMutability": "nonpayable",
      "type": "function"
    },
    {
      "inputs": [],
      "name": "s_contractName",
      "outputs": [
        {
          "internalType": "string",
          "name": "",
          "type": "string"
        }
      ],
      "stateMutability": "view",
      "type": "function"
    },
    {
      "inputs": [],
      "name": "s_investmentLockInMonths",
      "outputs": [
        {
          "internalType": "uint256",
          "name": "",
          "type": "uint256"
        }
      ],
      "stateMutability": "view",
      "type": "function"
    },
    {
      "inputs": [
        {
          "internalType": "address",
          "name": "",
          "type": "address"
        }
      ],
      "name": "s_isStaking",
      "outputs": [
        {
          "internalType": "bool",
          "name": "",
          "type": "bool"
        }
      ],
      "stateMutability": "view",
      "type": "function"
    },
    {
      "inputs": [],
      "name": "s_seniorPoolBalance",
      "outputs": [
        {
          "internalType": "uint256",
          "name": "",
          "type": "uint256"
        }
      ],
      "stateMutability": "view",
      "type": "function"
    },
    {
      "inputs": [],
      "name": "s_sharePrice",
      "outputs": [
        {
          "internalType": "uint256",
          "name": "",
          "type": "uint256"
        }
      ],
      "stateMutability": "view",
      "type": "function"
    },
    {
      "inputs": [
        {
          "internalType": "uint256",
          "name": "amount",
          "type": "uint256"
        }
      ],
      "name": "stake",
      "outputs": [],
      "stateMutability": "nonpayable",
      "type": "function"
    },
    {
      "inputs": [
        {
          "internalType": "bytes4",
          "name": "interfaceId",
          "type": "bytes4"
        }
      ],
      "name": "supportsInterface",
      "outputs": [
        {
          "internalType": "bool",
          "name": "",
          "type": "bool"
        }
      ],
      "stateMutability": "view",
      "type": "function"
    },
    {
      "inputs": [],
      "name": "unpause",
      "outputs": [],
      "stateMutability": "nonpayable",
      "type": "function"
    },
    {
      "inputs": [
        {
          "internalType": "address",
          "name": "newImplementation",
          "type": "address"
        }
      ],
      "name": "upgradeTo",
      "outputs": [],
      "stateMutability": "nonpayable",
      "type": "function"
    },
    {
      "inputs": [
        {
          "internalType": "address",
          "name": "newImplementation",
          "type": "address"
        },
        {
          "internalType": "bytes",
          "name": "data",
          "type": "bytes"
        }
      ],
      "name": "upgradeToAndCall",
      "outputs": [],
      "stateMutability": "payable",
      "type": "function"
    },
    {
      "inputs": [
        {
          "internalType": "bool",
          "name": "_isWriteOff",
          "type": "bool"
        },
        {
          "internalType": "bytes32",
          "name": "opportunityId",
          "type": "bytes32"
        },
        {
          "internalType": "uint256",
          "name": "amount",
          "type": "uint256"
        }
      ],
      "name": "withdrawFromOpportunity",
      "outputs": [],
      "stateMutability": "nonpayable",
      "type": "function"
    },
    {
      "inputs": [
        {
          "internalType": "uint256",
          "name": "amount",
          "type": "uint256"
        },
        {
          "internalType": "address",
          "name": "_receiver",
          "type": "address"
        }
      ],
      "name": "withdrawTo",
      "outputs": [],
      "stateMutability": "nonpayable",
      "type": "function"
    },
    {
      "inputs": [
        {
          "internalType": "uint256",
          "name": "amount",
          "type": "uint256"
        }
      ],
      "name": "withdrawWithLP",
      "outputs": [],
      "stateMutability": "nonpayable",
      "type": "function"
    }
  ],
  "bytecode": "0x3060601b60805260e0604052600a60a08190526914d95b9a5bdc941bdbdb60b21b60c0908152620000359161016691906200004a565b503480156200004357600080fd5b506200012d565b8280546200005890620000f0565b90600052602060002090601f0160209004810192826200007c5760008555620000c7565b82601f106200009757805160ff1916838001178555620000c7565b82800160010185558215620000c7579182015b82811115620000c7578251825591602001919060010190620000aa565b50620000d5929150620000d9565b5090565b5b80821115620000d55760008155600101620000da565b600181811c908216806200010557607f821691505b602082108114156200012757634e487b7160e01b600052602260045260246000fd5b50919050565b60805160601c61345c6200016860003960008181610a8201528181610ac201528181610b8201528181610bc20152610d03015261345c6000f3fe60806040526004361061018d5760003560e01c80638456cb59116100d7578063b6db75a011610085578063b6db75a014610444578063bc43d09014610459578063c25760041461047b578063c4d66de81461049b578063c86283c8146104bb578063cb5fa786146104db578063cbda8a43146104f2578063d547741f1461050857600080fd5b80638456cb591461038357806391d1485414610398578063a12dde4d146103b8578063a217fddf146103d8578063a694fc3a146103ed578063a972f0a01461040d578063af8b0ad91461042d57600080fd5b806336568abe1161013f57806336568abe146102af5780633659cfe6146102cf5780633f4ba83a146102ef5780634f1ef28614610304578063526d81f61461031757806352d1902d1461032c5780635c975abb1461034157806361c030ab1461035957600080fd5b806301ffc9a714610192578063069cca1e146101c7578063100885fe146101e957806323fe5e5a1461020e578063248a9ca31461022e5780632f2ff15d1461025e5780632f3a54631461027e575b600080fd5b34801561019e57600080fd5b506101b26101ad366004612e4d565b610528565b60405190151581526020015b60405180910390f35b3480156101d357600080fd5b506101e76101e2366004612dba565b61055f565b005b3480156101f557600080fd5b5061020061016b5481565b6040519081526020016101be565b34801561021a57600080fd5b506101e7610229366004612ca7565b610924565b34801561023a57600080fd5b50610200610249366004612dee565b60009081526065602052604090206001015490565b34801561026a57600080fd5b506101e7610279366004612e1e565b6109d3565b34801561028a57600080fd5b506101b2610299366004612ca7565b6101636020526000908152604090205460ff1681565b3480156102bb57600080fd5b506101e76102ca366004612e1e565b6109fd565b3480156102db57600080fd5b506101e76102ea366004612ca7565b610a77565b3480156102fb57600080fd5b506101e7610b40565b6101e7610312366004612cdf565b610b77565b34801561032357600080fd5b506101e7610c2d565b34801561033857600080fd5b50610200610cf6565b34801561034d57600080fd5b5060975460ff166101b2565b34801561036557600080fd5b5061036e610da4565b604080519283526020830191909152016101be565b34801561038f57600080fd5b506101e7610f9d565b3480156103a457600080fd5b506101b26103b3366004612e1e565b610fcc565b3480156103c457600080fd5b506101e76103d3366004612ca7565b610ff7565b3480156103e457600080fd5b50610200600081565b3480156103f957600080fd5b506101e7610408366004612dee565b6110cb565b34801561041957600080fd5b506101e7610428366004612dee565b61130c565b34801561043957600080fd5b5061020061016a5481565b34801561045057600080fd5b506101b26117a8565b34801561046557600080fd5b5061046e6117ba565b6040516101be9190612f2d565b34801561048757600080fd5b506101e7610496366004612dee565b611849565b3480156104a757600080fd5b506101e76104b6366004612ca7565b611b15565b3480156104c757600080fd5b506101e76104d6366004612e1e565b611d9b565b3480156104e757600080fd5b506102006101695481565b3480156104fe57600080fd5b5061016954610200565b34801561051457600080fd5b506101e7610523366004612e1e565b611f06565b60006001600160e01b03198216637965db0b60e01b148061055957506301ffc9a760e01b6001600160e01b03198316145b92915050565b61016054604051638176715560e01b8152600481018490526001600160a01b039091169063817671559060240160206040518083038186803b1580156105a457600080fd5b505afa1580156105b8573d6000803e3d6000fd5b505050506040513d601f19601f820116820180604052508101906105dc9190612d9e565b1515600114806105ee57506001831515145b61064d5760405162461bcd60e51b815260206004820152602560248201527f53656e696f72506f6f6c3a206f70706f7274756e697479206973206e6f742072604482015264195c185a5960da1b60648201526084015b60405180910390fd5b61016054604051637e4dc6d560e01b8152600481018490526000916001600160a01b031690637e4dc6d59060240160206040518083038186803b15801561069357600080fd5b505afa1580156106a7573d6000803e3d6000fd5b505050506040513d601f19601f820116820180604052508101906106cb9190612cc3565b905080336001600160a01b038216146107395760405162461bcd60e51b815260206004820152602a60248201527f53656e696f72506f6f6c3a2063616c6c6572206973206e6f74206f70706f72746044820152691d5b9a5d1e481c1bdbdb60b21b6064820152608401610644565b60006001861515141561074d5750826107c1565b816001600160a01b031663d661d3206040518163ffffffff1660e01b815260040160206040518083038186803b15801561078657600080fd5b505afa15801561079a573d6000803e3d6000fd5b505050506040513d601f19601f820116820180604052508101906107be9190612e06565b90505b6101685460408051633a98ef3960e01b815290516000926001600160a01b031691633a98ef39916004808301926020929190829003018186803b15801561080757600080fd5b505afa15801561081b573d6000803e3d6000fd5b505050506040513d601f19601f8201168201806040525081019061083f9190612e06565b9050600061085f82610859610852611f2b565b8690611f39565b90611f4c565b61016b549091506108709082611f58565b61016b5587610907576000846001600160a01b0316637101fd166040518163ffffffff1660e01b815260040160206040518083038186803b1580156108b457600080fd5b505afa1580156108c8573d6000803e3d6000fd5b505050506040513d601f19601f820116820180604052508101906108ec9190612e06565b61016a549091506108fd9082611f58565b61016a555061091a565b61016a546109159087611f58565b61016a555b5050505050505050565b61092c6117a8565b6109485760405162461bcd60e51b815260040161064490613153565b6101675460405163095ea7b360e01b81526001600160a01b039091169063095ea7b39061097d90849060001990600401612f14565b602060405180830381600087803b15801561099757600080fd5b505af11580156109ab573d6000803e3d6000fd5b505050506040513d601f19601f820116820180604052508101906109cf9190612d9e565b5050565b6000828152606560205260409020600101546109ee81611f64565b6109f88383611f6e565b505050565b6001600160a01b0381163314610a6d5760405162461bcd60e51b815260206004820152602f60248201527f416363657373436f6e74726f6c3a2063616e206f6e6c792072656e6f756e636560448201526e103937b632b9903337b91039b2b63360891b6064820152608401610644565b6109cf8282611ff4565b306001600160a01b037f0000000000000000000000000000000000000000000000000000000000000000161415610ac05760405162461bcd60e51b815260040161064490612f60565b7f00000000000000000000000000000000000000000000000000000000000000006001600160a01b0316610af261205b565b6001600160a01b031614610b185760405162461bcd60e51b815260040161064490612ff1565b610b2181612077565b60408051600080825260208201909252610b3d9183919061209b565b50565b610b51610b4b612215565b33610fcc565b610b6d5760405162461bcd60e51b81526004016106449061310d565b610b75612239565b565b306001600160a01b037f0000000000000000000000000000000000000000000000000000000000000000161415610bc05760405162461bcd60e51b815260040161064490612f60565b7f00000000000000000000000000000000000000000000000000000000000000006001600160a01b0316610bf261205b565b6001600160a01b031614610c185760405162461bcd60e51b815260040161064490612ff1565b610c2182612077565b6109cf8282600161209b565b600054610100900460ff1615808015610c4d5750600054600160ff909116105b80610c675750303b158015610c67575060005460ff166001145b610c835760405162461bcd60e51b81526004016106449061303d565b6000805460ff191660011790558015610ca6576000805461ff0019166101001790555b610cae612285565b8015610b3d576000805461ff0019169055604051600181527f7f26b83ff96e1f2b6a682f133852f6798a09c465da95921460cefb38474024989060200160405180910390a150565b6000306001600160a01b037f00000000000000000000000000000000000000000000000000000000000000001614610d915760405162461bcd60e51b815260206004820152603860248201527f555550535570677261646561626c653a206d757374206e6f742062652063616c6044820152771b1959081d1a1c9bdd59da0819195b1959d85d1958d85b1b60421b6064820152608401610644565b506000805160206133e083398151915290565b3360009081526101636020526040812054819060ff161515600114610ddb5760405162461bcd60e51b81526004016106449061308b565b6000806000610de86122b8565b61016954610df691906132c1565b3360009081526101616020908152604080832080548251818502810185019093528083529495509293909291849084015b82821015610e6d57838290600052602060002090600202016040518060400160405290816000820154815260200160018201548152505081526020019060010190610e27565b50505050905060005b8151811015610f5b5742610ebe84848481518110610ea457634e487b7160e01b600052603260045260246000fd5b602002602001015160000151611f5890919063ffffffff16565b11610f0857610f01828281518110610ee657634e487b7160e01b600052603260045260246000fd5b60200260200101516020015185611f5890919063ffffffff16565b9350610f49565b610f46828281518110610f2b57634e487b7160e01b600052603260045260246000fd5b60200260200101516020015186611f5890919063ffffffff16565b94505b80610f5381613375565b915050610e76565b50336000908152610162602052604090205415610f91573360009081526101626020526040902054610f8e908490611f58565b92505b50909491935090915050565b610fa8610b4b612215565b610fc45760405162461bcd60e51b81526004016106449061310d565b610b756122c8565b60009182526065602090815260408084206001600160a01b0393909316845291905290205460ff1690565b600054610100900460ff1661101e5760405162461bcd60e51b8152600401610644906130c2565b6001600160a01b0381166110745760405162461bcd60e51b815260206004820181905260248201527f4f776e65722063616e6e6f7420626520746865207a65726f20616464726573736044820152606401610644565b61107c612305565b611084612285565b61108c61232c565b61109d61109761235a565b82611f6e565b6110a8611097612215565b6110c06110b3612215565b6110bb61235a565b61237e565b610b3d6110b361235a565b60008111801561115a5750610167546040516370a0823160e01b815282916001600160a01b0316906370a0823190611107903390600401612f00565b60206040518083038186803b15801561111f57600080fd5b505afa158015611133573d6000803e3d6000fd5b505050506040513d601f19601f820116820180604052508101906111579190612e06565b10155b6111765760405162461bcd60e51b815260040161064490612fac565b33600081815261016160209081526040808320815180830183524281528084018781528254600181810185559387528587209251600290910290920191825551908201559383526101639091529020805460ff1916909117905561016a546111de9082611f58565b61016a55610167546040516323b872dd60e01b8152336004820152306024820152604481018390526001600160a01b03909116906323b872dd90606401602060405180830381600087803b15801561123557600080fd5b505af1158015611249573d6000803e3d6000fd5b505050506040513d601f19601f8201168201806040525081019061126d9190612d9e565b50610168546040516340c10f1960e01b815233916001600160a01b0316906340c10f19906112a19084908690600401612f14565b600060405180830381600087803b1580156112bb57600080fd5b505af11580156112cf573d6000803e3d6000fd5b50506040518481523392507febedb8b3c678666e7f36970bc8f57abf6d8fa2e828c0da91ea5b75bf68ed101a915060200160405180910390a25050565b336000908152610163602052604090205460ff16151560011480156113315750600081115b6113975760405162461bcd60e51b815260206004820152603160248201527f53656e696f72506f6f6c3a20696e76616c696420616d6f756e74206f722075736044820152706572206973206e6f74207374616b696e6760781b6064820152608401610644565b6000806113a26122b8565b610169546113b091906132c1565b336000908152610161602052604081209192505b81548110156115045742611409848484815481106113f257634e487b7160e01b600052603260045260246000fd5b600091825260209091206002909102015490611f58565b116114ab5761145d82828154811061143157634e487b7160e01b600052603260045260246000fd5b600091825260208083206001600290930201919091015433835261016290915260409091205490611f58565b3360009081526101626020526040902055815482908290811061149057634e487b7160e01b600052603260045260246000fd5b600091825260208220600290910201818155600101556114f2565b6114ef8282815481106114ce57634e487b7160e01b600052603260045260246000fd5b90600052602060002090600202016001015485611f5890919063ffffffff16565b93505b806114fc81613375565b9150506113c4565b50336000908152610162602052604090205461152085826123c9565b9450808511156115875760405162461bcd60e51b815260206004820152602c60248201527f53656e696f72506f6f6c3a20696e73756666696369656e74207769746864726160448201526b1dd8589b1948185b5bdd5b9d60a21b6064820152608401610644565b33600090815261016260205260409020546115a290866123fc565b33600090815261016260205260409020556115bb612408565b1580156115d657503360009081526101626020526040902054155b156115f45733600090815261016360205260409020805460ff191690555b60006115ff8661251a565b61016a5490915061161090826123fc565b61016a55600061162887611622612540565b906123fc565b9050611632611f2b565b61016a541080611640575080155b1561165057600061016b5561167f565b61016a5460009061166190836123fc565b905061167982610859611672611f2b565b8490611f39565b61016b55505b61016854604051632770a7eb60e21b81526001600160a01b0390911690639dc29fac906116b29033908b90600401612f14565b600060405180830381600087803b1580156116cc57600080fd5b505af11580156116e0573d6000803e3d6000fd5b50506101675460405163a9059cbb60e01b81526001600160a01b03909116925063a9059cbb91506117179033908690600401612f14565b602060405180830381600087803b15801561173157600080fd5b505af1158015611745573d6000803e3d6000fd5b505050506040513d601f19601f820116820180604052508101906117699190612d9e565b5060405187815233907f85082129d87b2fe11527cb1b3b7a520aeb5aa6913f88a3d8757fe40d1db02fdd9060200160405180910390a250505050505050565b60006117b5610b4b61235a565b905090565b61016680546117c89061333a565b80601f01602080910402602001604051908101604052809291908181526020018280546117f49061333a565b80156118415780601f1061181657610100808354040283529160200191611841565b820191906000526020600020905b81548152906001019060200180831161182457829003601f168201915b505050505081565b6118516117a8565b61186d5760405162461bcd60e51b815260040161064490613153565b6101605460405163170da40760e21b8152600481018390526001600160a01b0390911690635c36901c9060240160206040518083038186803b1580156118b257600080fd5b505afa1580156118c6573d6000803e3d6000fd5b505050506040513d601f19601f820116820180604052508101906118ea9190612d9e565b6119445760405162461bcd60e51b815260206004820152602560248201527f53656e696f72506f6f6c3a206f70706f7274756e697479206973206e6f742061604482015264637469766560d81b6064820152608401610644565b61016054604051637e4dc6d560e01b8152600481018390526000916001600160a01b031690637e4dc6d59060240160206040518083038186803b15801561198a57600080fd5b505afa15801561199e573d6000803e3d6000fd5b505050506040513d601f19601f820116820180604052508101906119c29190612cc3565b905060008190506000816001600160a01b0316639f964fe66040518163ffffffff1660e01b815260040160206040518083038186803b158015611a0457600080fd5b505afa158015611a18573d6000803e3d6000fd5b505050506040513d601f19601f82011682018060405250810190611a3c9190612e06565b90508061016a541015611aa65760405162461bcd60e51b815260206004820152602c60248201527f53656e696f72506f6f6c3a20696e73756666696369656e742073656e696f722060448201526b706f6f6c2062616c616e636560a01b6064820152608401610644565b61016a54611ab490826123fc565b61016a5560405163f4d4c9d760e01b815260016004820152602481018290526001600160a01b0383169063f4d4c9d790604401600060405180830381600087803b158015611b0157600080fd5b505af115801561091a573d6000803e3d6000fd5b600054610100900460ff1615808015611b355750600054600160ff909116105b80611b4f5750303b158015611b4f575060005460ff166001145b611b6b5760405162461bcd60e51b81526004016106449061303d565b6000805460ff191660011790558015611b8e576000805461ff0019166101001790555b6001600160a01b038216611bfb5760405162461bcd60e51b815260206004820152602e60248201527f53656e696f72506f6f6c3a20726569676e436f6e6669672063616e6e6f74206260448201526d65207a65726f206164647265737360901b6064820152608401610644565b61015f80546001600160a01b0319166001600160a01b038416908117909155600090611c2690612641565b90506001600160a01b038116611c9b5760405162461bcd60e51b815260206004820152603460248201527f53656e696f72506f6f6c3a20726569676e41646d696e416464726573732063616044820152736e6e6f74206265207a65726f206164647265737360601b6064820152608401610644565b61015f54611cb1906001600160a01b03166126c2565b61016080546001600160a01b0319166001600160a01b0392909216919091179055611cdb81610ff7565b61015f54611cf1906001600160a01b03166126da565b61016780546001600160a01b0319166001600160a01b0392831617905561015f54611d1c91166126f2565b61016880546001600160a01b0319166001600160a01b0392831617905561015f54611d47911661270a565b6101695550600061016b5580156109cf576000805461ff0019169055604051600181527f7f26b83ff96e1f2b6a682f133852f6798a09c465da95921460cefb38474024989060200160405180910390a15050565b611da36117a8565b611dbf5760405162461bcd60e51b815260040161064490613153565b600082118015611e4e5750610167546040516370a0823160e01b815283916001600160a01b0316906370a0823190611dfb903090600401612f00565b60206040518083038186803b158015611e1357600080fd5b505afa158015611e27573d6000803e3d6000fd5b505050506040513d601f19601f82011682018060405250810190611e4b9190612e06565b10155b611e6a5760405162461bcd60e51b815260040161064490612fac565b6101675460405163a9059cbb60e01b81526001600160a01b039091169063a9059cbb90611e9d9084908690600401612f14565b602060405180830381600087803b158015611eb757600080fd5b505af1158015611ecb573d6000803e3d6000fd5b505050506040513d601f19601f82011682018060405250810190611eef9190612d9e565b5061016a54611efe90836123fc565b61016a555050565b600082815260656020526040902060010154611f2181611f64565b6109f88383611ff4565b60006117b56006600a613219565b6000611f4582846132c1565b9392505050565b6000611f4582846131b6565b6000611f45828461319e565b610b3d8133612784565b611f788282610fcc565b6109cf5760008281526065602090815260408083206001600160a01b03851684529091529020805460ff19166001179055611fb03390565b6001600160a01b0316816001600160a01b0316837f2f8788117e7eff1d82e926ec794901d17c78024a50270940304540a733656f0d60405160405180910390a45050565b611ffe8282610fcc565b156109cf5760008281526065602090815260408083206001600160a01b0385168085529252808320805460ff1916905551339285917ff6391f5c32d9c69d2a47ea670b442974b53935d1edc7fd64eb21e047a839171b9190a45050565b6000805160206133e0833981519152546001600160a01b031690565b61207f6117a8565b610b3d5760405162461bcd60e51b815260040161064490613153565b7f4910fdfa16fed3260ed0e7147f7cc6da11a60208b5b9406d12a635614ffd91435460ff16156120ce576109f8836127dd565b826001600160a01b03166352d1902d6040518163ffffffff1660e01b815260040160206040518083038186803b15801561210757600080fd5b505afa925050508015612137575060408051601f3d908101601f1916820190925261213491810190612e06565b60015b61219a5760405162461bcd60e51b815260206004820152602e60248201527f45524331393637557067726164653a206e657720696d706c656d656e7461746960448201526d6f6e206973206e6f74205555505360901b6064820152608401610644565b6000805160206133e083398151915281146122095760405162461bcd60e51b815260206004820152602960248201527f45524331393637557067726164653a20756e737570706f727465642070726f786044820152681a58589b195555525160ba1b6064820152608401610644565b506109f8838383612879565b7f65d7a28e3265b37a6474929f336521b332c1681b933f6cb9f3376673440d862a90565b6122416128a4565b6097805460ff191690557f5db9ee0a495bf2e6ff9c91a7834c1ba4fdd244a5e8aa4e537bd38aeae4b073aa335b60405161227b9190612f00565b60405180910390a1565b600054610100900460ff166122ac5760405162461bcd60e51b8152600401610644906130c2565b6097805460ff19169055565b60006117b562015180601e6132c1565b6122d06128ed565b6097805460ff191660011790557f62e78cea01bee320cd4e420270b5ea74000d11b0c9f74754ebdbfc544b05a25861226e3390565b600054610100900460ff16610b755760405162461bcd60e51b8152600401610644906130c2565b600054610100900460ff166123535760405162461bcd60e51b8152600401610644906130c2565b600160c955565b7fa49807205ce4d355092ef5a8a18f56e8913cf4a201fbe287825b095693c2177590565b600082815260656020526040808220600101805490849055905190918391839186917fbd79b86ffe0ab8e8776151514217cd7cacd52c909f66475c3af44e129f0b00ff9190a4505050565b600081831180156123e957506123dd611f2b565b6123e783856132e0565b105b156123f5575080610559565b5090919050565b6000611f4582846132e0565b336000908152610163602052604081205460ff16151560011461243d5760405162461bcd60e51b81526004016106449061308b565b3360009081526101616020908152604080832080548251818502810185019093528083528493849084015b828210156124ae57838290600052602060002090600202016040518060400160405290816000820154815260200160018201548152505081526020019060010190612468565b50505050905060005b8151811015612512576124fe8282815181106124e357634e487b7160e01b600052603260045260246000fd5b60200260200101516020015184611f5890919063ffffffff16565b92508061250a81613375565b9150506124b7565b509092915050565b600061055961253961252a611f2b565b61016b54610859908690611f39565b8390611f58565b610168546000906001600160a01b03166125ba5760405162461bcd60e51b815260206004820152603560248201527f53656e696f72506f6f6c3a20726569676e546f6b656e20616464726573732063604482015274616e6e6f74206265207a65726f206164647265737360581b6064820152608401610644565b61016860009054906101000a90046001600160a01b03166001600160a01b0316633a98ef396040518163ffffffff1660e01b815260040160206040518083038186803b15801561260957600080fd5b505afa15801561261d573d6000803e3d6000fd5b505050506040513d601f19601f820116820180604052508101906117b59190612e06565b60006001600160a01b03821663b93f9b0a825b6040518263ffffffff1660e01b815260040161267291815260200190565b60206040518083038186803b15801561268a57600080fd5b505afa15801561269e573d6000803e3d6000fd5b505050506040513d601f19601f820116820180604052508101906105599190612cc3565b60006001600160a01b03821663b93f9b0a6006612654565b60006001600160a01b03821663b93f9b0a6002612654565b60006001600160a01b03821663b93f9b0a6001612654565b604051631f8ac6cb60e31b81526004818101526000906001600160a01b0383169063fc5636589060240160206040518083038186803b15801561274c57600080fd5b505afa158015612760573d6000803e3d6000fd5b505050506040513d601f19601f820116820180604052508101906105599190612e06565b61278e8282610fcc565b6109cf5761279b81612933565b6127a6836020612945565b6040516020016127b7929190612e91565b60408051601f198184030181529082905262461bcd60e51b825261064491600401612f2d565b6001600160a01b0381163b61284a5760405162461bcd60e51b815260206004820152602d60248201527f455243313936373a206e657720696d706c656d656e746174696f6e206973206e60448201526c1bdd08184818dbdb9d1c9858dd609a1b6064820152608401610644565b6000805160206133e083398151915280546001600160a01b0319166001600160a01b0392909216919091179055565b61288283612b27565b60008251118061288f5750805b156109f85761289e8383612b67565b50505050565b60975460ff16610b755760405162461bcd60e51b815260206004820152601460248201527314185d5cd8589b194e881b9bdd081c185d5cd95960621b6044820152606401610644565b60975460ff1615610b755760405162461bcd60e51b815260206004820152601060248201526f14185d5cd8589b194e881c185d5cd95960821b6044820152606401610644565b60606105596001600160a01b03831660145b606060006129548360026132c1565b61295f90600261319e565b67ffffffffffffffff81111561298557634e487b7160e01b600052604160045260246000fd5b6040519080825280601f01601f1916602001820160405280156129af576020820181803683370190505b509050600360fc1b816000815181106129d857634e487b7160e01b600052603260045260246000fd5b60200101906001600160f81b031916908160001a905350600f60fb1b81600181518110612a1557634e487b7160e01b600052603260045260246000fd5b60200101906001600160f81b031916908160001a9053506000612a398460026132c1565b612a4490600161319e565b90505b6001811115612ad8576f181899199a1a9b1b9c1cb0b131b232b360811b85600f1660108110612a8657634e487b7160e01b600052603260045260246000fd5b1a60f81b828281518110612aaa57634e487b7160e01b600052603260045260246000fd5b60200101906001600160f81b031916908160001a90535060049490941c93612ad181613323565b9050612a47565b508315611f455760405162461bcd60e51b815260206004820181905260248201527f537472696e67733a20686578206c656e67746820696e73756666696369656e746044820152606401610644565b612b30816127dd565b6040516001600160a01b038216907fbc7cd75a20ee27fd9adebab32041f755214dbc6bffa90cc0225b39da2e5c2d3b90600090a250565b6060611f458383604051806060016040528060278152602001613400602791396060600080856001600160a01b031685604051612ba49190612e75565b600060405180830381855af49150503d8060008114612bdf576040519150601f19603f3d011682016040523d82523d6000602084013e612be4565b606091505b5091509150612bf586838387612bff565b9695505050505050565b60608315612c6b578251612c64576001600160a01b0385163b612c645760405162461bcd60e51b815260206004820152601d60248201527f416464726573733a2063616c6c20746f206e6f6e2d636f6e74726163740000006044820152606401610644565b5081612c75565b612c758383612c7d565b949350505050565b815115612c8d5781518083602001fd5b8060405162461bcd60e51b81526004016106449190612f2d565b600060208284031215612cb8578081fd5b8135611f45816133bc565b600060208284031215612cd4578081fd5b8151611f45816133bc565b60008060408385031215612cf1578081fd5b8235612cfc816133bc565b9150602083013567ffffffffffffffff80821115612d18578283fd5b818501915085601f830112612d2b578283fd5b813581811115612d3d57612d3d6133a6565b604051601f8201601f19908116603f01168101908382118183101715612d6557612d656133a6565b81604052828152886020848701011115612d7d578586fd5b82602086016020830137856020848301015280955050505050509250929050565b600060208284031215612daf578081fd5b8151611f45816133d1565b600080600060608486031215612dce578081fd5b8335612dd9816133d1565b95602085013595506040909401359392505050565b600060208284031215612dff578081fd5b5035919050565b600060208284031215612e17578081fd5b5051919050565b60008060408385031215612e30578182fd5b823591506020830135612e42816133bc565b809150509250929050565b600060208284031215612e5e578081fd5b81356001600160e01b031981168114611f45578182fd5b60008251612e878184602087016132f7565b9190910192915050565b76020b1b1b2b9b9a1b7b73a3937b61d1030b1b1b7bab73a1604d1b815260008351612ec38160178501602088016132f7565b7001034b99036b4b9b9b4b733903937b6329607d1b6017918401918201528351612ef48160288401602088016132f7565b01602801949350505050565b6001600160a01b0391909116815260200190565b6001600160a01b03929092168252602082015260400190565b6020815260008251806020840152612f4c8160408501602087016132f7565b601f01601f19169190910160400192915050565b6020808252602c908201527f46756e6374696f6e206d7573742062652063616c6c6564207468726f7567682060408201526b19195b1959d85d1958d85b1b60a21b606082015260800190565b60208082526025908201527f53656e696f72506f6f6c3a20696e73756666696369656e7420555344432062616040820152646c616e636560d81b606082015260800190565b6020808252602c908201527f46756e6374696f6e206d7573742062652063616c6c6564207468726f7567682060408201526b6163746976652070726f787960a01b606082015260800190565b6020808252602e908201527f496e697469616c697a61626c653a20636f6e747261637420697320616c72656160408201526d191e481a5b9a5d1a585b1a5e995960921b606082015260800190565b6020808252601f908201527f53656e696f72506f6f6c3a2075736572206973206e6f74207374616b696e6700604082015260600190565b6020808252602b908201527f496e697469616c697a61626c653a20636f6e7472616374206973206e6f74206960408201526a6e697469616c697a696e6760a81b606082015260800190565b60208082526026908201527f5061757365725061757361626c653a2043616c6c6572206973206e6f742061206040820152653830bab9b2b960d11b606082015260800190565b6020808252602b908201527f4d75737420686176652061646d696e20726f6c6520746f20706572666f726d2060408201526a3a3434b99030b1ba34b7b760a91b606082015260800190565b600082198211156131b1576131b1613390565b500190565b6000826131d157634e487b7160e01b81526012600452602481fd5b500490565b600181815b808511156132115781600019048211156131f7576131f7613390565b8085161561320457918102915b93841c93908002906131db565b509250929050565b6000611f45838360008261322f57506001610559565b8161323c57506000610559565b8160018114613252576002811461325c57613278565b6001915050610559565b60ff84111561326d5761326d613390565b50506001821b610559565b5060208310610133831016604e8410600b841016171561329b575081810a610559565b6132a583836131d6565b80600019048211156132b9576132b9613390565b029392505050565b60008160001904831182151516156132db576132db613390565b500290565b6000828210156132f2576132f2613390565b500390565b60005b838110156133125781810151838201526020016132fa565b8381111561289e5750506000910152565b60008161333257613332613390565b506000190190565b600181811c9082168061334e57607f821691505b6020821081141561336f57634e487b7160e01b600052602260045260246000fd5b50919050565b600060001982141561338957613389613390565b5060010190565b634e487b7160e01b600052601160045260246000fd5b634e487b7160e01b600052604160045260246000fd5b6001600160a01b0381168114610b3d57600080fd5b8015158114610b3d57600080fdfe360894a13ba1a3210667c828492db98dca3e2076cc3735a920a3ca505d382bbc416464726573733a206c6f772d6c6576656c2064656c65676174652063616c6c206661696c6564a2646970667358221220a8c4cb56255eaeb02a1beb50f547167955c1f4bcf88c9915bcb783eeb675aee264736f6c63430008040033",
  "linkReferences": {},
  "deployedLinkReferences": {}
}