{
  "_format": "hh-sol-artifact-1",
  "contractName": "IdentityToken",
  "sourceName": "contracts/protocol/IdentityToken.sol",
  "abi": [
    {
      "anonymous": false,
      "inputs": [
        {
          "indexed": false,
          "internalType": "address",
          "name": "previousAdmin",
          "type": "address"
        },
        {
          "indexed": false,
          "internalType": "address",
          "name": "newAdmin",
          "type": "address"
        }
      ],
      "name": "AdminChanged",
      "type": "event"
    },
    {
      "anonymous": false,
      "inputs": [
        {
          "indexed": true,
          "internalType": "address",
          "name": "owner",
          "type": "address"
        },
        {
          "indexed": true,
          "internalType": "address",
          "name": "approved",
          "type": "address"
        },
        {
          "indexed": true,
          "internalType": "uint256",
          "name": "tokenId",
          "type": "uint256"
        }
      ],
      "name": "Approval",
      "type": "event"
    },
    {
      "anonymous": false,
      "inputs": [
        {
          "indexed": true,
          "internalType": "address",
          "name": "owner",
          "type": "address"
        },
        {
          "indexed": true,
          "internalType": "address",
          "name": "operator",
          "type": "address"
        },
        {
          "indexed": false,
          "internalType": "bool",
          "name": "approved",
          "type": "bool"
        }
      ],
      "name": "ApprovalForAll",
      "type": "event"
    },
    {
      "anonymous": false,
      "inputs": [
        {
          "indexed": false,
          "internalType": "uint256",
          "name": "_fromTokenId",
          "type": "uint256"
        },
        {
          "indexed": false,
          "internalType": "uint256",
          "name": "_toTokenId",
          "type": "uint256"
        }
      ],
      "name": "BatchMetadataUpdate",
      "type": "event"
    },
    {
      "anonymous": false,
      "inputs": [
        {
          "indexed": true,
          "internalType": "address",
          "name": "beacon",
          "type": "address"
        }
      ],
      "name": "BeaconUpgraded",
      "type": "event"
    },
    {
      "anonymous": false,
      "inputs": [
        {
          "indexed": false,
          "internalType": "uint8",
          "name": "version",
          "type": "uint8"
        }
      ],
      "name": "Initialized",
      "type": "event"
    },
    {
      "anonymous": false,
      "inputs": [
        {
          "indexed": false,
          "internalType": "uint256",
          "name": "_tokenId",
          "type": "uint256"
        }
      ],
      "name": "MetadataUpdate",
      "type": "event"
    },
    {
      "anonymous": false,
      "inputs": [
        {
          "indexed": false,
          "internalType": "address",
          "name": "account",
          "type": "address"
        }
      ],
      "name": "Paused",
      "type": "event"
    },
    {
      "anonymous": false,
      "inputs": [
        {
          "indexed": true,
          "internalType": "bytes32",
          "name": "role",
          "type": "bytes32"
        },
        {
          "indexed": true,
          "internalType": "bytes32",
          "name": "previousAdminRole",
          "type": "bytes32"
        },
        {
          "indexed": true,
          "internalType": "bytes32",
          "name": "newAdminRole",
          "type": "bytes32"
        }
      ],
      "name": "RoleAdminChanged",
      "type": "event"
    },
    {
      "anonymous": false,
      "inputs": [
        {
          "indexed": true,
          "internalType": "bytes32",
          "name": "role",
          "type": "bytes32"
        },
        {
          "indexed": true,
          "internalType": "address",
          "name": "account",
          "type": "address"
        },
        {
          "indexed": true,
          "internalType": "address",
          "name": "sender",
          "type": "address"
        }
      ],
      "name": "RoleGranted",
      "type": "event"
    },
    {
      "anonymous": false,
      "inputs": [
        {
          "indexed": true,
          "internalType": "bytes32",
          "name": "role",
          "type": "bytes32"
        },
        {
          "indexed": true,
          "internalType": "address",
          "name": "account",
          "type": "address"
        },
        {
          "indexed": true,
          "internalType": "address",
          "name": "sender",
          "type": "address"
        }
      ],
      "name": "RoleRevoked",
      "type": "event"
    },
    {
      "anonymous": false,
      "inputs": [
        {
          "indexed": true,
          "internalType": "address",
          "name": "from",
          "type": "address"
        },
        {
          "indexed": true,
          "internalType": "address",
          "name": "to",
          "type": "address"
        },
        {
          "indexed": true,
          "internalType": "uint256",
          "name": "tokenId",
          "type": "uint256"
        }
      ],
      "name": "Transfer",
      "type": "event"
    },
    {
      "anonymous": false,
      "inputs": [
        {
          "indexed": false,
          "internalType": "address",
          "name": "account",
          "type": "address"
        }
      ],
      "name": "Unpaused",
      "type": "event"
    },
    {
      "anonymous": false,
      "inputs": [
        {
          "indexed": true,
          "internalType": "address",
          "name": "implementation",
          "type": "address"
        }
      ],
      "name": "Upgraded",
      "type": "event"
    },
    {
      "inputs": [],
      "name": "DEFAULT_ADMIN_ROLE",
      "outputs": [
        {
          "internalType": "bytes32",
          "name": "",
          "type": "bytes32"
        }
      ],
      "stateMutability": "view",
      "type": "function"
    },
    {
      "inputs": [
        {
          "internalType": "address",
          "name": "to",
          "type": "address"
        },
        {
          "internalType": "uint256",
          "name": "tokenId",
          "type": "uint256"
        }
      ],
      "name": "approve",
      "outputs": [],
      "stateMutability": "nonpayable",
      "type": "function"
    },
    {
      "inputs": [
        {
          "internalType": "address",
          "name": "owner",
          "type": "address"
        }
      ],
      "name": "balanceOf",
      "outputs": [
        {
          "internalType": "uint256",
          "name": "",
          "type": "uint256"
        }
      ],
      "stateMutability": "view",
      "type": "function"
    },
    {
      "inputs": [
        {
          "internalType": "uint256",
          "name": "tokenId",
          "type": "uint256"
        }
      ],
      "name": "burn",
      "outputs": [],
      "stateMutability": "nonpayable",
      "type": "function"
    },
    {
      "inputs": [
        {
          "internalType": "uint256",
          "name": "tokenId",
          "type": "uint256"
        }
      ],
      "name": "getApproved",
      "outputs": [
        {
          "internalType": "address",
          "name": "",
          "type": "address"
        }
      ],
      "stateMutability": "view",
      "type": "function"
    },
    {
      "inputs": [
        {
          "internalType": "bytes32",
          "name": "role",
          "type": "bytes32"
        }
      ],
      "name": "getRoleAdmin",
      "outputs": [
        {
          "internalType": "bytes32",
          "name": "",
          "type": "bytes32"
        }
      ],
      "stateMutability": "view",
      "type": "function"
    },
    {
      "inputs": [
        {
          "internalType": "bytes32",
          "name": "role",
          "type": "bytes32"
        },
        {
          "internalType": "address",
          "name": "account",
          "type": "address"
        }
      ],
      "name": "grantRole",
      "outputs": [],
      "stateMutability": "nonpayable",
      "type": "function"
    },
    {
      "inputs": [
        {
          "internalType": "bytes32",
          "name": "role",
          "type": "bytes32"
        },
        {
          "internalType": "address",
          "name": "account",
          "type": "address"
        }
      ],
      "name": "hasRole",
      "outputs": [
        {
          "internalType": "bool",
          "name": "",
          "type": "bool"
        }
      ],
      "stateMutability": "view",
      "type": "function"
    },
    {
      "inputs": [],
      "name": "initialize",
      "outputs": [],
      "stateMutability": "nonpayable",
      "type": "function"
    },
    {
      "inputs": [
        {
          "internalType": "address",
          "name": "owner",
          "type": "address"
        },
        {
          "internalType": "address",
          "name": "operator",
          "type": "address"
        }
      ],
      "name": "isApprovedForAll",
      "outputs": [
        {
          "internalType": "bool",
          "name": "",
          "type": "bool"
        }
      ],
      "stateMutability": "view",
      "type": "function"
    },
    {
      "inputs": [],
      "name": "name",
      "outputs": [
        {
          "internalType": "string",
          "name": "",
          "type": "string"
        }
      ],
      "stateMutability": "view",
      "type": "function"
    },
    {
      "inputs": [
        {
          "internalType": "uint256",
          "name": "tokenId",
          "type": "uint256"
        }
      ],
      "name": "ownerOf",
      "outputs": [
        {
          "internalType": "address",
          "name": "",
          "type": "address"
        }
      ],
      "stateMutability": "view",
      "type": "function"
    },
    {
      "inputs": [],
      "name": "pause",
      "outputs": [],
      "stateMutability": "nonpayable",
      "type": "function"
    },
    {
      "inputs": [],
      "name": "paused",
      "outputs": [
        {
          "internalType": "bool",
          "name": "",
          "type": "bool"
        }
      ],
      "stateMutability": "view",
      "type": "function"
    },
    {
      "inputs": [],
      "name": "proxiableUUID",
      "outputs": [
        {
          "internalType": "bytes32",
          "name": "",
          "type": "bytes32"
        }
      ],
      "stateMutability": "view",
      "type": "function"
    },
    {
      "inputs": [
        {
          "internalType": "bytes32",
          "name": "role",
          "type": "bytes32"
        },
        {
          "internalType": "address",
          "name": "account",
          "type": "address"
        }
      ],
      "name": "renounceRole",
      "outputs": [],
      "stateMutability": "nonpayable",
      "type": "function"
    },
    {
      "inputs": [
        {
          "internalType": "bytes32",
          "name": "role",
          "type": "bytes32"
        },
        {
          "internalType": "address",
          "name": "account",
          "type": "address"
        }
      ],
      "name": "revokeRole",
      "outputs": [],
      "stateMutability": "nonpayable",
      "type": "function"
    },
    {
      "inputs": [
        {
          "internalType": "address",
          "name": "to",
          "type": "address"
        },
        {
          "internalType": "string",
          "name": "uri",
          "type": "string"
        }
      ],
      "name": "safeMint",
      "outputs": [],
      "stateMutability": "nonpayable",
      "type": "function"
    },
    {
      "inputs": [
        {
          "internalType": "address",
          "name": "from",
          "type": "address"
        },
        {
          "internalType": "address",
          "name": "to",
          "type": "address"
        },
        {
          "internalType": "uint256",
          "name": "tokenId",
          "type": "uint256"
        }
      ],
      "name": "safeTransferFrom",
      "outputs": [],
      "stateMutability": "nonpayable",
      "type": "function"
    },
    {
      "inputs": [
        {
          "internalType": "address",
          "name": "from",
          "type": "address"
        },
        {
          "internalType": "address",
          "name": "to",
          "type": "address"
        },
        {
          "internalType": "uint256",
          "name": "tokenId",
          "type": "uint256"
        },
        {
          "internalType": "bytes",
          "name": "data",
          "type": "bytes"
        }
      ],
      "name": "safeTransferFrom",
      "outputs": [],
      "stateMutability": "nonpayable",
      "type": "function"
    },
    {
      "inputs": [
        {
          "internalType": "address",
          "name": "operator",
          "type": "address"
        },
        {
          "internalType": "bool",
          "name": "approved",
          "type": "bool"
        }
      ],
      "name": "setApprovalForAll",
      "outputs": [],
      "stateMutability": "nonpayable",
      "type": "function"
    },
    {
      "inputs": [
        {
          "internalType": "bytes4",
          "name": "interfaceId",
          "type": "bytes4"
        }
      ],
      "name": "supportsInterface",
      "outputs": [
        {
          "internalType": "bool",
          "name": "",
          "type": "bool"
        }
      ],
      "stateMutability": "view",
      "type": "function"
    },
    {
      "inputs": [],
      "name": "symbol",
      "outputs": [
        {
          "internalType": "string",
          "name": "",
          "type": "string"
        }
      ],
      "stateMutability": "view",
      "type": "function"
    },
    {
      "inputs": [
        {
          "internalType": "uint256",
          "name": "tokenId",
          "type": "uint256"
        }
      ],
      "name": "tokenURI",
      "outputs": [
        {
          "internalType": "string",
          "name": "",
          "type": "string"
        }
      ],
      "stateMutability": "view",
      "type": "function"
    },
    {
      "inputs": [
        {
          "internalType": "address",
          "name": "from",
          "type": "address"
        },
        {
          "internalType": "address",
          "name": "to",
          "type": "address"
        },
        {
          "internalType": "uint256",
          "name": "tokenId",
          "type": "uint256"
        }
      ],
      "name": "transferFrom",
      "outputs": [],
      "stateMutability": "nonpayable",
      "type": "function"
    },
    {
      "inputs": [],
      "name": "unpause",
      "outputs": [],
      "stateMutability": "nonpayable",
      "type": "function"
    },
    {
      "inputs": [
        {
          "internalType": "address",
          "name": "newImplementation",
          "type": "address"
        }
      ],
      "name": "upgradeTo",
      "outputs": [],
      "stateMutability": "nonpayable",
      "type": "function"
    },
    {
      "inputs": [
        {
          "internalType": "address",
          "name": "newImplementation",
          "type": "address"
        },
        {
          "internalType": "bytes",
          "name": "data",
          "type": "bytes"
        }
      ],
      "name": "upgradeToAndCall",
      "outputs": [],
      "stateMutability": "payable",
      "type": "function"
    }
  ],
  "bytecode": "0x60a06040523060601b60805234801561001757600080fd5b5060805160601c612b86610052600039600081816107b9015281816107f9015281816108e401528181610924015261099c0152612b866000f3fe6080604052600436106101775760003560e01c80635c975abb116100cc578063a217fddf1161007a578063a217fddf1461041f578063a22cb46514610434578063b88d4fde14610454578063c87b56dd14610474578063d204c45e14610494578063d547741f146104b4578063e985e9c5146104d457600080fd5b80635c975abb146103685780636352211e1461038057806370a08231146103a05780638129fc1c146103c05780638456cb59146103d557806391d14854146103ea57806395d89b411461040a57600080fd5b806336568abe1161012957806336568abe146102ab5780633659cfe6146102cb5780633f4ba83a146102eb57806342842e0e1461030057806342966c68146103205780634f1ef2861461034057806352d1902d1461035357600080fd5b806301ffc9a71461017c57806306fdde03146101b1578063081812fc146101d3578063095ea7b31461020b57806323b872dd1461022d578063248a9ca31461024d5780632f2ff15d1461028b575b600080fd5b34801561018857600080fd5b5061019c61019736600461265e565b6104f4565b60405190151581526020015b60405180910390f35b3480156101bd57600080fd5b506101c6610505565b6040516101a891906127af565b3480156101df57600080fd5b506101f36101ee36600461260c565b610597565b6040516001600160a01b0390911681526020016101a8565b34801561021757600080fd5b5061022b6102263660046125e3565b6105be565b005b34801561023957600080fd5b5061022b610248366004612467565b6106d9565b34801561025957600080fd5b5061027d61026836600461260c565b600090815260fb602052604090206001015490565b6040519081526020016101a8565b34801561029757600080fd5b5061022b6102a636600461263c565b61070b565b3480156102b757600080fd5b5061022b6102c636600461263c565b610730565b3480156102d757600080fd5b5061022b6102e636600461241b565b6107ae565b3480156102f757600080fd5b5061022b610877565b34801561030c57600080fd5b5061022b61031b366004612467565b610890565b34801561032c57600080fd5b5061022b61033b36600461260c565b6108ab565b61022b61034e366004612542565b6108d9565b34801561035f57600080fd5b5061027d61098f565b34801561037457600080fd5b5060c95460ff1661019c565b34801561038c57600080fd5b506101f361039b36600461260c565b610a3d565b3480156103ac57600080fd5b5061027d6103bb36600461241b565b610a72565b3480156103cc57600080fd5b5061022b610af8565b3480156103e157600080fd5b5061022b610cdf565b3480156103f657600080fd5b5061019c61040536600461263c565b610cf8565b34801561041657600080fd5b506101c6610d23565b34801561042b57600080fd5b5061027d600081565b34801561044057600080fd5b5061022b61044f366004612508565b610d32565b34801561046057600080fd5b5061022b61046f3660046124a2565b610d3d565b34801561048057600080fd5b506101c661048f36600461260c565b610d75565b3480156104a057600080fd5b5061022b6104af36600461258e565b610d80565b3480156104c057600080fd5b5061022b6104cf36600461263c565b610ddb565b3480156104e057600080fd5b5061019c6104ef366004612435565b610e00565b60006104ff82610e2e565b92915050565b60606065805461051490612a6c565b80601f016020809104026020016040519081016040528092919081815260200182805461054090612a6c565b801561058d5780601f106105625761010080835404028352916020019161058d565b820191906000526020600020905b81548152906001019060200180831161057057829003601f168201915b5050505050905090565b60006105a282610e53565b506000908152606960205260409020546001600160a01b031690565b60006105c982610a3d565b9050806001600160a01b0316836001600160a01b0316141561063c5760405162461bcd60e51b815260206004820152602160248201527f4552433732313a20617070726f76616c20746f2063757272656e74206f776e656044820152603960f91b60648201526084015b60405180910390fd5b336001600160a01b038216148061065857506106588133610e00565b6106ca5760405162461bcd60e51b815260206004820152603d60248201527f4552433732313a20617070726f76652063616c6c6572206973206e6f7420746f60448201527f6b656e206f776e6572206f7220617070726f76656420666f7220616c6c0000006064820152608401610633565b6106d48383610e78565b505050565b6106e4335b82610ee6565b6107005760405162461bcd60e51b8152600401610633906127c2565b6106d4838383610f45565b600082815260fb602052604090206001015461072681611097565b6106d483836110a1565b6001600160a01b03811633146107a05760405162461bcd60e51b815260206004820152602f60248201527f416363657373436f6e74726f6c3a2063616e206f6e6c792072656e6f756e636560448201526e103937b632b9903337b91039b2b63360891b6064820152608401610633565b6107aa8282611127565b5050565b306001600160a01b037f00000000000000000000000000000000000000000000000000000000000000001614156107f75760405162461bcd60e51b8152600401610633906128dd565b7f00000000000000000000000000000000000000000000000000000000000000006001600160a01b031661082961118e565b6001600160a01b03161461084f5760405162461bcd60e51b815260040161063390612929565b610858816111aa565b60408051600080825260208201909252610874918391906111d4565b50565b61087f61134e565b61088881611097565b610874611372565b6106d483838360405180602001604052806000815250610d3d565b6108b4336106de565b6108d05760405162461bcd60e51b8152600401610633906127c2565b610874816113c4565b306001600160a01b037f00000000000000000000000000000000000000000000000000000000000000001614156109225760405162461bcd60e51b8152600401610633906128dd565b7f00000000000000000000000000000000000000000000000000000000000000006001600160a01b031661095461118e565b6001600160a01b03161461097a5760405162461bcd60e51b815260040161063390612929565b610983826111aa565b6107aa828260016111d4565b6000306001600160a01b037f00000000000000000000000000000000000000000000000000000000000000001614610a2a5760405162461bcd60e51b815260206004820152603860248201527f555550535570677261646561626c653a206d757374206e6f742062652063616c6044820152771b1959081d1a1c9bdd59da0819195b1959d85d1958d85b1b60421b6064820152608401610633565b50600080516020612aea83398151915290565b6000818152606760205260408120546001600160a01b0316806104ff5760405162461bcd60e51b815260040161063390612975565b60006001600160a01b038216610adc5760405162461bcd60e51b815260206004820152602960248201527f4552433732313a2061646472657373207a65726f206973206e6f7420612076616044820152683634b21037bbb732b960b91b6064820152608401610633565b506001600160a01b031660009081526068602052604090205490565b600054610100900460ff1615808015610b185750600054600160ff909116105b80610b325750303b158015610b32575060005460ff166001145b610b955760405162461bcd60e51b815260206004820152602e60248201527f496e697469616c697a61626c653a20636f6e747261637420697320616c72656160448201526d191e481a5b9a5d1a585b1a5e995960921b6064820152608401610633565b6000805460ff191660011790558015610bb8576000805461ff0019166101001790555b610c016040518060400160405280600d81526020016c24b232b73a34ba3caa37b5b2b760991b81525060405180604001604052806002815260200161125160f21b8152506113cd565b610c096113fe565b610c11611427565b610c196113fe565b610c216113fe565b610c296113fe565b610c346000336110a1565b610c45610c3f61134e565b336110a1565b610c6e7f9f2df0fed2c77648de5860a4cc508cd0818c85b8b8a1ab4ceeef8d981c8956a6610c3f565b610c977f189ab7a9244df0848122154315af71fe140f3db0fe014031783b0946b8c9d2e3610c3f565b8015610874576000805461ff0019169055604051600181527f7f26b83ff96e1f2b6a682f133852f6798a09c465da95921460cefb38474024989060200160405180910390a150565b610ce761134e565b610cf081611097565b610874611456565b600091825260fb602090815260408084206001600160a01b0393909316845291905290205460ff1690565b60606066805461051490612a6c565b6107aa338383611493565b610d473383610ee6565b610d635760405162461bcd60e51b8152600401610633906127c2565b610d6f8484848461155e565b50505050565b60606104ff82611591565b7f9f2df0fed2c77648de5860a4cc508cd0818c85b8b8a1ab4ceeef8d981c8956a6610daa81611097565b6000610db66101c35490565b9050610dc76101c380546001019055565b610dd1848261168d565b610d6f81846116a7565b600082815260fb6020526040902060010154610df681611097565b6106d48383611127565b6001600160a01b039182166000908152606a6020908152604080832093909416825291909152205460ff1690565b60006001600160e01b03198216637965db0b60e01b14806104ff57506104ff8261176a565b610e5c8161178f565b6108745760405162461bcd60e51b815260040161063390612975565b600081815260696020526040902080546001600160a01b0319166001600160a01b0384169081179091558190610ead82610a3d565b6001600160a01b03167f8c5be1e5ebec7d5bd14f71427d1e84f3dd0314c0f7b2291e5b200ac8c7c3b92560405160405180910390a45050565b600080610ef283610a3d565b9050806001600160a01b0316846001600160a01b03161480610f195750610f198185610e00565b80610f3d5750836001600160a01b0316610f3284610597565b6001600160a01b0316145b949350505050565b826001600160a01b0316610f5882610a3d565b6001600160a01b031614610f7e5760405162461bcd60e51b815260040161063390612861565b6001600160a01b038216610fe05760405162461bcd60e51b8152602060048201526024808201527f4552433732313a207472616e7366657220746f20746865207a65726f206164646044820152637265737360e01b6064820152608401610633565b826001600160a01b0316610ff382610a3d565b6001600160a01b0316146110195760405162461bcd60e51b815260040161063390612861565b600081815260696020908152604080832080546001600160a01b03199081169091556001600160a01b038781168086526068855283862080546000190190559087168086528386208054600101905586865260679094528285208054909216841790915590518493600080516020612b3183398151915291a4505050565b61087481336117ac565b6110ab8282610cf8565b6107aa57600082815260fb602090815260408083206001600160a01b03851684529091529020805460ff191660011790556110e33390565b6001600160a01b0316816001600160a01b0316837f2f8788117e7eff1d82e926ec794901d17c78024a50270940304540a733656f0d60405160405180910390a45050565b6111318282610cf8565b156107aa57600082815260fb602090815260408083206001600160a01b0385168085529252808320805460ff1916905551339285917ff6391f5c32d9c69d2a47ea670b442974b53935d1edc7fd64eb21e047a839171b9190a45050565b600080516020612aea833981519152546001600160a01b031690565b7f189ab7a9244df0848122154315af71fe140f3db0fe014031783b0946b8c9d2e36107aa81611097565b7f4910fdfa16fed3260ed0e7147f7cc6da11a60208b5b9406d12a635614ffd91435460ff1615611207576106d483611805565b826001600160a01b03166352d1902d6040518163ffffffff1660e01b815260040160206040518083038186803b15801561124057600080fd5b505afa925050508015611270575060408051601f3d908101601f1916820190925261126d91810190612624565b60015b6112d35760405162461bcd60e51b815260206004820152602e60248201527f45524331393637557067726164653a206e657720696d706c656d656e7461746960448201526d6f6e206973206e6f74205555505360901b6064820152608401610633565b600080516020612aea83398151915281146113425760405162461bcd60e51b815260206004820152602960248201527f45524331393637557067726164653a20756e737570706f727465642070726f786044820152681a58589b195555525160ba1b6064820152608401610633565b506106d48383836118a1565b7f65d7a28e3265b37a6474929f336521b332c1681b933f6cb9f3376673440d862a90565b61137a6118c6565b60c9805460ff191690557f5db9ee0a495bf2e6ff9c91a7834c1ba4fdd244a5e8aa4e537bd38aeae4b073aa335b6040516001600160a01b03909116815260200160405180910390a1565b6108748161190f565b600054610100900460ff166113f45760405162461bcd60e51b8152600401610633906129a7565b6107aa828261194f565b600054610100900460ff166114255760405162461bcd60e51b8152600401610633906129a7565b565b600054610100900460ff1661144e5760405162461bcd60e51b8152600401610633906129a7565b61142561199d565b61145e6119d0565b60c9805460ff191660011790557f62e78cea01bee320cd4e420270b5ea74000d11b0c9f74754ebdbfc544b05a2586113a73390565b816001600160a01b0316836001600160a01b031614156114f15760405162461bcd60e51b815260206004820152601960248201527822a9219b99189d1030b8383937bb32903a379031b0b63632b960391b6044820152606401610633565b6001600160a01b038381166000818152606a6020908152604080832094871680845294825291829020805460ff191686151590811790915591519182527f17307eab39ab6107e8899845ad3d59bd9653f200f220920489ca2b5937696c31910160405180910390a3505050565b611569848484610f45565b61157584848484611a16565b610d6f5760405162461bcd60e51b81526004016106339061280f565b606061159c82610e53565b600082815260976020526040812080546115b590612a6c565b80601f01602080910402602001604051908101604052809291908181526020018280546115e190612a6c565b801561162e5780601f106116035761010080835404028352916020019161162e565b820191906000526020600020905b81548152906001019060200180831161161157829003601f168201915b50505050509050600061163f611b23565b9050805160001415611652575092915050565b81511561168457808260405160200161166c9291906126de565b60405160208183030381529060405292505050919050565b610f3d84611b44565b6107aa828260405180602001604052806000815250611bab565b6116b08261178f565b6117135760405162461bcd60e51b815260206004820152602e60248201527f45524337323155524953746f726167653a2055524920736574206f66206e6f6e60448201526d32bc34b9ba32b73a103a37b5b2b760911b6064820152608401610633565b600082815260976020908152604090912082516117329284019061229b565b506040518281527ff8e1a15aba9398e019f0b49df1a4fde98ee17ae345cb5f6b5e2c27f5033e8ce79060200160405180910390a15050565b60006001600160e01b03198216632483248360e11b14806104ff57506104ff82611bde565b6000908152606760205260409020546001600160a01b0316151590565b6117b68282610cf8565b6107aa576117c381611c2e565b6117ce836020611c40565b6040516020016117df92919061270d565b60408051601f198184030181529082905262461bcd60e51b8252610633916004016127af565b6001600160a01b0381163b6118725760405162461bcd60e51b815260206004820152602d60248201527f455243313936373a206e657720696d706c656d656e746174696f6e206973206e60448201526c1bdd08184818dbdb9d1c9858dd609a1b6064820152608401610633565b600080516020612aea83398151915280546001600160a01b0319166001600160a01b0392909216919091179055565b6118aa83611e22565b6000825111806118b75750805b156106d457610d6f8383611e62565b60c95460ff166114255760405162461bcd60e51b815260206004820152601460248201527314185d5cd8589b194e881b9bdd081c185d5cd95960621b6044820152606401610633565b61191881611e87565b6000818152609760205260409020805461193190612a6c565b1590506108745760008181526097602052604081206108749161231f565b600054610100900460ff166119765760405162461bcd60e51b8152600401610633906129a7565b815161198990606590602085019061229b565b5080516106d490606690602084019061229b565b600054610100900460ff166119c45760405162461bcd60e51b8152600401610633906129a7565b60c9805460ff19169055565b60c95460ff16156114255760405162461bcd60e51b815260206004820152601060248201526f14185d5cd8589b194e881c185d5cd95960821b6044820152606401610633565b60006001600160a01b0384163b15611b1857604051630a85bd0160e11b81526001600160a01b0385169063150b7a0290611a5a90339089908890889060040161277c565b602060405180830381600087803b158015611a7457600080fd5b505af1925050508015611aa4575060408051601f3d908101601f19168201909252611aa19181019061267a565b60015b611afe573d808015611ad2576040519150601f19603f3d011682016040523d82523d6000602084013e611ad7565b606091505b508051611af65760405162461bcd60e51b81526004016106339061280f565b805181602001fd5b6001600160e01b031916630a85bd0160e11b149050610f3d565b506001949350505050565b604080518082019091526007815266697066733a2f2f60c81b602082015290565b6060611b4f82610e53565b6000611b59611b23565b90506000815111611b795760405180602001604052806000815250611ba4565b80611b8384611f0a565b604051602001611b949291906126de565b6040516020818303038152906040525b9392505050565b611bb58383611fb5565b611bc26000848484611a16565b6106d45760405162461bcd60e51b81526004016106339061280f565b60006001600160e01b031982166380ac58cd60e01b1480611c0f57506001600160e01b03198216635b5e139f60e01b145b806104ff57506301ffc9a760e01b6001600160e01b03198316146104ff565b60606104ff6001600160a01b03831660145b60606000611c4f836002612a0a565b611c5a9060026129f2565b67ffffffffffffffff811115611c8057634e487b7160e01b600052604160045260246000fd5b6040519080825280601f01601f191660200182016040528015611caa576020820181803683370190505b509050600360fc1b81600081518110611cd357634e487b7160e01b600052603260045260246000fd5b60200101906001600160f81b031916908160001a905350600f60fb1b81600181518110611d1057634e487b7160e01b600052603260045260246000fd5b60200101906001600160f81b031916908160001a9053506000611d34846002612a0a565b611d3f9060016129f2565b90505b6001811115611dd3576f181899199a1a9b1b9c1cb0b131b232b360811b85600f1660108110611d8157634e487b7160e01b600052603260045260246000fd5b1a60f81b828281518110611da557634e487b7160e01b600052603260045260246000fd5b60200101906001600160f81b031916908160001a90535060049490941c93611dcc81612a55565b9050611d42565b508315611ba45760405162461bcd60e51b815260206004820181905260248201527f537472696e67733a20686578206c656e67746820696e73756666696369656e746044820152606401610633565b611e2b81611805565b6040516001600160a01b038216907fbc7cd75a20ee27fd9adebab32041f755214dbc6bffa90cc0225b39da2e5c2d3b90600090a250565b6060611ba48383604051806060016040528060278152602001612b0a602791396120b0565b6000611e9282610a3d565b9050611e9d82610a3d565b600083815260696020908152604080832080546001600160a01b03199081169091556001600160a01b038516808552606884528285208054600019019055878552606790935281842080549091169055519293508492600080516020612b31833981519152908390a45050565b60606000611f1783612128565b600101905060008167ffffffffffffffff811115611f4557634e487b7160e01b600052604160045260246000fd5b6040519080825280601f01601f191660200182016040528015611f6f576020820181803683370190505b5090508181016020015b600019016f181899199a1a9b1b9c1cb0b131b232b360811b600a86061a8153600a8504945084611fa857611fad565b611f79565b509392505050565b6001600160a01b03821661200b5760405162461bcd60e51b815260206004820181905260248201527f4552433732313a206d696e7420746f20746865207a65726f20616464726573736044820152606401610633565b6120148161178f565b156120315760405162461bcd60e51b8152600401610633906128a6565b61203a8161178f565b156120575760405162461bcd60e51b8152600401610633906128a6565b6001600160a01b038216600081815260686020908152604080832080546001019055848352606790915280822080546001600160a01b031916841790555183929190600080516020612b31833981519152908290a45050565b6060600080856001600160a01b0316856040516120cd91906126c2565b600060405180830381855af49150503d8060008114612108576040519150601f19603f3d011682016040523d82523d6000602084013e61210d565b606091505b509150915061211e86838387612200565b9695505050505050565b60008072184f03e93ff9f4daa797ed6e38ed64bf6a1f0160401b83106121675772184f03e93ff9f4daa797ed6e38ed64bf6a1f0160401b830492506040015b6d04ee2d6d415b85acef81000000008310612193576d04ee2d6d415b85acef8100000000830492506020015b662386f26fc1000083106121b157662386f26fc10000830492506010015b6305f5e10083106121c9576305f5e100830492506008015b61271083106121dd57612710830492506004015b606483106121ef576064830492506002015b600a83106104ff5760010192915050565b6060831561226c578251612265576001600160a01b0385163b6122655760405162461bcd60e51b815260206004820152601d60248201527f416464726573733a2063616c6c20746f206e6f6e2d636f6e74726163740000006044820152606401610633565b5081610f3d565b610f3d83838151156122815781518083602001fd5b8060405162461bcd60e51b815260040161063391906127af565b8280546122a790612a6c565b90600052602060002090601f0160209004810192826122c9576000855561230f565b82601f106122e257805160ff191683800117855561230f565b8280016001018555821561230f579182015b8281111561230f5782518255916020019190600101906122f4565b5061231b929150612355565b5090565b50805461232b90612a6c565b6000825580601f1061233b575050565b601f01602090049060005260206000209081019061087491905b5b8082111561231b5760008155600101612356565b600067ffffffffffffffff8084111561238557612385612abd565b604051601f8501601f19908116603f011681019082821181831017156123ad576123ad612abd565b816040528093508581528686860111156123c657600080fd5b858560208301376000602087830101525050509392505050565b80356001600160a01b03811681146123f757600080fd5b919050565b600082601f83011261240c578081fd5b611ba48383356020850161236a565b60006020828403121561242c578081fd5b611ba4826123e0565b60008060408385031215612447578081fd5b612450836123e0565b915061245e602084016123e0565b90509250929050565b60008060006060848603121561247b578081fd5b612484846123e0565b9250612492602085016123e0565b9150604084013590509250925092565b600080600080608085870312156124b7578081fd5b6124c0856123e0565b93506124ce602086016123e0565b925060408501359150606085013567ffffffffffffffff8111156124f0578182fd5b6124fc878288016123fc565b91505092959194509250565b6000806040838503121561251a578182fd5b612523836123e0565b915060208301358015158114612537578182fd5b809150509250929050565b60008060408385031215612554578182fd5b61255d836123e0565b9150602083013567ffffffffffffffff811115612578578182fd5b612584858286016123fc565b9150509250929050565b600080604083850312156125a0578182fd5b6125a9836123e0565b9150602083013567ffffffffffffffff8111156125c4578182fd5b8301601f810185136125d4578182fd5b6125848582356020840161236a565b600080604083850312156125f5578182fd5b6125fe836123e0565b946020939093013593505050565b60006020828403121561261d578081fd5b5035919050565b600060208284031215612635578081fd5b5051919050565b6000806040838503121561264e578182fd5b8235915061245e602084016123e0565b60006020828403121561266f578081fd5b8135611ba481612ad3565b60006020828403121561268b578081fd5b8151611ba481612ad3565b600081518084526126ae816020860160208601612a29565b601f01601f19169290920160200192915050565b600082516126d4818460208701612a29565b9190910192915050565b600083516126f0818460208801612a29565b835190830190612704818360208801612a29565b01949350505050565b76020b1b1b2b9b9a1b7b73a3937b61d1030b1b1b7bab73a1604d1b81526000835161273f816017850160208801612a29565b7001034b99036b4b9b9b4b733903937b6329607d1b6017918401918201528351612770816028840160208801612a29565b01602801949350505050565b6001600160a01b038581168252841660208201526040810183905260806060820181905260009061211e90830184612696565b602081526000611ba46020830184612696565b6020808252602d908201527f4552433732313a2063616c6c6572206973206e6f7420746f6b656e206f776e6560408201526c1c881bdc88185c1c1c9bdd9959609a1b606082015260800190565b60208082526032908201527f4552433732313a207472616e7366657220746f206e6f6e20455243373231526560408201527131b2b4bb32b91034b6b83632b6b2b73a32b960711b606082015260800190565b60208082526025908201527f4552433732313a207472616e736665722066726f6d20696e636f72726563742060408201526437bbb732b960d91b606082015260800190565b6020808252601c908201527f4552433732313a20746f6b656e20616c7265616479206d696e74656400000000604082015260600190565b6020808252602c908201527f46756e6374696f6e206d7573742062652063616c6c6564207468726f7567682060408201526b19195b1959d85d1958d85b1b60a21b606082015260800190565b6020808252602c908201527f46756e6374696f6e206d7573742062652063616c6c6564207468726f7567682060408201526b6163746976652070726f787960a01b606082015260800190565b602080825260189082015277115490cdcc8c4e881a5b9d985b1a59081d1bdad95b88125160421b604082015260600190565b6020808252602b908201527f496e697469616c697a61626c653a20636f6e7472616374206973206e6f74206960408201526a6e697469616c697a696e6760a81b606082015260800190565b60008219821115612a0557612a05612aa7565b500190565b6000816000190483118215151615612a2457612a24612aa7565b500290565b60005b83811015612a44578181015183820152602001612a2c565b83811115610d6f5750506000910152565b600081612a6457612a64612aa7565b506000190190565b600181811c90821680612a8057607f821691505b60208210811415612aa157634e487b7160e01b600052602260045260246000fd5b50919050565b634e487b7160e01b600052601160045260246000fd5b634e487b7160e01b600052604160045260246000fd5b6001600160e01b03198116811461087457600080fdfe360894a13ba1a3210667c828492db98dca3e2076cc3735a920a3ca505d382bbc416464726573733a206c6f772d6c6576656c2064656c65676174652063616c6c206661696c6564ddf252ad1be2c89b69c2b068fc378daa952ba7f163c4a11628f55a4df523b3efa26469706673582212204730dd7bfaab0bb58174f51ab1950d1a63ddd70a2aca0e040874fabd104dff9364736f6c63430008040033",
  "linkReferences": {},
  "deployedLinkReferences": {}
}