{
  "_format": "hh-sol-artifact-1",
  "contractName": "AuthorizeUser",
  "sourceName": "contracts/protocol/old/AuthorizeUser.sol",
  "abi": [
    {
      "inputs": [],
      "name": "UnauthorizedUser__InvalidAddress",
      "type": "error"
    },
    {
      "inputs": [],
      "name": "UnauthorizedUser__NotAuthorized",
      "type": "error"
    },
    {
      "anonymous": false,
      "inputs": [
        {
          "indexed": false,
          "internalType": "address",
          "name": "previousAdmin",
          "type": "address"
        },
        {
          "indexed": false,
          "internalType": "address",
          "name": "newAdmin",
          "type": "address"
        }
      ],
      "name": "AdminChanged",
      "type": "event"
    },
    {
      "anonymous": false,
      "inputs": [
        {
          "indexed": true,
          "internalType": "address",
          "name": "member",
          "type": "address"
        }
      ],
      "name": "AuthorizedUserListed",
      "type": "event"
    },
    {
      "anonymous": false,
      "inputs": [
        {
          "indexed": true,
          "internalType": "address",
          "name": "member",
          "type": "address"
        }
      ],
      "name": "AuthorizedUserUnlisted",
      "type": "event"
    },
    {
      "anonymous": false,
      "inputs": [
        {
          "indexed": true,
          "internalType": "address",
          "name": "beacon",
          "type": "address"
        }
      ],
      "name": "BeaconUpgraded",
      "type": "event"
    },
    {
      "anonymous": false,
      "inputs": [
        {
          "indexed": false,
          "internalType": "uint8",
          "name": "version",
          "type": "uint8"
        }
      ],
      "name": "Initialized",
      "type": "event"
    },
    {
      "anonymous": false,
      "inputs": [
        {
          "indexed": false,
          "internalType": "address",
          "name": "account",
          "type": "address"
        }
      ],
      "name": "Paused",
      "type": "event"
    },
    {
      "anonymous": false,
      "inputs": [
        {
          "indexed": true,
          "internalType": "bytes32",
          "name": "role",
          "type": "bytes32"
        },
        {
          "indexed": true,
          "internalType": "bytes32",
          "name": "previousAdminRole",
          "type": "bytes32"
        },
        {
          "indexed": true,
          "internalType": "bytes32",
          "name": "newAdminRole",
          "type": "bytes32"
        }
      ],
      "name": "RoleAdminChanged",
      "type": "event"
    },
    {
      "anonymous": false,
      "inputs": [
        {
          "indexed": true,
          "internalType": "bytes32",
          "name": "role",
          "type": "bytes32"
        },
        {
          "indexed": true,
          "internalType": "address",
          "name": "account",
          "type": "address"
        },
        {
          "indexed": true,
          "internalType": "address",
          "name": "sender",
          "type": "address"
        }
      ],
      "name": "RoleGranted",
      "type": "event"
    },
    {
      "anonymous": false,
      "inputs": [
        {
          "indexed": true,
          "internalType": "bytes32",
          "name": "role",
          "type": "bytes32"
        },
        {
          "indexed": true,
          "internalType": "address",
          "name": "account",
          "type": "address"
        },
        {
          "indexed": true,
          "internalType": "address",
          "name": "sender",
          "type": "address"
        }
      ],
      "name": "RoleRevoked",
      "type": "event"
    },
    {
      "anonymous": false,
      "inputs": [
        {
          "indexed": false,
          "internalType": "address",
          "name": "account",
          "type": "address"
        }
      ],
      "name": "Unpaused",
      "type": "event"
    },
    {
      "anonymous": false,
      "inputs": [
        {
          "indexed": true,
          "internalType": "address",
          "name": "implementation",
          "type": "address"
        }
      ],
      "name": "Upgraded",
      "type": "event"
    },
    {
      "inputs": [],
      "name": "DEFAULT_ADMIN_ROLE",
      "outputs": [
        {
          "internalType": "bytes32",
          "name": "",
          "type": "bytes32"
        }
      ],
      "stateMutability": "view",
      "type": "function"
    },
    {
      "inputs": [
        {
          "internalType": "address",
          "name": "owner",
          "type": "address"
        }
      ],
      "name": "_BaseUpgradeablePausable_init",
      "outputs": [],
      "stateMutability": "nonpayable",
      "type": "function"
    },
    {
      "inputs": [],
      "name": "__PauserPausable__init",
      "outputs": [],
      "stateMutability": "nonpayable",
      "type": "function"
    },
    {
      "inputs": [
        {
          "internalType": "address",
          "name": "_user",
          "type": "address"
        }
      ],
      "name": "addToAuthorized",
      "outputs": [],
      "stateMutability": "nonpayable",
      "type": "function"
    },
    {
      "inputs": [
        {
          "internalType": "address",
          "name": "",
          "type": "address"
        }
      ],
      "name": "authorizedUserList",
      "outputs": [
        {
          "internalType": "bool",
          "name": "",
          "type": "bool"
        }
      ],
      "stateMutability": "view",
      "type": "function"
    },
    {
      "inputs": [
        {
          "internalType": "bytes32",
          "name": "role",
          "type": "bytes32"
        }
      ],
      "name": "getRoleAdmin",
      "outputs": [
        {
          "internalType": "bytes32",
          "name": "",
          "type": "bytes32"
        }
      ],
      "stateMutability": "view",
      "type": "function"
    },
    {
      "inputs": [
        {
          "internalType": "bytes32",
          "name": "role",
          "type": "bytes32"
        },
        {
          "internalType": "address",
          "name": "account",
          "type": "address"
        }
      ],
      "name": "grantRole",
      "outputs": [],
      "stateMutability": "nonpayable",
      "type": "function"
    },
    {
      "inputs": [
        {
          "internalType": "bytes32",
          "name": "role",
          "type": "bytes32"
        },
        {
          "internalType": "address",
          "name": "account",
          "type": "address"
        }
      ],
      "name": "hasRole",
      "outputs": [
        {
          "internalType": "bool",
          "name": "",
          "type": "bool"
        }
      ],
      "stateMutability": "view",
      "type": "function"
    },
    {
      "inputs": [
        {
          "internalType": "contract ReignConfig",
          "name": "_reignConfig",
          "type": "address"
        }
      ],
      "name": "initialize",
      "outputs": [],
      "stateMutability": "nonpayable",
      "type": "function"
    },
    {
      "inputs": [],
      "name": "isAdmin",
      "outputs": [
        {
          "internalType": "bool",
          "name": "",
          "type": "bool"
        }
      ],
      "stateMutability": "view",
      "type": "function"
    },
    {
      "inputs": [
        {
          "internalType": "address",
          "name": "_user",
          "type": "address"
        }
      ],
      "name": "isAuthorized",
      "outputs": [
        {
          "internalType": "bool",
          "name": "",
          "type": "bool"
        }
      ],
      "stateMutability": "view",
      "type": "function"
    },
    {
      "inputs": [],
      "name": "pause",
      "outputs": [],
      "stateMutability": "nonpayable",
      "type": "function"
    },
    {
      "inputs": [],
      "name": "paused",
      "outputs": [
        {
          "internalType": "bool",
          "name": "",
          "type": "bool"
        }
      ],
      "stateMutability": "view",
      "type": "function"
    },
    {
      "inputs": [],
      "name": "proxiableUUID",
      "outputs": [
        {
          "internalType": "bytes32",
          "name": "",
          "type": "bytes32"
        }
      ],
      "stateMutability": "view",
      "type": "function"
    },
    {
      "inputs": [
        {
          "internalType": "address",
          "name": "_user",
          "type": "address"
        }
      ],
      "name": "removeFromAuthorized",
      "outputs": [],
      "stateMutability": "nonpayable",
      "type": "function"
    },
    {
      "inputs": [
        {
          "internalType": "bytes32",
          "name": "role",
          "type": "bytes32"
        },
        {
          "internalType": "address",
          "name": "account",
          "type": "address"
        }
      ],
      "name": "renounceRole",
      "outputs": [],
      "stateMutability": "nonpayable",
      "type": "function"
    },
    {
      "inputs": [
        {
          "internalType": "bytes32",
          "name": "role",
          "type": "bytes32"
        },
        {
          "internalType": "address",
          "name": "account",
          "type": "address"
        }
      ],
      "name": "revokeRole",
      "outputs": [],
      "stateMutability": "nonpayable",
      "type": "function"
    },
    {
      "inputs": [
        {
          "internalType": "bytes4",
          "name": "interfaceId",
          "type": "bytes4"
        }
      ],
      "name": "supportsInterface",
      "outputs": [
        {
          "internalType": "bool",
          "name": "",
          "type": "bool"
        }
      ],
      "stateMutability": "view",
      "type": "function"
    },
    {
      "inputs": [],
      "name": "unpause",
      "outputs": [],
      "stateMutability": "nonpayable",
      "type": "function"
    },
    {
      "inputs": [
        {
          "internalType": "address",
          "name": "newImplementation",
          "type": "address"
        }
      ],
      "name": "upgradeTo",
      "outputs": [],
      "stateMutability": "nonpayable",
      "type": "function"
    },
    {
      "inputs": [
        {
          "internalType": "address",
          "name": "newImplementation",
          "type": "address"
        },
        {
          "internalType": "bytes",
          "name": "data",
          "type": "bytes"
        }
      ],
      "name": "upgradeToAndCall",
      "outputs": [],
      "stateMutability": "payable",
      "type": "function"
    }
  ],
  "bytecode": "0x60a06040523060601b60805234801561001757600080fd5b5060805160601c611b726100526000396000818161054c0152818161058c015281816106460152818161068601526107c70152611b726000f3fe60806040526004361061012a5760003560e01c806352d1902d116100ab578063a217fddf1161006f578063a217fddf14610314578063b6db75a014610329578063c4d66de81461033e578063c720a1291461035e578063d547741f1461037e578063fe9fbb801461039e57600080fd5b806352d1902d146102925780635c975abb146102a75780638456cb59146102bf57806391d14854146102d4578063a12dde4d146102f457600080fd5b806336568abe116100f257806336568abe146102155780633659cfe6146102355780633f4ba83a146102555780634f1ef2861461026a578063526d81f61461027d57600080fd5b806301ffc9a71461012f578063238d8d8714610164578063248a9ca31461019557806329684abd146101d35780632f2ff15d146101f5575b600080fd5b34801561013b57600080fd5b5061014f61014a3660046117dd565b6103be565b60405190151581526020015b60405180910390f35b34801561017057600080fd5b5061014f61017f366004611687565b6101606020526000908152604090205460ff1681565b3480156101a157600080fd5b506101c56101b036600461177e565b60009081526065602052604090206001015490565b60405190815260200161015b565b3480156101df57600080fd5b506101f36101ee366004611687565b6103f5565b005b34801561020157600080fd5b506101f36102103660046117ae565b610494565b34801561022157600080fd5b506101f36102303660046117ae565b6104be565b34801561024157600080fd5b506101f3610250366004611687565b610541565b34801561026157600080fd5b506101f361060a565b6101f36102783660046116bf565b61063b565b34801561028957600080fd5b506101f36106f1565b34801561029e57600080fd5b506101c56107ba565b3480156102b357600080fd5b5060975460ff1661014f565b3480156102cb57600080fd5b506101f3610868565b3480156102e057600080fd5b5061014f6102ef3660046117ae565b610897565b34801561030057600080fd5b506101f361030f366004611687565b6108c2565b34801561032057600080fd5b506101c5600081565b34801561033557600080fd5b5061014f610996565b34801561034a57600080fd5b506101f3610359366004611687565b6109a8565b34801561036a57600080fd5b506101f3610379366004611687565b610b0b565b34801561038a57600080fd5b506101f36103993660046117ae565b610ba7565b3480156103aa57600080fd5b5061014f6103b9366004611687565b610bcc565b60006001600160e01b03198216637965db0b60e01b14806103ef57506301ffc9a760e01b6001600160e01b03198316145b92915050565b610406610400610c15565b33610897565b61042357604051633aef13c960e11b815260040160405180910390fd5b6001600160a01b03811661044a576040516338c32a4f60e11b815260040160405180910390fd5b6001600160a01b03811660008181526101606020526040808220805460ff19169055517f234a002a4d1ec17737a11dc67a81700b7dde3b6132b549d4aea078e8bae87dfc9190a250565b6000828152606560205260409020600101546104af81610c39565b6104b98383610c43565b505050565b6001600160a01b03811633146105335760405162461bcd60e51b815260206004820152602f60248201527f416363657373436f6e74726f6c3a2063616e206f6e6c792072656e6f756e636560448201526e103937b632b9903337b91039b2b63360891b60648201526084015b60405180910390fd5b61053d8282610cc9565b5050565b306001600160a01b037f000000000000000000000000000000000000000000000000000000000000000016141561058a5760405162461bcd60e51b815260040161052a906118c3565b7f00000000000000000000000000000000000000000000000000000000000000006001600160a01b03166105bc610d30565b6001600160a01b0316146105e25760405162461bcd60e51b815260040161052a9061190f565b6105eb81610d4c565b6040805160008082526020820190925261060791839190610db4565b50565b610615610400610f2e565b6106315760405162461bcd60e51b815260040161052a906119f4565b610639610f52565b565b306001600160a01b037f00000000000000000000000000000000000000000000000000000000000000001614156106845760405162461bcd60e51b815260040161052a906118c3565b7f00000000000000000000000000000000000000000000000000000000000000006001600160a01b03166106b6610d30565b6001600160a01b0316146106dc5760405162461bcd60e51b815260040161052a9061190f565b6106e582610d4c565b61053d82826001610db4565b600054610100900460ff16158080156107115750600054600160ff909116105b8061072b5750303b15801561072b575060005460ff166001145b6107475760405162461bcd60e51b815260040161052a9061195b565b6000805460ff19166001179055801561076a576000805461ff0019166101001790555b610772610fa4565b8015610607576000805461ff0019169055604051600181527f7f26b83ff96e1f2b6a682f133852f6798a09c465da95921460cefb38474024989060200160405180910390a150565b6000306001600160a01b037f000000000000000000000000000000000000000000000000000000000000000016146108555760405162461bcd60e51b815260206004820152603860248201527f555550535570677261646561626c653a206d757374206e6f742062652063616c6044820152771b1959081d1a1c9bdd59da0819195b1959d85d1958d85b1b60421b606482015260840161052a565b50600080516020611af683398151915290565b610873610400610f2e565b61088f5760405162461bcd60e51b815260040161052a906119f4565b610639610fd7565b60009182526065602090815260408084206001600160a01b0393909316845291905290205460ff1690565b600054610100900460ff166108e95760405162461bcd60e51b815260040161052a906119a9565b6001600160a01b03811661093f5760405162461bcd60e51b815260206004820181905260248201527f4f776e65722063616e6e6f7420626520746865207a65726f2061646472657373604482015260640161052a565b610947611014565b61094f610fa4565b61095761103b565b610968610962611069565b82610c43565b610973610962610f2e565b61098b61097e610f2e565b610986611069565b61108d565b61060761097e611069565b60006109a3610400611069565b905090565b600054610100900460ff16158080156109c85750600054600160ff909116105b806109e25750303b1580156109e2575060005460ff166001145b6109fe5760405162461bcd60e51b815260040161052a9061195b565b6000805460ff191660011790558015610a21576000805461ff0019166101001790555b6001600160a01b038216610a48576040516338c32a4f60e11b815260040160405180910390fd5b61015f80546001600160a01b0319166001600160a01b038416908117909155600090610a73906110d8565b90506001600160a01b038116610a9c576040516338c32a4f60e11b815260040160405180910390fd5b610aa5816108c2565b610ab6610ab0610c15565b82611153565b610ac161097e610c15565b50801561053d576000805461ff0019169055604051600181527f7f26b83ff96e1f2b6a682f133852f6798a09c465da95921460cefb38474024989060200160405180910390a15050565b610b16610400610c15565b610b3357604051633aef13c960e11b815260040160405180910390fd5b6001600160a01b038116610b5a576040516338c32a4f60e11b815260040160405180910390fd5b6001600160a01b03811660008181526101606020526040808220805460ff19166001179055517f9b00f7ce837171e534b8e63bba8fe3d5f55a4f421fcea48e062712f4b67d14d09190a250565b600082815260656020526040902060010154610bc281610c39565b6104b98383610cc9565b60006001600160a01b038216610bf5576040516338c32a4f60e11b815260040160405180910390fd5b506001600160a01b03166000908152610160602052604090205460ff1690565b7f4953627ce48c6e8ab278761a09d901c17e56959bf5111b257bf9cf32654be2ca90565b610607813361115d565b610c4d8282610897565b61053d5760008281526065602090815260408083206001600160a01b03851684529091529020805460ff19166001179055610c853390565b6001600160a01b0316816001600160a01b0316837f2f8788117e7eff1d82e926ec794901d17c78024a50270940304540a733656f0d60405160405180910390a45050565b610cd38282610897565b1561053d5760008281526065602090815260408083206001600160a01b0385168085529252808320805460ff1916905551339285917ff6391f5c32d9c69d2a47ea670b442974b53935d1edc7fd64eb21e047a839171b9190a45050565b600080516020611af6833981519152546001600160a01b031690565b610d54610996565b6106075760405162461bcd60e51b815260206004820152602b60248201527f4d75737420686176652061646d696e20726f6c6520746f20706572666f726d2060448201526a3a3434b99030b1ba34b7b760a91b606482015260840161052a565b7f4910fdfa16fed3260ed0e7147f7cc6da11a60208b5b9406d12a635614ffd91435460ff1615610de7576104b9836111b6565b826001600160a01b03166352d1902d6040518163ffffffff1660e01b815260040160206040518083038186803b158015610e2057600080fd5b505afa925050508015610e50575060408051601f3d908101601f19168201909252610e4d91810190611796565b60015b610eb35760405162461bcd60e51b815260206004820152602e60248201527f45524331393637557067726164653a206e657720696d706c656d656e7461746960448201526d6f6e206973206e6f74205555505360901b606482015260840161052a565b600080516020611af68339815191528114610f225760405162461bcd60e51b815260206004820152602960248201527f45524331393637557067726164653a20756e737570706f727465642070726f786044820152681a58589b195555525160ba1b606482015260840161052a565b506104b9838383611252565b7f65d7a28e3265b37a6474929f336521b332c1681b933f6cb9f3376673440d862a90565b610f5a61127d565b6097805460ff191690557f5db9ee0a495bf2e6ff9c91a7834c1ba4fdd244a5e8aa4e537bd38aeae4b073aa335b6040516001600160a01b03909116815260200160405180910390a1565b600054610100900460ff16610fcb5760405162461bcd60e51b815260040161052a906119a9565b6097805460ff19169055565b610fdf6112c6565b6097805460ff191660011790557f62e78cea01bee320cd4e420270b5ea74000d11b0c9f74754ebdbfc544b05a258610f873390565b600054610100900460ff166106395760405162461bcd60e51b815260040161052a906119a9565b600054610100900460ff166110625760405162461bcd60e51b815260040161052a906119a9565b600160c955565b7fa49807205ce4d355092ef5a8a18f56e8913cf4a201fbe287825b095693c2177590565b600082815260656020526040808220600101805490849055905190918391839186917fbd79b86ffe0ab8e8776151514217cd7cacd52c909f66475c3af44e129f0b00ff9190a4505050565b604051635c9fcd8560e11b8152600060048201819052906001600160a01b0383169063b93f9b0a9060240160206040518083038186803b15801561111b57600080fd5b505afa15801561112f573d6000803e3d6000fd5b505050506040513d601f19601f820116820180604052508101906103ef91906116a3565b61053d8282610c43565b6111678282610897565b61053d576111748161130c565b61117f83602061131e565b604051602001611190929190611821565b60408051601f198184030181529082905262461bcd60e51b825261052a91600401611890565b6001600160a01b0381163b6112235760405162461bcd60e51b815260206004820152602d60248201527f455243313936373a206e657720696d706c656d656e746174696f6e206973206e60448201526c1bdd08184818dbdb9d1c9858dd609a1b606482015260840161052a565b600080516020611af683398151915280546001600160a01b0319166001600160a01b0392909216919091179055565b61125b83611507565b6000825111806112685750805b156104b9576112778383611547565b50505050565b60975460ff166106395760405162461bcd60e51b815260206004820152601460248201527314185d5cd8589b194e881b9bdd081c185d5cd95960621b604482015260640161052a565b60975460ff16156106395760405162461bcd60e51b815260206004820152601060248201526f14185d5cd8589b194e881c185d5cd95960821b604482015260640161052a565b60606103ef6001600160a01b03831660145b6060600061132d836002611a52565b611338906002611a3a565b67ffffffffffffffff81111561135e57634e487b7160e01b600052604160045260246000fd5b6040519080825280601f01601f191660200182016040528015611388576020820181803683370190505b509050600360fc1b816000815181106113b157634e487b7160e01b600052603260045260246000fd5b60200101906001600160f81b031916908160001a905350600f60fb1b816001815181106113ee57634e487b7160e01b600052603260045260246000fd5b60200101906001600160f81b031916908160001a9053506000611412846002611a52565b61141d906001611a3a565b90505b60018111156114b1576f181899199a1a9b1b9c1cb0b131b232b360811b85600f166010811061145f57634e487b7160e01b600052603260045260246000fd5b1a60f81b82828151811061148357634e487b7160e01b600052603260045260246000fd5b60200101906001600160f81b031916908160001a90535060049490941c936114aa81611a9d565b9050611420565b5083156115005760405162461bcd60e51b815260206004820181905260248201527f537472696e67733a20686578206c656e67746820696e73756666696369656e74604482015260640161052a565b9392505050565b611510816111b6565b6040516001600160a01b038216907fbc7cd75a20ee27fd9adebab32041f755214dbc6bffa90cc0225b39da2e5c2d3b90600090a250565b60606115008383604051806060016040528060278152602001611b16602791396060600080856001600160a01b0316856040516115849190611805565b600060405180830381855af49150503d80600081146115bf576040519150601f19603f3d011682016040523d82523d6000602084013e6115c4565b606091505b50915091506115d5868383876115df565b9695505050505050565b6060831561164b578251611644576001600160a01b0385163b6116445760405162461bcd60e51b815260206004820152601d60248201527f416464726573733a2063616c6c20746f206e6f6e2d636f6e7472616374000000604482015260640161052a565b5081611655565b611655838361165d565b949350505050565b81511561166d5781518083602001fd5b8060405162461bcd60e51b815260040161052a9190611890565b600060208284031215611698578081fd5b813561150081611ae0565b6000602082840312156116b4578081fd5b815161150081611ae0565b600080604083850312156116d1578081fd5b82356116dc81611ae0565b9150602083013567ffffffffffffffff808211156116f8578283fd5b818501915085601f83011261170b578283fd5b81358181111561171d5761171d611aca565b604051601f8201601f19908116603f0116810190838211818310171561174557611745611aca565b8160405282815288602084870101111561175d578586fd5b82602086016020830137856020848301015280955050505050509250929050565b60006020828403121561178f578081fd5b5035919050565b6000602082840312156117a7578081fd5b5051919050565b600080604083850312156117c0578182fd5b8235915060208301356117d281611ae0565b809150509250929050565b6000602082840312156117ee578081fd5b81356001600160e01b031981168114611500578182fd5b60008251611817818460208701611a71565b9190910192915050565b76020b1b1b2b9b9a1b7b73a3937b61d1030b1b1b7bab73a1604d1b815260008351611853816017850160208801611a71565b7001034b99036b4b9b9b4b733903937b6329607d1b6017918401918201528351611884816028840160208801611a71565b01602801949350505050565b60208152600082518060208401526118af816040850160208701611a71565b601f01601f19169190910160400192915050565b6020808252602c908201527f46756e6374696f6e206d7573742062652063616c6c6564207468726f7567682060408201526b19195b1959d85d1958d85b1b60a21b606082015260800190565b6020808252602c908201527f46756e6374696f6e206d7573742062652063616c6c6564207468726f7567682060408201526b6163746976652070726f787960a01b606082015260800190565b6020808252602e908201527f496e697469616c697a61626c653a20636f6e747261637420697320616c72656160408201526d191e481a5b9a5d1a585b1a5e995960921b606082015260800190565b6020808252602b908201527f496e697469616c697a61626c653a20636f6e7472616374206973206e6f74206960408201526a6e697469616c697a696e6760a81b606082015260800190565b60208082526026908201527f5061757365725061757361626c653a2043616c6c6572206973206e6f742061206040820152653830bab9b2b960d11b606082015260800190565b60008219821115611a4d57611a4d611ab4565b500190565b6000816000190483118215151615611a6c57611a6c611ab4565b500290565b60005b83811015611a8c578181015183820152602001611a74565b838111156112775750506000910152565b600081611aac57611aac611ab4565b506000190190565b634e487b7160e01b600052601160045260246000fd5b634e487b7160e01b600052604160045260246000fd5b6001600160a01b038116811461060757600080fdfe360894a13ba1a3210667c828492db98dca3e2076cc3735a920a3ca505d382bbc416464726573733a206c6f772d6c6576656c2064656c65676174652063616c6c206661696c6564a26469706673582212203d42a28f2b201e0418291ceb45c097d20bd1f1ec72bdaea4b4d2e9eca8001a3164736f6c63430008040033",
  "linkReferences": {},
  "deployedLinkReferences": {}
}